{"contracts/ExpenseFactory.sol":{"ExpenseFactory":{"abi":[{"inputs":[],"stateMutability":"nonpayable","type":"constructor"},{"inputs":[],"name":"EnforcedPause","type":"error"},{"inputs":[],"name":"ExpectedPause","type":"error"},{"inputs":[{"internalType":"address","name":"owner","type":"address"}],"name":"OwnableInvalidOwner","type":"error"},{"inputs":[{"internalType":"address","name":"account","type":"address"}],"name":"OwnableUnauthorizedAccount","type":"error"},{"inputs":[],"name":"ReentrancyGuardReentrantCall","type":"error"},{"anonymous":false,"inputs":[{"indexed":false,"internalType":"uint256","name":"newFee","type":"uint256"}],"name":"CreationFeeUpdated","type":"event"},{"anonymous":false,"inputs":[{"indexed":true,"internalType":"address","name":"creator","type":"address"}],"name":"CreatorAuthorized","type":"event"},{"anonymous":false,"inputs":[{"indexed":true,"internalType":"address","name":"creator","type":"address"}],"name":"CreatorDeauthorized","type":"event"},{"anonymous":false,"inputs":[{"indexed":true,"internalType":"address","name":"sender","type":"address"},{"indexed":false,"internalType":"uint256","name":"amount","type":"uint256"},{"indexed":false,"internalType":"uint256","name":"timestamp","type":"uint256"}],"name":"ETHReceived","type":"event"},{"anonymous":false,"inputs":[{"indexed":true,"internalType":"address","name":"group","type":"address"},{"indexed":true,"internalType":"address","name":"creator","type":"address"},{"indexed":false,"internalType":"string","name":"name","type":"string"},{"indexed":false,"internalType":"uint256","name":"timestamp","type":"uint256"}],"name":"GroupCreated","type":"event"},{"anonymous":false,"inputs":[{"indexed":true,"internalType":"address","name":"group","type":"address"},{"indexed":false,"internalType":"uint256","name":"timestamp","type":"uint256"}],"name":"GroupDeactivated","type":"event"},{"anonymous":false,"inputs":[{"indexed":false,"internalType":"uint256","name":"newMax","type":"uint256"}],"name":"MaxGroupsPerUserUpdated","type":"event"},{"anonymous":false,"inputs":[{"indexed":true,"internalType":"address","name":"previousOwner","type":"address"},{"indexed":true,"internalType":"address","name":"newOwner","type":"address"}],"name":"OwnershipTransferred","type":"event"},{"anonymous":false,"inputs":[{"indexed":false,"internalType":"address","name":"account","type":"address"}],"name":"Paused","type":"event"},{"anonymous":false,"inputs":[{"indexed":false,"internalType":"address","name":"account","type":"address"}],"name":"Unpaused","type":"event"},{"inputs":[{"internalType":"address","name":"_user","type":"address"},{"internalType":"address","name":"_groupAddress","type":"address"}],"name":"addUserToGroup","outputs":[],"stateMutability":"nonpayable","type":"function"},{"inputs":[{"internalType":"address","name":"_creator","type":"address"}],"name":"authorizeCreator","outputs":[],"stateMutability":"nonpayable","type":"function"},{"inputs":[{"internalType":"address","name":"","type":"address"}],"name":"authorizedCreators","outputs":[{"internalType":"bool","name":"","type":"bool"}],"stateMutability":"view","type":"function"},{"inputs":[{"internalType":"string","name":"_name","type":"string"},{"internalType":"string","name":"_creatorNickname","type":"string"}],"name":"createGroup","outputs":[{"internalType":"address","name":"","type":"address"}],"stateMutability":"payable","type":"function"},{"inputs":[],"name":"creationFee","outputs":[{"internalType":"uint256","name":"","type":"uint256"}],"stateMutability":"view","type":"function"},{"inputs":[{"internalType":"address","name":"_groupAddress","type":"address"}],"name":"deactivateGroup","outputs":[],"stateMutability":"nonpayable","type":"function"},{"inputs":[{"internalType":"address","name":"_creator","type":"address"}],"name":"deauthorizeCreator","outputs":[],"stateMutability":"nonpayable","type":"function"},{"inputs":[{"internalType":"address","name":"_groupAddress","type":"address"}],"name":"emergencyDeactivateGroup","outputs":[],"stateMutability":"nonpayable","type":"function"},{"inputs":[],"name":"getActiveGroupsCount","outputs":[{"internalType":"uint256","name":"","type":"uint256"}],"stateMutability":"view","type":"function"},{"inputs":[{"internalType":"uint256","name":"_offset","type":"uint256"},{"internalType":"uint256","name":"_limit","type":"uint256"}],"name":"getAllGroupsPaginated","outputs":[{"internalType":"address[]","name":"groups","type":"address[]"},{"internalType":"uint256","name":"total","type":"uint256"}],"stateMutability":"view","type":"function"},{"inputs":[],"name":"getFactoryStats","outputs":[{"components":[{"internalType":"uint256","name":"totalGroups","type":"uint256"},{"internalType":"uint256","name":"activeGroups","type":"uint256"},{"internalType":"uint256","name":"totalMembers","type":"uint256"},{"internalType":"uint256","name":"totalExpenses","type":"uint256"}],"internalType":"struct ExpenseFactory.GroupStats","name":"","type":"tuple"}],"stateMutability":"view","type":"function"},{"inputs":[{"internalType":"address","name":"_groupAddress","type":"address"}],"name":"getGroupInfo","outputs":[{"components":[{"internalType":"address","name":"groupAddress","type":"address"},{"internalType":"string","name":"name","type":"string"},{"internalType":"address","name":"creator","type":"address"},{"internalType":"uint256","name":"createdAt","type":"uint256"},{"internalType":"bool","name":"active","type":"bool"},{"internalType":"uint256","name":"memberCount","type":"uint256"},{"internalType":"uint256","name":"totalExpenses","type":"uint256"},{"internalType":"uint256","name":"lastActivity","type":"uint256"}],"internalType":"struct ExpenseFactory.GroupInfo","name":"","type":"tuple"}],"stateMutability":"view","type":"function"},{"inputs":[],"name":"getTotalGroupsCount","outputs":[{"internalType":"uint256","name":"","type":"uint256"}],"stateMutability":"view","type":"function"},{"inputs":[{"internalType":"address","name":"_user","type":"address"}],"name":"getUserGroups","outputs":[{"internalType":"address[]","name":"","type":"address[]"}],"stateMutability":"view","type":"function"},{"inputs":[{"internalType":"address","name":"_user","type":"address"}],"name":"getUserGroupsWithInfo","outputs":[{"components":[{"internalType":"address","name":"groupAddress","type":"address"},{"internalType":"string","name":"name","type":"string"},{"internalType":"address","name":"creator","type":"address"},{"internalType":"uint256","name":"createdAt","type":"uint256"},{"internalType":"bool","name":"active","type":"bool"},{"internalType":"uint256","name":"memberCount","type":"uint256"},{"internalType":"uint256","name":"totalExpenses","type":"uint256"},{"internalType":"uint256","name":"lastActivity","type":"uint256"}],"internalType":"struct ExpenseFactory.GroupInfo[]","name":"","type":"tuple[]"}],"stateMutability":"view","type":"function"},{"inputs":[{"internalType":"address","name":"","type":"address"}],"name":"groupInfos","outputs":[{"internalType":"address","name":"groupAddress","type":"address"},{"internalType":"string","name":"name","type":"string"},{"internalType":"address","name":"creator","type":"address"},{"internalType":"uint256","name":"createdAt","type":"uint256"},{"internalType":"bool","name":"active","type":"bool"},{"internalType":"uint256","name":"memberCount","type":"uint256"},{"internalType":"uint256","name":"totalExpenses","type":"uint256"},{"internalType":"uint256","name":"lastActivity","type":"uint256"}],"stateMutability":"view","type":"function"},{"inputs":[{"internalType":"address","name":"_creator","type":"address"}],"name":"isAuthorizedCreator","outputs":[{"internalType":"bool","name":"","type":"bool"}],"stateMutability":"view","type":"function"},{"inputs":[],"name":"maxGroupsPerUser","outputs":[{"internalType":"uint256","name":"","type":"uint256"}],"stateMutability":"view","type":"function"},{"inputs":[],"name":"owner","outputs":[{"internalType":"address","name":"","type":"address"}],"stateMutability":"view","type":"function"},{"inputs":[],"name":"pause","outputs":[],"stateMutability":"nonpayable","type":"function"},{"inputs":[],"name":"paused","outputs":[{"internalType":"bool","name":"","type":"bool"}],"stateMutability":"view","type":"function"},{"inputs":[],"name":"renounceOwnership","outputs":[],"stateMutability":"nonpayable","type":"function"},{"inputs":[{"internalType":"string","name":"_nameQuery","type":"string"}],"name":"searchGroups","outputs":[{"internalType":"address[]","name":"","type":"address[]"}],"stateMutability":"view","type":"function"},{"inputs":[{"internalType":"uint256","name":"_newFee","type":"uint256"}],"name":"setCreationFee","outputs":[],"stateMutability":"nonpayable","type":"function"},{"inputs":[{"internalType":"uint256","name":"_newMax","type":"uint256"}],"name":"setMaxGroupsPerUser","outputs":[],"stateMutability":"nonpayable","type":"function"},{"inputs":[{"internalType":"address","name":"newOwner","type":"address"}],"name":"transferOwnership","outputs":[],"stateMutability":"nonpayable","type":"function"},{"inputs":[],"name":"unpause","outputs":[],"stateMutability":"nonpayable","type":"function"},{"inputs":[{"internalType":"address","name":"_groupAddress","type":"address"}],"name":"updateGroupActivity","outputs":[],"stateMutability":"nonpayable","type":"function"},{"inputs":[],"name":"withdrawFees","outputs":[],"stateMutability":"nonpayable","type":"function"},{"stateMutability":"payable","type":"receive"}],"evm":{"bytecode":{"linkReferences":{},"object":"6080604052600a60065560006007553480156200001b57600080fd5b5033806200004357604051631e4fbdf760e01b81526000600482015260240160405180910390fd5b6200004e8162000074565b506001808055336000908152600460205260409020805460ff19169091179055620000c4565b600080546001600160a01b038381166001600160a01b0319831681178455604051919092169283917f8be0079c531659141344cd1fd0a4f28419497f9722a3daafe3b4186f6b6457e09190a35050565b61687f80620000d46000396000f3fe608060405260043610620001eb5760003560e01c80638456cb59116200010b578063b7d8622511620000a1578063d8625b07116200006c578063d8625b071462000624578063dce0b4e41462000649578063e376fa5e1462000661578063f2fde38b146200068657600080fd5b8063b7d86225146200054b578063c695502a1462000570578063c922644514620005a4578063d83ff6d014620005f057600080fd5b8063942cb6c011620000e2578063942cb6c014620004d25780639633863214620004f75780639f9334e4146200051c578063a5cc1ddd146200053357600080fd5b80638456cb5914620004755780638da5cb5b146200048d57806393739a9314620004ad57600080fd5b80634aec7b6a11620001815780636ade18ca11620001585780636ade18ca14620003c8578063715018a6146200040357806379b53ebe146200041b5780637d4607d4146200044057600080fd5b80634aec7b6a14620003515780634d928efa14620003765780635c975abb146200039b57600080fd5b80633f4ba83a11620001c25780633f4ba83a14620002d35780634250c55a14620002ed578063476343ee146200031457806349d71d43146200032c57600080fd5b80631669022214620002325780631e4a97dd146200026f5780633da04e4a146200029f57600080fd5b366200022d576040805134815242602082015233917f7dd768b8b37911c0bb413d9cf56fcb57b286f5def4c57d475c8abdd6737b7e1e910160405180910390a2005b600080fd5b3480156200023f57600080fd5b506200025762000251366004620024bc565b620006ab565b604051620002669190620025a2565b60405180910390f35b6200028662000280366004620026b3565b620008c9565b6040516001600160a01b03909116815260200162000266565b348015620002ac57600080fd5b50620002c4620002be366004620024bc565b62000d87565b60405162000266919062002764565b348015620002e057600080fd5b50620002eb62000d94565b005b348015620002fa57600080fd5b506200030562000daa565b60405190815260200162000266565b3480156200032157600080fd5b50620002eb62000e30565b3480156200033957600080fd5b50620002c46200034b36600462002779565b62000f31565b3480156200035e57600080fd5b50620002eb62000370366004620024bc565b6200119d565b3480156200038357600080fd5b50620002eb62000395366004620027ba565b6200125e565b348015620003a857600080fd5b50600054600160a01b900460ff165b604051901515815260200162000266565b348015620003d557600080fd5b50620003ed620003e7366004620024bc565b62001304565b60405162000266989796959493929190620027d4565b3480156200041057600080fd5b50620002eb620013f0565b3480156200042857600080fd5b50620003b76200043a366004620024bc565b62001406565b3480156200044d57600080fd5b50620004656200045f3660046200282e565b6200143e565b6040516200026692919062002851565b3480156200048257600080fd5b50620002eb62001672565b3480156200049a57600080fd5b506000546001600160a01b031662000286565b348015620004ba57600080fd5b50620002eb620004cc366004620024bc565b62001686565b348015620004df57600080fd5b50620002eb620004f1366004620024bc565b620017f3565b3480156200050457600080fd5b50620002eb62000516366004620024bc565b620018e6565b3480156200052957600080fd5b5060055462000305565b3480156200054057600080fd5b506200030560065481565b3480156200055857600080fd5b50620002eb6200056a366004620027ba565b620019b1565b3480156200057d57600080fd5b50620003b76200058f366004620024bc565b60046020526000908152604090205460ff1681565b348015620005b157600080fd5b50620005bc620019f1565b6040516200026691908151815260208083015190820152604080830151908201526060918201519181019190915260800190565b348015620005fd57600080fd5b50620006156200060f366004620024bc565b62001af6565b60405162000266919062002875565b3480156200063157600080fd5b50620002eb62000643366004620024bc565b62001c88565b3480156200065657600080fd5b506200030560075481565b3480156200066e57600080fd5b50620002eb620006803660046200288a565b62001d35565b3480156200069357600080fd5b50620002eb620006a5366004620024bc565b62001f60565b60606000620006ba8362001fa4565b90506000815167ffffffffffffffff811115620006db57620006db62002608565b6040519080825280602002602001820160405280156200071857816020015b6200070462002438565b815260200190600190039081620006fa5790505b50905060005b8251811015620008c15760036000848381518110620007415762000741620028c2565b60200260200101516001600160a01b03166001600160a01b03168152602001908152602001600020604051806101000160405290816000820160009054906101000a90046001600160a01b03166001600160a01b03166001600160a01b03168152602001600182018054620007b690620028d8565b80601f0160208091040260200160405190810160405280929190818152602001828054620007e490620028d8565b8015620008355780601f10620008095761010080835404028352916020019162000835565b820191906000526020600020905b8154815290600101906020018083116200081757829003601f168201915b505050918352505060028201546001600160a01b0316602082015260038201546040820152600482015460ff161515606082015260058201546080820152600682015460a082015260079091015460c0909101528251839083908110620008a057620008a0620028c2565b60200260200101819052508080620008b89062002924565b9150506200071e565b509392505050565b3360009081526004602052604081205460ff168062000902575033620008f76000546001600160a01b031690565b6001600160a01b0316145b620009545760405162461bcd60e51b815260206004820152601f60248201527f4e6f7420617574686f72697a656420746f206372656174652067726f7570730060448201526064015b60405180910390fd5b6200095e620021af565b62000968620021db565b600083511180156200097c57506032835111155b620009ca5760405162461bcd60e51b815260206004820152601960248201527f496e76616c69642067726f7570206e616d65206c656e6774680000000000000060448201526064016200094b565b60008251118015620009de57506020825111155b62000a2c5760405162461bcd60e51b815260206004820152601760248201527f496e76616c6964206e69636b6e616d65206c656e67746800000000000000000060448201526064016200094b565b60075434101562000a805760405162461bcd60e51b815260206004820152601960248201527f496e73756666696369656e74206372656174696f6e206665650000000000000060448201526064016200094b565b600654336000908152600260205260409020541062000ae25760405162461bcd60e51b815260206004820152601f60248201527f4d6178696d756d2067726f75707320706572207573657220726561636865640060448201526064016200094b565b600083338460405162000af59062002491565b62000b039392919062002940565b604051809103906000f08015801562000b20573d6000803e3d6000fd5b5060408051610100810182526001600160a01b0383811680835260208084018a81523385870152426060860181905260016080870181905260a08701819052600060c0880181905260e08801929092529381526003909252949020835181546001600160a01b031916931692909217825592519394508493919283929082019062000bac9082620029d5565b50604082810151600283810180546001600160a01b03199081166001600160a01b039485161790915560608601516003860155608086015160048601805460ff191691151591909117905560a086015160058087019190915560c0870151600687015560e090960151600795860155336000908152602092835293842080546001818101835591865292852090920180548216938916938417905585549182018655949092527f036b6384b5eca791c62761152d0c79bb0604c104a5fb6f4eb0703f3154bb3db09091018054909316179091555434111562000d2457600754600090339062000c9c903462002aa2565b604051600081818185875af1925050503d806000811462000cda576040519150601f19603f3d011682016040523d82523d6000602084013e62000cdf565b606091505b505090508062000d225760405162461bcd60e51b815260206004820152600d60248201526c1499599d5b990819985a5b1959609a1b60448201526064016200094b565b505b336001600160a01b0316826001600160a01b03167f41e5a7efa0ab2e0500f747947397822af01c4041d6edc51d593f4180da4fb973884260405162000d6b92919062002ab8565b60405180910390a35091505062000d8160018055565b92915050565b606062000d818262001fa4565b62000d9e62002206565b62000da862002235565b565b600080805b60055481101562000e2a57600360006005838154811062000dd45762000dd4620028c2565b60009182526020808320909101546001600160a01b0316835282019290925260400190206004015460ff161562000e15578162000e118162002924565b9250505b8062000e218162002924565b91505062000daf565b50919050565b62000e3a62002206565b62000e44620021db565b478062000e8a5760405162461bcd60e51b81526020600482015260136024820152724e6f206665657320746f20776974686472617760681b60448201526064016200094b565b600080546040516001600160a01b039091169083908381818185875af1925050503d806000811462000ed9576040519150601f19603f3d011682016040523d82523d6000602084013e62000ede565b606091505b505090508062000f255760405162461bcd60e51b815260206004820152601160248201527015da5d1a191c985dd85b0819985a5b1959607a1b60448201526064016200094b565b505062000da860018055565b8051606090829062000f7b5760405162461bcd60e51b8152602060048201526012602482015271456d7074792073656172636820717565727960701b60448201526064016200094b565b60055460009067ffffffffffffffff81111562000f9c5762000f9c62002608565b60405190808252806020026020018201604052801562000fc6578160200160208202803683370190505b5090506000805b6005548110156200119357600360006005838154811062000ff25762000ff2620028c2565b60009182526020808320909101546001600160a01b0316835282019290925260400190206004015460ff16156200117e57600060036000600584815481106200103f576200103f620028c2565b60009182526020808320909101546001600160a01b03168352820192909252604001902060010180546200107390620028d8565b80601f0160208091040260200160405190810160405280929190818152602001828054620010a190620028d8565b8015620010f25780601f10620010c657610100808354040283529160200191620010f2565b820191906000526020600020905b815481529060010190602001808311620010d457829003601f168201915b505050505090506200110581866200228c565b156200117c5760058281548110620011215762001121620028c2565b9060005260206000200160009054906101000a90046001600160a01b0316848481518110620011545762001154620028c2565b6001600160a01b039092166020928302919091019091015282620011788162002924565b9350505b505b806200118a8162002924565b91505062000fcd565b5081529392505050565b620011a762002206565b6000546001600160a01b03166001600160a01b0316816001600160a01b031603620012155760405162461bcd60e51b815260206004820152601860248201527f43616e6e6f74206465617574686f72697a65206f776e6572000000000000000060448201526064016200094b565b6001600160a01b038116600081815260046020526040808220805460ff19169055517ff6a1dd783aaf4674902f6284e91943a92233bbe1c581ae17b9c1871758ee63609190a250565b6200126862002206565b6000811180156200127a575060648111155b620012c85760405162461bcd60e51b815260206004820152601860248201527f496e76616c6964206d61782067726f7570732076616c7565000000000000000060448201526064016200094b565b60068190556040518181527faaea268d025100df77607dae59e2fc2e5a8707e4abbb5cebb15ca8a2988e0df9906020015b60405180910390a150565b600360205260009081526040902080546001820180546001600160a01b0390921692916200133290620028d8565b80601f01602080910402602001604051908101604052809291908181526020018280546200136090620028d8565b8015620013b15780601f106200138557610100808354040283529160200191620013b1565b820191906000526020600020905b8154815290600101906020018083116200139357829003601f168201915b5050506002840154600385015460048601546005870154600688015460079098015496976001600160a01b039094169692955060ff9091169350919088565b620013fa62002206565b62000da8600062002377565b6001600160a01b03811660009081526004602052604081205460ff168062000d815750506000546001600160a01b0391821691161490565b6060600080805b600554811015620014c05760036000600583815481106200146a576200146a620028c2565b60009182526020808320909101546001600160a01b0316835282019290925260400190206004015460ff1615620014ab5781620014a78162002924565b9250505b80620014b78162002924565b91505062001445565b50808510620014e257604080516000815260208101909152925090506200166b565b6000620014f0858762002acd565b905081811115620014fe5750805b60006200150c878362002aa2565b905060008167ffffffffffffffff8111156200152c576200152c62002608565b60405190808252806020026020018201604052801562001556578160200160208202803683370190505b50905060008060005b600554811080156200157057508482105b156200165f576003600060058381548110620015905762001590620028c2565b60009182526020808320909101546001600160a01b0316835282019290925260400190206004015460ff16156200164a578a83106200163a5760058181548110620015df57620015df620028c2565b9060005260206000200160009054906101000a90046001600160a01b0316848381518110620016125762001612620028c2565b6001600160a01b039092166020928302919091019091015281620016368162002924565b9250505b82620016468162002924565b9350505b80620016568162002924565b9150506200155f565b50919650939450505050505b9250929050565b6200167c62002206565b62000da8620023c7565b806001600160a01b038116620016b05760405162461bcd60e51b81526004016200094b9062002ae3565b6001600160a01b03811660009081526003602052604090206004015460ff16620016ee5760405162461bcd60e51b81526004016200094b9062002b12565b6001600160a01b0382811660009081526003602052604090206002015416331480620017225750336001600160a01b038316145b806200173857506000546001600160a01b031633145b620017915760405162461bcd60e51b815260206004820152602260248201527f4e6f7420617574686f72697a656420746f20646561637469766174652067726f604482015261075760f41b60648201526084016200094b565b6001600160a01b03821660008181526003602052604090819020600401805460ff19169055517f7631c34004cd3d0f8ee340cd197db67a72dad2fe4fb5d8cdf87e8bed952bbe7090620017e79042815260200190565b60405180910390a25050565b806001600160a01b0381166200181d5760405162461bcd60e51b81526004016200094b9062002ae3565b6001600160a01b03811660009081526003602052604090206004015460ff166200185b5760405162461bcd60e51b81526004016200094b9062002b12565b336001600160a01b03831614620018c55760405162461bcd60e51b815260206004820152602760248201527f4f6e6c792067726f757020636f6e74726163742063616e2075706461746520616044820152666374697669747960c81b60648201526084016200094b565b506001600160a01b0316600090815260036020526040902042600790910155565b620018f062002206565b6001600160a01b0381811660009081526003602052604090205416620019505760405162461bcd60e51b815260206004820152601460248201527311dc9bdd5c08191bd95cc81b9bdd08195e1a5cdd60621b60448201526064016200094b565b6001600160a01b03811660008181526003602052604090819020600401805460ff19169055517f7631c34004cd3d0f8ee340cd197db67a72dad2fe4fb5d8cdf87e8bed952bbe7090620019a69042815260200190565b60405180910390a250565b620019bb62002206565b60078190556040518181527f88a973fd5506071e0cf878b30898776c47d5250a7ee1e6ee0b36df3b03c7c16a90602001620012f9565b62001a1d6040518060800160405280600081526020016000815260200160008152602001600081525090565b6000806000805b60055481101562001ace576000600360006005848154811062001a4b5762001a4b620028c2565b60009182526020808320909101546001600160a01b031683528201929092526040019020600481015490915060ff161562001ab8578462001a8c8162002924565b95505080600501548462001aa1919062002acd565b935080600601548362001ab5919062002acd565b92505b508062001ac58162002924565b91505062001a24565b5060408051608081018252600554815260208101949094528301919091526060820152919050565b62001b0062002438565b816001600160a01b03811662001b2a5760405162461bcd60e51b81526004016200094b9062002ae3565b6001600160a01b03811660009081526003602052604090206004015460ff1662001b685760405162461bcd60e51b81526004016200094b9062002b12565b6001600160a01b0380841660009081526003602090815260409182902082516101008101909352805490931682526001830180549293929184019162001bae90620028d8565b80601f016020809104026020016040519081016040528092919081815260200182805462001bdc90620028d8565b801562001c2d5780601f1062001c015761010080835404028352916020019162001c2d565b820191906000526020600020905b81548152906001019060200180831162001c0f57829003601f168201915b505050918352505060028201546001600160a01b0316602082015260038201546040820152600482015460ff161515606082015260058201546080820152600682015460a082015260079091015460c0909101529392505050565b62001c9262002206565b6001600160a01b03811662001cea5760405162461bcd60e51b815260206004820152601760248201527f496e76616c69642063726561746f72206164647265737300000000000000000060448201526064016200094b565b6001600160a01b038116600081815260046020526040808220805460ff19166001179055517eb6d3c5059e85c667aa67cfa572e42162916972ed621a4618e55dfcb4a174639190a250565b806001600160a01b03811662001d5f5760405162461bcd60e51b81526004016200094b9062002ae3565b6001600160a01b03811660009081526003602052604090206004015460ff1662001d9d5760405162461bcd60e51b81526004016200094b9062002b12565b336001600160a01b0383161462001e015760405162461bcd60e51b815260206004820152602160248201527f4f6e6c792067726f757020636f6e74726163742063616e2061646420757365726044820152607360f81b60648201526084016200094b565b6001600160a01b038316600090815260026020526040812090805b825481101562001e7f57846001600160a01b031683828154811062001e455762001e45620028c2565b6000918252602090912001546001600160a01b03160362001e6a576001915062001e7f565b8062001e768162002924565b91505062001e1c565b508062001f595760065482541062001eda5760405162461bcd60e51b815260206004820152601f60248201527f55736572206861732072656163686564206d6178696d756d2067726f7570730060448201526064016200094b565b6001600160a01b03858116600090815260026020908152604080832080546001810182559084528284200180546001600160a01b03191694891694851790559282526003905290812060050180549162001f348362002924565b90915550506001600160a01b0384166000908152600360205260409020426007909101555b5050505050565b62001f6a62002206565b6001600160a01b03811662001f9657604051631e4fbdf760e01b8152600060048201526024016200094b565b62001fa18162002377565b50565b6001600160a01b03811660009081526002602090815260408083208054825181850281018501909352808352606094938301828280156200200f57602002820191906000526020600020905b81546001600160a01b0316815260019091019060200180831162001ff0575b505050505090506000805b82518110156200209257600360008483815181106200203d576200203d620028c2565b6020908102919091018101516001600160a01b031682528101919091526040016000206004015460ff16156200207d5781620020798162002924565b9250505b80620020898162002924565b9150506200201a565b5060008167ffffffffffffffff811115620020b157620020b162002608565b604051908082528060200260200182016040528015620020db578160200160208202803683370190505b5090506000805b8451811015620021a45760036000868381518110620021055762002105620028c2565b6020908102919091018101516001600160a01b031682528101919091526040016000206004015460ff16156200218f578481815181106200214a576200214a620028c2565b6020026020010151838381518110620021675762002167620028c2565b6001600160a01b0390921660209283029190910190910152816200218b8162002924565b9250505b806200219b8162002924565b915050620020e2565b509095945050505050565b600054600160a01b900460ff161562000da85760405163d93c066560e01b815260040160405180910390fd5b600260015403620021ff57604051633ee5aeb560e01b815260040160405180910390fd5b6002600155565b6000546001600160a01b0316331462000da85760405163118cdaa760e01b81523360048201526024016200094b565b6200223f6200240d565b6000805460ff60a01b191690557f5db9ee0a495bf2e6ff9c91a7834c1ba4fdd244a5e8aa4e537bd38aeae4b073aa335b6040516001600160a01b03909116815260200160405180910390a1565b6000825182511115620022a25750600062000d81565b60005b82518451620022b5919062002aa2565b81116200236d57600160005b84518110156200234357848181518110620022e057620022e0620028c2565b01602001516001600160f81b03191686620022fc838662002acd565b815181106200230f576200230f620028c2565b01602001516001600160f81b031916146200232e576000915062002343565b806200233a8162002924565b915050620022c1565b508015620023575760019250505062000d81565b5080620023648162002924565b915050620022a5565b5060009392505050565b600080546001600160a01b038381166001600160a01b0319831681178455604051919092169283917f8be0079c531659141344cd1fd0a4f28419497f9722a3daafe3b4186f6b6457e09190a35050565b620023d1620021af565b6000805460ff60a01b1916600160a01b1790557f62e78cea01bee320cd4e420270b5ea74000d11b0c9f74754ebdbfc544b05a2586200226f3390565b600054600160a01b900460ff1662000da857604051638dfc202b60e01b815260040160405180910390fd5b60405180610100016040528060006001600160a01b031681526020016060815260200160006001600160a01b03168152602001600081526020016000151581526020016000815260200160008152602001600081525090565b613d008062002b4a83390190565b80356001600160a01b0381168114620024b757600080fd5b919050565b600060208284031215620024cf57600080fd5b620024da826200249f565b9392505050565b6000815180845260005b818110156200250957602081850181015186830182015201620024eb565b506000602082860101526020601f19601f83011685010191505092915050565b600061010060018060a01b0380845116855260208401518260208701526200255483870182620024e1565b925050806040850151166040860152506060830151606085015260808301511515608085015260a083015160a085015260c083015160c085015260e083015160e08501528091505092915050565b6000602080830181845280855180835260408601915060408160051b870101925083870160005b82811015620025fb57603f19888603018452620025e885835162002529565b94509285019290850190600101620025c9565b5092979650505050505050565b634e487b7160e01b600052604160045260246000fd5b600082601f8301126200263057600080fd5b813567ffffffffffffffff808211156200264e576200264e62002608565b604051601f8301601f19908116603f0116810190828211818310171562002679576200267962002608565b816040528381528660208588010111156200269357600080fd5b836020870160208301376000602085830101528094505050505092915050565b60008060408385031215620026c757600080fd5b823567ffffffffffffffff80821115620026e057600080fd5b620026ee868387016200261e565b935060208501359150808211156200270557600080fd5b5062002714858286016200261e565b9150509250929050565b600081518084526020808501945080840160005b83811015620027595781516001600160a01b03168752958201959082019060010162002732565b509495945050505050565b602081526000620024da60208301846200271e565b6000602082840312156200278c57600080fd5b813567ffffffffffffffff811115620027a457600080fd5b620027b2848285016200261e565b949350505050565b600060208284031215620027cd57600080fd5b5035919050565b6001600160a01b03898116825261010060208301819052600091620027fc8483018c620024e1565b9916604084015250506060810195909552921515608085015260a084019190915260c083015260e09091015292915050565b600080604083850312156200284257600080fd5b50508035926020909101359150565b6040815260006200286660408301856200271e565b90508260208301529392505050565b602081526000620024da602083018462002529565b600080604083850312156200289e57600080fd5b620028a9836200249f565b9150620028b9602084016200249f565b90509250929050565b634e487b7160e01b600052603260045260246000fd5b600181811c90821680620028ed57607f821691505b60208210810362000e2a57634e487b7160e01b600052602260045260246000fd5b634e487b7160e01b600052601160045260246000fd5b6000600182016200293957620029396200290e565b5060010190565b606081526000620029556060830186620024e1565b6001600160a01b03851660208401528281036040840152620029788185620024e1565b9695505050505050565b601f821115620029d057600081815260208120601f850160051c81016020861015620029ab5750805b601f850160051c820191505b81811015620029cc57828155600101620029b7565b5050505b505050565b815167ffffffffffffffff811115620029f257620029f262002608565b62002a0a8162002a038454620028d8565b8462002982565b602080601f83116001811462002a42576000841562002a295750858301515b600019600386901b1c1916600185901b178555620029cc565b600085815260208120601f198616915b8281101562002a735788860151825594840194600190910190840162002a52565b508582101562002a925787850151600019600388901b60f8161c191681555b5050505050600190811b01905550565b8181038181111562000d815762000d816200290e565b604081526000620028666040830185620024e1565b8082018082111562000d815762000d816200290e565b602080825260159082015274496e76616c69642067726f7570206164647265737360581b604082015260600190565b6020808252601b908201527f47726f7570206e6f7420666f756e64206f7220696e616374697665000000000060408201526060019056fe60a06040523480156200001157600080fd5b5060405162003d0038038062003d008339810160408190526200003491620004c4565b6001600055816001600160a01b0381166200006a57604051631e4fbdf760e01b8152600060048201526024015b60405180910390fd5b62000075816200014e565b506000835111620000c95760405162461bcd60e51b815260206004820152601360248201527f47726f7570206e616d6520726571756972656400000000000000000000000000604482015260640162000061565b60008151116200011c5760405162461bcd60e51b815260206004820152601960248201527f43726561746f72206e69636b6e616d6520726571756972656400000000000000604482015260640162000061565b60026200012a8482620005de565b5060016003819055600b5533608052620001458282620001a0565b505050620006e7565b600180546001600160a01b038381166001600160a01b0319831681179093556040519116919082907f8be0079c531659141344cd1fd0a4f28419497f9722a3daafe3b4186f6b6457e090600090a35050565b6001600160a01b038216620001ea5760405162461bcd60e51b815260206004820152600f60248201526e496e76616c6964206164647265737360881b604482015260640162000061565b6001600160a01b0382166000908152600460208190526040909120015460ff1615620002595760405162461bcd60e51b815260206004820152601560248201527f4d656d62657220616c7265616479206578697374730000000000000000000000604482015260640162000061565b600081511180156200026d57506020815111155b620002bb5760405162461bcd60e51b815260206004820152601760248201527f496e76616c6964206e69636b6e616d65206c656e677468000000000000000000604482015260640162000061565b6040805160c0810182526001600160a01b0384811680835260208084018681526000858701819052606086018190526001608087018190524260a08801529381526004909252949020835181546001600160a01b031916931692909217825592519192909190820190620003309082620005de565b50604082810151600283015560608301516003830155608083015160048301805460ff191691151591909117905560a090920151600590910155600880546001810182556000919091527ff3f7a9fe364faab93b216da50a3214154f22a0a2b415b23a84c8169e8b636ee30180546001600160a01b0319166001600160a01b03851690811790915590517fac4f9610b174640b0a902ce555faa384cc9c9d291750f76e476f26f97bd079b490620003eb9084904290620006aa565b60405180910390a25050565b634e487b7160e01b600052604160045260246000fd5b60005b838110156200042a57818101518382015260200162000410565b50506000910152565b600082601f8301126200044557600080fd5b81516001600160401b0380821115620004625762000462620003f7565b604051601f8301601f19908116603f011681019082821181831017156200048d576200048d620003f7565b81604052838152866020858801011115620004a757600080fd5b620004ba8460208301602089016200040d565b9695505050505050565b600080600060608486031215620004da57600080fd5b83516001600160401b0380821115620004f257600080fd5b620005008783880162000433565b602087015190955091506001600160a01b03821682146200052057600080fd5b6040860151919350808211156200053657600080fd5b50620005458682870162000433565b9150509250925092565b600181811c908216806200056457607f821691505b6020821081036200058557634e487b7160e01b600052602260045260246000fd5b50919050565b601f821115620005d957600081815260208120601f850160051c81016020861015620005b45750805b601f850160051c820191505b81811015620005d557828155600101620005c0565b5050505b505050565b81516001600160401b03811115620005fa57620005fa620003f7565b62000612816200060b84546200054f565b846200058b565b602080601f8311600181146200064a5760008415620006315750858301515b600019600386901b1c1916600185901b178555620005d5565b600085815260208120601f198616915b828110156200067b578886015182559484019460019091019084016200065a565b50858210156200069a5787850151600019600388901b60f8161c191681555b5050505050600190811b01905550565b6040815260008351806040840152620006cb8160608501602088016200040d565b602083019390935250601f91909101601f191601606001919050565b6080516135f66200070a6000396000818161070e0152611e9001526135f66000f3fe6080604052600436106101dc5760003560e01c80638bd1e67811610102578063c23f001f11610095578063eb48571f11610064578063eb48571f1461075a578063ebf301e81461077a578063f2fde38b1461079a578063f8b2cb4f146107ba57600080fd5b8063c23f001f146106c4578063c45a0155146106fc578063db2e21bc14610730578063ea0e35b11461074557600080fd5b8063af4afe0a116100d1578063af4afe0a1461063c578063b307fc6d1461066f578063b8bee3001461068f578063c127c247146106a457600080fd5b80638bd1e678146105a95780638da5cb5b146105d7578063ab26c7c614610609578063adf298c81461062957600080fd5b80635c975abb1161017a578063715018a611610149578063715018a614610517578063735e5db61461052c578063783cec80146105595780637e661bc81461057b57600080fd5b80635c975abb1461044f5780635f1231ea1461047957806362cc0f39146104a6578063687b6393146104c657600080fd5b80630b1ca49a116101b65780630b1ca49a1461037a578063481306eb1461039a5780634c582380146103cf5780635768ec681461043a57600080fd5b806307fd5ce81461029f57806308ae4b0c146102b657806308df7dc8146102f157600080fd5b3661029a57336000908152600460208190526040909120015460ff168061020d57506001546001600160a01b031633145b61025e5760405162461bcd60e51b815260206004820152601960248201527f4f6e6c79206d656d626572732063616e2073656e64204554480000000000000060448201526064015b60405180910390fd5b6040805134815242602082015233917f7dd768b8b37911c0bb413d9cf56fcb57b286f5def4c57d475c8abdd6737b7e1e910160405180910390a2005b600080fd5b3480156102ab57600080fd5b506102b46107da565b005b3480156102c257600080fd5b506102d66102d1366004612d42565b610820565b6040516102e896959493929190612daa565b60405180910390f35b3480156102fd57600080fd5b5061034761030c366004612df3565b600760205260009081526040902080546001820154600283015460038401546004909401546001600160a01b03938416949390921692909185565b604080516001600160a01b039687168152959094166020860152928401919091526060830152608082015260a0016102e8565b34801561038657600080fd5b506102b4610395366004612d42565b6108ee565b3480156103a657600080fd5b506103af610bde565b6040805194855260208501939093529183015260608201526080016102e8565b3480156103db57600080fd5b506103ef6103ea366004612df3565b610c61565b6040516102e8919081516001600160a01b0390811682526020808401519091169082015260408083015190820152606080830151908201526080918201519181019190915260a00190565b34801561044657600080fd5b506102b4610d3c565b34801561045b57600080fd5b50600154600160a01b900460ff1660405190151581526020016102e8565b34801561048557600080fd5b50610499610494366004612d42565b610d7c565b6040516102e89190612e0c565b3480156104b257600080fd5b506102b46104c1366004612f27565b610f18565b3480156104d257600080fd5b506105096104e1366004612d42565b3360009081526006602090815260408083206001600160a01b03949094168352929052205490565b6040519081526020016102e8565b34801561052357600080fd5b506102b4611166565b34801561053857600080fd5b5061054c610547366004612df3565b61117a565b6040516102e8919061308f565b34801561056557600080fd5b5061056e6113b0565b6040516102e891906130a2565b34801561058757600080fd5b5061059b6105963660046130b5565b61143e565b6040516102e89291906130d7565b3480156105b557600080fd5b506105c96105c43660046130b5565b61174c565b6040516102e8929190613140565b3480156105e357600080fd5b506001546001600160a01b03165b6040516001600160a01b0390911681526020016102e8565b34801561061557600080fd5b50610509610624366004612df3565b611861565b6102b4610637366004612d42565b611882565b34801561064857600080fd5b5061065c610657366004612df3565b611ce2565b6040516102e89796959493929190613162565b34801561067b57600080fd5b506105f161068a366004612df3565b611db3565b34801561069b57600080fd5b50610509601481565b3480156106b057600080fd5b506102b46106bf3660046131ae565b611ddd565b3480156106d057600080fd5b506105096106df3660046131e6565b600660209081526000928352604080842090915290825290205481565b34801561070857600080fd5b506105f17f000000000000000000000000000000000000000000000000000000000000000081565b34801561073c57600080fd5b506102b4611eeb565b34801561075157600080fd5b50610509603281565b34801561076657600080fd5b50610509610775366004613219565b612055565b34801561078657600080fd5b50610509610795366004612df3565b612794565b3480156107a657600080fd5b506102b46107b5366004612d42565b6127a4565b3480156107c657600080fd5b506105096107d5366004612d42565b6127df565b6107e2612870565b6107ea61289d565b6040514281527fb5a81006f0fbbe8840c33bd9e50f9aaf88f69b1cd74a626748ba871ddf982d32906020015b60405180910390a1565b600460205260009081526040902080546001820180546001600160a01b03909216929161084c906132f9565b80601f0160208091040260200160405190810160405280929190818152602001828054610878906132f9565b80156108c55780601f1061089a576101008083540402835291602001916108c5565b820191906000526020600020905b8154815290600101906020018083116108a857829003601f168201915b5050506002840154600385015460048601546005909601549495919490935060ff909116915086565b6108f6612870565b806001600160a01b03811661091d5760405162461bcd60e51b81526004016102559061332d565b6001600160a01b0381166000908152600460208190526040909120015460ff1661097d5760405162461bcd60e51b81526020600482015260116024820152704d656d626572206e6f742061637469766560781b6044820152606401610255565b6001546001600160a01b03166001600160a01b0316826001600160a01b0316036109df5760405162461bcd60e51b815260206004820152601360248201527221b0b73737ba103932b6b7bb329037bbb732b960691b6044820152606401610255565b6001600160a01b038216600090815260046020526040902060020154158015610a2157506001600160a01b038216600090815260046020526040902060030154155b610a6d5760405162461bcd60e51b815260206004820152601f60248201527f4d656d62657220686173206f75747374616e64696e672062616c616e636573006044820152606401610255565b6001600160a01b0382166000908152600460208190526040822001805460ff191690555b600854811015610b9657826001600160a01b031660088281548110610ab857610ab8613356565b6000918252602090912001546001600160a01b031603610b845760088054610ae290600190613382565b81548110610af257610af2613356565b600091825260209091200154600880546001600160a01b039092169183908110610b1e57610b1e613356565b9060005260206000200160006101000a8154816001600160a01b0302191690836001600160a01b031602179055506008805480610b5d57610b5d613395565b600082815260209020810160001990810180546001600160a01b0319169055019055610b96565b80610b8e816133ab565b915050610a91565b50816001600160a01b03167f3ac963493df564de734d98633f1145d21512e282ba4c02d3c1011119bf7f286242604051610bd291815260200190565b60405180910390a25050565b600854600954600b546000908190610bf890600190613382565b905060005b600954811015610c5a576005600060098381548110610c1e57610c1e613356565b906000526020600020015481526020019081526020016000206002015483610c4691906133c4565b925080610c52816133ab565b915050610bfd565b5090919293565b6040805160a081018252600080825260208201819052918101829052606081018290526080810191909152600082118015610c9d5750600b5482105b610ce15760405162461bcd60e51b8152602060048201526015602482015274125b9d985b1a59081cd95d1d1b195b595b9d081251605a1b6044820152606401610255565b50600090815260076020908152604091829020825160a08101845281546001600160a01b0390811682526001830154169281019290925260028101549282019290925260038201546060820152600490910154608082015290565b610d44612870565b610d4c6128ed565b6040514281527fb1d2425e73d9a7882dc53cebc5168b37f785c0b8548a07cc190ad6ebdb53aba290602001610816565b610dc06040518060c0016040528060006001600160a01b03168152602001606081526020016000815260200160008152602001600015158152602001600081525090565b6001600160a01b0382166000908152600460208190526040909120015460ff16610e1f5760405162461bcd60e51b815260206004820152601060248201526f13595b58995c881b9bdd08199bdd5b9960821b6044820152606401610255565b6001600160a01b03808316600090815260046020908152604091829020825160c081019093528054909316825260018301805492939291840191610e62906132f9565b80601f0160208091040260200160405190810160405280929190818152602001828054610e8e906132f9565b8015610edb5780601f10610eb057610100808354040283529160200191610edb565b820191906000526020600020905b815481529060010190602001808311610ebe57829003601f168201915b50505091835250506002820154602082015260038201546040820152600482015460ff161515606082015260059091015460809091015292915050565b81600081118015610f2a575060035481105b610f6b5760405162461bcd60e51b8152602060048201526012602482015271125b9d985b1a5908195e1c195b9cd948125160721b6044820152606401610255565b336000908152600460208190526040909120015460ff16610fc35760405162461bcd60e51b81526020600482015260126024820152712737ba10309033b937bab81036b2b6b132b960711b6044820152606401610255565b600154600160a01b900460ff1615610fed5760405162461bcd60e51b8152600401610255906133d7565b6000838152600560205260409020600301546001600160a01b031633146110565760405162461bcd60e51b815260206004820152601f60248201527f4f6e6c7920657870656e73652063726561746f722063616e20757064617465006044820152606401610255565b60008381526005602052604090206006015460ff16156110b85760405162461bcd60e51b815260206004820152601d60248201527f43616e6e6f742075706461746520736574746c656420657870656e73650000006044820152606401610255565b600082511180156110cb575060c8825111155b61110d5760405162461bcd60e51b815260206004820152601360248201527224b73b30b634b2103232b9b1b934b83a34b7b760691b6044820152606401610255565b60008381526005602052604090206001016111288382613451565b50827f83047016ddfe1d662751127a42d4ea02177f06a1751b37ffb62b044d37e038df8360405161115991906130a2565b60405180910390a2505050565b61116e612870565b6111786000612930565b565b611182612c17565b81600081118015611194575060035481105b6111d55760405162461bcd60e51b8152602060048201526012602482015271125b9d985b1a5908195e1c195b9cd948125160721b6044820152606401610255565b60056000848152602001908152602001600020604051806101200160405290816000820154815260200160018201805461120e906132f9565b80601f016020809104026020016040519081016040528092919081815260200182805461123a906132f9565b80156112875780601f1061125c57610100808354040283529160200191611287565b820191906000526020600020905b81548152906001019060200180831161126a57829003601f168201915b50505050508152602001600282015481526020016003820160009054906101000a90046001600160a01b03166001600160a01b03166001600160a01b031681526020016004820180548060200260200160405190810160405280929190818152602001828054801561132257602002820191906000526020600020905b81546001600160a01b03168152600190910190602001808311611304575b505050505081526020016005820180548060200260200160405190810160405280929190818152602001828054801561137a57602002820191906000526020600020905b815481526020019060010190808311611366575b5050509183525050600682015460ff16151560208201526007820154604082015260089091015460609091015291505b50919050565b600280546113bd906132f9565b80601f01602080910402602001604051908101604052809291908181526020018280546113e9906132f9565b80156114365780601f1061140b57610100808354040283529160200191611436565b820191906000526020600020905b81548152906001019060200180831161141957829003601f168201915b505050505081565b60095460609060009080851061148957604080516000808252602082019092529061147f565b61146c612c17565b8152602001906001900390816114645790505b5092509050611745565b600061149585876133c4565b9050818111156114a25750805b60006114ae8783613382565b905060008167ffffffffffffffff8111156114cb576114cb612e70565b60405190808252806020026020018201604052801561150457816020015b6114f1612c17565b8152602001906001900390816114e95790505b50905060005b8281101561173c57600560006009611522848d6133c4565b8154811061153257611532613356565b906000526020600020015481526020019081526020016000206040518061012001604052908160008201548152602001600182018054611571906132f9565b80601f016020809104026020016040519081016040528092919081815260200182805461159d906132f9565b80156115ea5780601f106115bf576101008083540402835291602001916115ea565b820191906000526020600020905b8154815290600101906020018083116115cd57829003601f168201915b50505050508152602001600282015481526020016003820160009054906101000a90046001600160a01b03166001600160a01b03166001600160a01b031681526020016004820180548060200260200160405190810160405280929190818152602001828054801561168557602002820191906000526020600020905b81546001600160a01b03168152600190910190602001808311611667575b50505050508152602001600582018054806020026020016040519081016040528092919081815260200182805480156116dd57602002820191906000526020600020905b8154815260200190600101908083116116c9575b5050509183525050600682015460ff161515602082015260078201546040820152600890910154606090910152825183908390811061171e5761171e613356565b60200260200101819052508080611734906133ab565b91505061150a565b50945091925050505b9250929050565b60085460609060009080851061177257604080516000808252602082019092529061147f565b600061177e85876133c4565b90508181111561178b5750805b60006117978783613382565b905060008167ffffffffffffffff8111156117b4576117b4612e70565b6040519080825280602002602001820160405280156117dd578160200160208202803683370190505b50905060005b8281101561173c5760086117f7828b6133c4565b8154811061180757611807613356565b9060005260206000200160009054906101000a90046001600160a01b031682828151811061183757611837613356565b6001600160a01b039092166020928302919091019091015280611859816133ab565b9150506117e3565b6009818154811061187157600080fd5b600091825260209091200154905081565b61188a612982565b806001600160a01b0381166118b15760405162461bcd60e51b81526004016102559061332d565b6001600160a01b0381166000908152600460208190526040909120015460ff166119115760405162461bcd60e51b81526020600482015260116024820152704d656d626572206e6f742061637469766560781b6044820152606401610255565b600154600160a01b900460ff161561193b5760405162461bcd60e51b8152600401610255906133d7565b3360009081526006602090815260408083206001600160a01b0386168452909152902054806119a05760405162461bcd60e51b81526020600482015260116024820152704e6f206465627420746f20736574746c6560781b6044820152606401610255565b803410156119e75760405162461bcd60e51b8152602060048201526014602482015273125b9cdd59999a58da595b9d081c185e5b595b9d60621b6044820152606401610255565b3360008181526006602090815260408083206001600160a01b03881684528252808320839055928252600490529081206002018054839290611a2a908490613382565b90915550506001600160a01b03831660009081526004602052604081206003018054839290611a5a908490613382565b9091555050600b805460009182611a70836133ab565b9190505590506040518060a00160405280336001600160a01b03168152602001856001600160a01b0316815260200183815260200142815260200142338786604051602001611af09493929190938452606092831b6bffffffffffffffffffffffff1990811660208601529190921b166034830152604882015260680190565b60408051808303601f190181529181528151602092830120909252600084815260078252828120845181546001600160a01b03199081166001600160a01b0392831617835593860151600183018054909516908216179093558484015160028201556060850151600382015560809094015160049094019390935590519086169084908381818185875af1925050503d8060008114611bab576040519150601f19603f3d011682016040523d82523d6000602084013e611bb0565b606091505b5050905080611bf25760405162461bcd60e51b815260206004820152600e60248201526d14185e5b595b9d0819985a5b195960921b6044820152606401610255565b82341115611c8b57600033611c078534613382565b604051600081818185875af1925050503d8060008114611c43576040519150601f19603f3d011682016040523d82523d6000602084013e611c48565b606091505b5050905080611c895760405162461bcd60e51b815260206004820152600d60248201526c1499599d5b990819985a5b1959609a1b6044820152606401610255565b505b60408051848152602081018490526001600160a01b0387169133917f31bebd4f9e31f2efcbdd89389da31be464dfc71a4dc6b5eae9c4e3a11b4cc106910160405180910390a350505050611cdf6001600055565b50565b60056020526000908152604090208054600182018054919291611d04906132f9565b80601f0160208091040260200160405190810160405280929190818152602001828054611d30906132f9565b8015611d7d5780601f10611d5257610100808354040283529160200191611d7d565b820191906000526020600020905b815481529060010190602001808311611d6057829003601f168201915b5050506002840154600385015460068601546007870154600890970154959692956001600160a01b03909216945060ff16925087565b60088181548110611dc357600080fd5b6000918252602090912001546001600160a01b0316905081565b611de5612870565b600154600160a01b900460ff1615611e0f5760405162461bcd60e51b8152600401610255906133d7565b600854603211611e615760405162461bcd60e51b815260206004820152601760248201527f4d6178696d756d206d656d6265727320726561636865640000000000000000006044820152606401610255565b611e6b82826129ac565b6040516371bb7d2f60e11b81526001600160a01b0383811660048301523060248301527f0000000000000000000000000000000000000000000000000000000000000000169063e376fa5e90604401600060405180830381600087803b158015611ed457600080fd5b505af1925050508015611ee5575060015b505b5050565b611ef3612870565b600154600160a01b900460ff16611f5c5760405162461bcd60e51b815260206004820152602760248201527f4d7573742062652070617573656420666f7220656d657267656e6379207769746044820152661a191c985dd85b60ca1b6064820152608401610255565b4780611fa15760405162461bcd60e51b81526020600482015260146024820152734e6f2066756e647320746f20776974686472617760601b6044820152606401610255565b6000611fb56001546001600160a01b031690565b6001600160a01b03168260405160006040518083038185875af1925050503d8060008114611fff576040519150601f19603f3d011682016040523d82523d6000602084013e612004565b606091505b5050905080611ee75760405162461bcd60e51b815260206004820152601b60248201527f456d657267656e6379207769746864726177616c206661696c656400000000006044820152606401610255565b3360009081526004602081905260408220015460ff166120ac5760405162461bcd60e51b81526020600482015260126024820152712737ba10309033b937bab81036b2b6b132b960711b6044820152606401610255565b600154600160a01b900460ff16156120d65760405162461bcd60e51b8152600401610255906133d7565b600084116121265760405162461bcd60e51b815260206004820152601760248201527f416d6f756e74206d75737420626520706f7369746976650000000000000000006044820152606401610255565b6000835111801561213957506014835111155b6121855760405162461bcd60e51b815260206004820152601a60248201527f496e76616c6964207061727469636970616e747320636f756e740000000000006044820152606401610255565b60008551118015612198575060c8855111155b6121e45760405162461bcd60e51b815260206004820152601a60248201527f496e76616c6964206465736372697074696f6e206c656e6774680000000000006044820152606401610255565b60005b835181101561233b576004600085838151811061220657612206613356565b6020908102919091018101516001600160a01b031682528101919091526040016000206004015460ff166122725760405162461bcd60e51b8152602060048201526013602482015272125b9d985b1a59081c185c9d1a58da5c185b9d606a1b6044820152606401610255565b600061227f8260016133c4565b90505b84518110156123285784818151811061229d5761229d613356565b60200260200101516001600160a01b03168583815181106122c0576122c0613356565b60200260200101516001600160a01b0316036123165760405162461bcd60e51b8152602060048201526015602482015274111d5c1b1a58d85d19481c185c9d1a58da5c185b9d605a1b6044820152606401610255565b80612320816133ab565b915050612282565b5080612333816133ab565b9150506121e7565b50600083518561234b9190613527565b9050600084518661235c919061353b565b90506000855167ffffffffffffffff81111561237a5761237a612e70565b6040519080825280602002602001820160405280156123a3578160200160208202803683370190505b5090506000805b875181101561243f57848382815181106123c6576123c6613356565b602002602001018181525050838110156124065760018382815181106123ee576123ee613356565b6020026020010181815161240291906133c4565b9052505b82818151811061241857612418613356565b60200260200101518261242b91906133c4565b915080612437816133ab565b9150506123aa565b5087811461244f5761244f61354f565b6003805460009182612460836133ab565b90915550604080516101208101825282815260208082018e81528284018e9052336060840152608083018d905260a08301889052600060c084018190524260e085015261010084018d905285815260059092529290208151815591519293509160018201906124cf9082613451565b506040820151600282015560608201516003820180546001600160a01b0319166001600160a01b039092169190911790556080820151805161251b916004840191602090910190612c71565b5060a08201518051612537916005840191602090910190612cd6565b5060c082015160068201805460ff191691151591909117905560e08201516007820155610100909101516008909101556009805460018101825560009182527f6e1540171b6c0c960b71a7020d9f60077f6af931a8bbf590da0223dacf75c7af018290555b885181101561274257336001600160a01b03168982815181106125c1576125c1613356565b60200260200101516001600160a01b031614612730578381815181106125e9576125e9613356565b6020026020010151600660008b848151811061260757612607613356565b60200260200101516001600160a01b03166001600160a01b031681526020019081526020016000206000336001600160a01b03166001600160a01b03168152602001908152602001600020600082825461266191906133c4565b9250508190555083818151811061267a5761267a613356565b6020026020010151600460008b848151811061269857612698613356565b60200260200101516001600160a01b03166001600160a01b0316815260200190815260200160002060020160008282546126d291906133c4565b925050819055508381815181106126eb576126eb613356565b602002602001015160046000336001600160a01b03166001600160a01b03168152602001908152602001600020600301600082825461272a91906133c4565b90915550505b8061273a816133ab565b91505061259c565b50336001600160a01b0316817fdb0debf4b1618503c6e2e44996a5479eee196e1a5959982dc7e814d15674817a8b8d60405161277f929190613565565b60405180910390a39998505050505050505050565b600a818154811061187157600080fd5b6127ac612870565b6001600160a01b0381166127d657604051631e4fbdf760e01b815260006004820152602401610255565b611cdf81612930565b6001600160a01b03811660009081526004602081905260408220015460ff1661283d5760405162461bcd60e51b815260206004820152601060248201526f13595b58995c881b9bdd08199bdd5b9960821b6044820152606401610255565b6001600160a01b0382166000908152600460205260409020600281015460039091015461286a9190613586565b92915050565b6001546001600160a01b031633146111785760405163118cdaa760e01b8152336004820152602401610255565b6128a5612bc2565b6001805460ff60a01b191690557f5db9ee0a495bf2e6ff9c91a7834c1ba4fdd244a5e8aa4e537bd38aeae4b073aa335b6040516001600160a01b039091168152602001610816565b6128f5612bec565b6001805460ff60a01b1916600160a01b1790557f62e78cea01bee320cd4e420270b5ea74000d11b0c9f74754ebdbfc544b05a2586128d53390565b600180546001600160a01b038381166001600160a01b0319831681179093556040519116919082907f8be0079c531659141344cd1fd0a4f28419497f9722a3daafe3b4186f6b6457e090600090a35050565b6002600054036129a557604051633ee5aeb560e01b815260040160405180910390fd5b6002600055565b6001600160a01b0382166129d25760405162461bcd60e51b81526004016102559061332d565b6001600160a01b0382166000908152600460208190526040909120015460ff1615612a375760405162461bcd60e51b81526020600482015260156024820152744d656d62657220616c72656164792065786973747360581b6044820152606401610255565b60008151118015612a4a57506020815111155b612a965760405162461bcd60e51b815260206004820152601760248201527f496e76616c6964206e69636b6e616d65206c656e6774680000000000000000006044820152606401610255565b6040805160c0810182526001600160a01b0384811680835260208084018681526000858701819052606086018190526001608087018190524260a08801529381526004909252949020835181546001600160a01b031916931692909217825592519192909190820190612b099082613451565b50604082810151600283015560608301516003830155608083015160048301805460ff191691151591909117905560a090920151600590910155600880546001810182556000919091527ff3f7a9fe364faab93b216da50a3214154f22a0a2b415b23a84c8169e8b636ee30180546001600160a01b0319166001600160a01b03851690811790915590517fac4f9610b174640b0a902ce555faa384cc9c9d291750f76e476f26f97bd079b490610bd290849042906135ad565b600154600160a01b900460ff1661117857604051638dfc202b60e01b815260040160405180910390fd5b600154600160a01b900460ff16156111785760405163d93c066560e01b815260040160405180910390fd5b60405180610120016040528060008152602001606081526020016000815260200160006001600160a01b03168152602001606081526020016060815260200160001515815260200160008152602001600080191681525090565b828054828255906000526020600020908101928215612cc6579160200282015b82811115612cc657825182546001600160a01b0319166001600160a01b03909116178255602090920191600190910190612c91565b50612cd2929150612d11565b5090565b828054828255906000526020600020908101928215612cc6579160200282015b82811115612cc6578251825591602001919060010190612cf6565b5b80821115612cd25760008155600101612d12565b80356001600160a01b0381168114612d3d57600080fd5b919050565b600060208284031215612d5457600080fd5b612d5d82612d26565b9392505050565b6000815180845260005b81811015612d8a57602081850181015186830182015201612d6e565b506000602082860101526020601f19601f83011685010191505092915050565b6001600160a01b038716815260c060208201819052600090612dce90830188612d64565b6040830196909652506060810193909352901515608083015260a09091015292915050565b600060208284031215612e0557600080fd5b5035919050565b602080825282516001600160a01b03168282015282015160c06040830152600090612e3a60e0840182612d64565b905060408401516060840152606084015160808401526080840151151560a084015260a084015160c08401528091505092915050565b634e487b7160e01b600052604160045260246000fd5b604051601f8201601f1916810167ffffffffffffffff81118282101715612eaf57612eaf612e70565b604052919050565b600082601f830112612ec857600080fd5b813567ffffffffffffffff811115612ee257612ee2612e70565b612ef5601f8201601f1916602001612e86565b818152846020838601011115612f0a57600080fd5b816020850160208301376000918101602001919091529392505050565b60008060408385031215612f3a57600080fd5b82359150602083013567ffffffffffffffff811115612f5857600080fd5b612f6485828601612eb7565b9150509250929050565b600081518084526020808501945080840160005b83811015612fa75781516001600160a01b031687529582019590820190600101612f82565b509495945050505050565b600081518084526020808501945080840160005b83811015612fa757815187529582019590820190600101612fc6565b600061012082518452602083015181602086015261300282860182612d64565b91505060408301516040850152606083015161302960608601826001600160a01b03169052565b50608083015184820360808601526130418282612f6e565b91505060a083015184820360a086015261305b8282612fb2565b91505060c083015161307160c086018215159052565b5060e083810151908501526101009283015192909301919091525090565b602081526000612d5d6020830184612fe2565b602081526000612d5d6020830184612d64565b600080604083850312156130c857600080fd5b50508035926020909101359150565b6000604082016040835280855180835260608501915060608160051b8601019250602080880160005b8381101561312e57605f1988870301855261311c868351612fe2565b95509382019390820190600101613100565b50509490940194909452949350505050565b6040815260006131536040830185612f6e565b90508260208301529392505050565b87815260e06020820152600061317b60e0830189612d64565b6040830197909752506001600160a01b03949094166060850152911515608084015260a083015260c09091015292915050565b600080604083850312156131c157600080fd5b6131ca83612d26565b9150602083013567ffffffffffffffff811115612f5857600080fd5b600080604083850312156131f957600080fd5b61320283612d26565b915061321060208401612d26565b90509250929050565b6000806000806080858703121561322f57600080fd5b843567ffffffffffffffff8082111561324757600080fd5b61325388838901612eb7565b95506020915081870135945060408701358181111561327157600080fd5b8701601f8101891361328257600080fd5b80358281111561329457613294612e70565b8060051b92506132a5848401612e86565b818152928201840192848101908b8511156132bf57600080fd5b928501925b848410156132e4576132d584612d26565b825292850192908501906132c4565b989b979a509798606001359750505050505050565b600181811c9082168061330d57607f821691505b6020821081036113aa57634e487b7160e01b600052602260045260246000fd5b6020808252600f908201526e496e76616c6964206164647265737360881b604082015260600190565b634e487b7160e01b600052603260045260246000fd5b634e487b7160e01b600052601160045260246000fd5b8181038181111561286a5761286a61336c565b634e487b7160e01b600052603160045260246000fd5b6000600182016133bd576133bd61336c565b5060010190565b8082018082111561286a5761286a61336c565b60208082526012908201527110dbdb9d1c9858dd081a5cc81c185d5cd95960721b604082015260600190565b601f821115611ee557600081815260208120601f850160051c8101602086101561342a5750805b601f850160051c820191505b8181101561344957828155600101613436565b505050505050565b815167ffffffffffffffff81111561346b5761346b612e70565b61347f8161347984546132f9565b84613403565b602080601f8311600181146134b4576000841561349c5750858301515b600019600386901b1c1916600185901b178555613449565b600085815260208120601f198616915b828110156134e3578886015182559484019460019091019084016134c4565b50858210156135015787850151600019600388901b60f8161c191681555b5050505050600190811b01905550565b634e487b7160e01b600052601260045260246000fd5b60008261353657613536613511565b500490565b60008261354a5761354a613511565b500690565b634e487b7160e01b600052600160045260246000fd5b82815260406020820152600061357e6040830184612d64565b949350505050565b81810360008312801583831316838312821617156135a6576135a661336c565b5092915050565b6040815260006131536040830185612d6456fea2646970667358221220a44e91cf8fc640365e7341cff6d92100f1d1031c67c6e6c085f60f4b278ee67f64736f6c63430008140033a2646970667358221220c12932a286a35a50978855e36b9264c6fa6d9814c8a089ffb901500bd825ecd764736f6c63430008140033","opcodes":"PUSH1 0x80 PUSH1 0x40 MSTORE PUSH1 0xA PUSH1 0x6 SSTORE PUSH1 0x0 PUSH1 0x7 SSTORE CALLVALUE DUP1 ISZERO PUSH3 0x1B JUMPI PUSH1 0x0 DUP1 REVERT JUMPDEST POP CALLER DUP1 PUSH3 0x43 JUMPI PUSH1 0x40 MLOAD PUSH4 0x1E4FBDF7 PUSH1 0xE0 SHL DUP2 MSTORE PUSH1 0x0 PUSH1 0x4 DUP3 ADD MSTORE PUSH1 0x24 ADD PUSH1 0x40 MLOAD DUP1 SWAP2 SUB SWAP1 REVERT JUMPDEST PUSH3 0x4E DUP2 PUSH3 0x74 JUMP JUMPDEST POP PUSH1 0x1 DUP1 DUP1 SSTORE CALLER PUSH1 0x0 SWAP1 DUP2 MSTORE PUSH1 0x4 PUSH1 0x20 MSTORE PUSH1 0x40 SWAP1 KECCAK256 DUP1 SLOAD PUSH1 0xFF NOT AND SWAP1 SWAP2 OR SWAP1 SSTORE PUSH3 0xC4 JUMP JUMPDEST PUSH1 0x0 DUP1 SLOAD PUSH1 0x1 PUSH1 0x1 PUSH1 0xA0 SHL SUB DUP4 DUP2 AND PUSH1 0x1 PUSH1 0x1 PUSH1 0xA0 SHL SUB NOT DUP4 AND DUP2 OR DUP5 SSTORE PUSH1 0x40 MLOAD SWAP2 SWAP1 SWAP3 AND SWAP3 DUP4 SWAP2 PUSH32 0x8BE0079C531659141344CD1FD0A4F28419497F9722A3DAAFE3B4186F6B6457E0 SWAP2 SWAP1 LOG3 POP POP JUMP JUMPDEST PUSH2 0x687F DUP1 PUSH3 0xD4 PUSH1 0x0 CODECOPY PUSH1 0x0 RETURN INVALID PUSH1 0x80 PUSH1 0x40 MSTORE PUSH1 0x4 CALLDATASIZE LT PUSH3 0x1EB JUMPI PUSH1 0x0 CALLDATALOAD PUSH1 0xE0 SHR DUP1 PUSH4 0x8456CB59 GT PUSH3 0x10B JUMPI DUP1 PUSH4 0xB7D86225 GT PUSH3 0xA1 JUMPI DUP1 PUSH4 0xD8625B07 GT PUSH3 0x6C JUMPI DUP1 PUSH4 0xD8625B07 EQ PUSH3 0x624 JUMPI DUP1 PUSH4 0xDCE0B4E4 EQ PUSH3 0x649 JUMPI DUP1 PUSH4 0xE376FA5E EQ PUSH3 0x661 JUMPI DUP1 PUSH4 0xF2FDE38B EQ PUSH3 0x686 JUMPI PUSH1 0x0 DUP1 REVERT JUMPDEST DUP1 PUSH4 0xB7D86225 EQ PUSH3 0x54B JUMPI DUP1 PUSH4 0xC695502A EQ PUSH3 0x570 JUMPI DUP1 PUSH4 0xC9226445 EQ PUSH3 0x5A4 JUMPI DUP1 PUSH4 0xD83FF6D0 EQ PUSH3 0x5F0 JUMPI PUSH1 0x0 DUP1 REVERT JUMPDEST DUP1 PUSH4 0x942CB6C0 GT PUSH3 0xE2 JUMPI DUP1 PUSH4 0x942CB6C0 EQ PUSH3 0x4D2 JUMPI DUP1 PUSH4 0x96338632 EQ PUSH3 0x4F7 JUMPI DUP1 PUSH4 0x9F9334E4 EQ PUSH3 0x51C JUMPI DUP1 PUSH4 0xA5CC1DDD EQ PUSH3 0x533 JUMPI PUSH1 0x0 DUP1 REVERT JUMPDEST DUP1 PUSH4 0x8456CB59 EQ PUSH3 0x475 JUMPI DUP1 PUSH4 0x8DA5CB5B EQ PUSH3 0x48D JUMPI DUP1 PUSH4 0x93739A93 EQ PUSH3 0x4AD JUMPI PUSH1 0x0 DUP1 REVERT JUMPDEST DUP1 PUSH4 0x4AEC7B6A GT PUSH3 0x181 JUMPI DUP1 PUSH4 0x6ADE18CA GT PUSH3 0x158 JUMPI DUP1 PUSH4 0x6ADE18CA EQ PUSH3 0x3C8 JUMPI DUP1 PUSH4 0x715018A6 EQ PUSH3 0x403 JUMPI DUP1 PUSH4 0x79B53EBE EQ PUSH3 0x41B JUMPI DUP1 PUSH4 0x7D4607D4 EQ PUSH3 0x440 JUMPI PUSH1 0x0 DUP1 REVERT JUMPDEST DUP1 PUSH4 0x4AEC7B6A EQ PUSH3 0x351 JUMPI DUP1 PUSH4 0x4D928EFA EQ PUSH3 0x376 JUMPI DUP1 PUSH4 0x5C975ABB EQ PUSH3 0x39B JUMPI PUSH1 0x0 DUP1 REVERT JUMPDEST DUP1 PUSH4 0x3F4BA83A GT PUSH3 0x1C2 JUMPI DUP1 PUSH4 0x3F4BA83A EQ PUSH3 0x2D3 JUMPI DUP1 PUSH4 0x4250C55A EQ PUSH3 0x2ED JUMPI DUP1 PUSH4 0x476343EE EQ PUSH3 0x314 JUMPI DUP1 PUSH4 0x49D71D43 EQ PUSH3 0x32C JUMPI PUSH1 0x0 DUP1 REVERT JUMPDEST DUP1 PUSH4 0x16690222 EQ PUSH3 0x232 JUMPI DUP1 PUSH4 0x1E4A97DD EQ PUSH3 0x26F JUMPI DUP1 PUSH4 0x3DA04E4A EQ PUSH3 0x29F JUMPI PUSH1 0x0 DUP1 REVERT JUMPDEST CALLDATASIZE PUSH3 0x22D JUMPI PUSH1 0x40 DUP1 MLOAD CALLVALUE DUP2 MSTORE TIMESTAMP PUSH1 0x20 DUP3 ADD MSTORE CALLER SWAP2 PUSH32 0x7DD768B8B37911C0BB413D9CF56FCB57B286F5DEF4C57D475C8ABDD6737B7E1E SWAP2 ADD PUSH1 0x40 MLOAD DUP1 SWAP2 SUB SWAP1 LOG2 STOP JUMPDEST PUSH1 0x0 DUP1 REVERT JUMPDEST CALLVALUE DUP1 ISZERO PUSH3 0x23F JUMPI PUSH1 0x0 DUP1 REVERT JUMPDEST POP PUSH3 0x257 PUSH3 0x251 CALLDATASIZE PUSH1 0x4 PUSH3 0x24BC JUMP JUMPDEST PUSH3 0x6AB JUMP JUMPDEST PUSH1 0x40 MLOAD PUSH3 0x266 SWAP2 SWAP1 PUSH3 0x25A2 JUMP JUMPDEST PUSH1 0x40 MLOAD DUP1 SWAP2 SUB SWAP1 RETURN JUMPDEST PUSH3 0x286 PUSH3 0x280 CALLDATASIZE PUSH1 0x4 PUSH3 0x26B3 JUMP JUMPDEST PUSH3 0x8C9 JUMP JUMPDEST PUSH1 0x40 MLOAD PUSH1 0x1 PUSH1 0x1 PUSH1 0xA0 SHL SUB SWAP1 SWAP2 AND DUP2 MSTORE PUSH1 0x20 ADD PUSH3 0x266 JUMP JUMPDEST CALLVALUE DUP1 ISZERO PUSH3 0x2AC JUMPI PUSH1 0x0 DUP1 REVERT JUMPDEST POP PUSH3 0x2C4 PUSH3 0x2BE CALLDATASIZE PUSH1 0x4 PUSH3 0x24BC JUMP JUMPDEST PUSH3 0xD87 JUMP JUMPDEST PUSH1 0x40 MLOAD PUSH3 0x266 SWAP2 SWAP1 PUSH3 0x2764 JUMP JUMPDEST CALLVALUE DUP1 ISZERO PUSH3 0x2E0 JUMPI PUSH1 0x0 DUP1 REVERT JUMPDEST POP PUSH3 0x2EB PUSH3 0xD94 JUMP JUMPDEST STOP JUMPDEST CALLVALUE DUP1 ISZERO PUSH3 0x2FA JUMPI PUSH1 0x0 DUP1 REVERT JUMPDEST POP PUSH3 0x305 PUSH3 0xDAA JUMP JUMPDEST PUSH1 0x40 MLOAD SWAP1 DUP2 MSTORE PUSH1 0x20 ADD PUSH3 0x266 JUMP JUMPDEST CALLVALUE DUP1 ISZERO PUSH3 0x321 JUMPI PUSH1 0x0 DUP1 REVERT JUMPDEST POP PUSH3 0x2EB PUSH3 0xE30 JUMP JUMPDEST CALLVALUE DUP1 ISZERO PUSH3 0x339 JUMPI PUSH1 0x0 DUP1 REVERT JUMPDEST POP PUSH3 0x2C4 PUSH3 0x34B CALLDATASIZE PUSH1 0x4 PUSH3 0x2779 JUMP JUMPDEST PUSH3 0xF31 JUMP JUMPDEST CALLVALUE DUP1 ISZERO PUSH3 0x35E JUMPI PUSH1 0x0 DUP1 REVERT JUMPDEST POP PUSH3 0x2EB PUSH3 0x370 CALLDATASIZE PUSH1 0x4 PUSH3 0x24BC JUMP JUMPDEST PUSH3 0x119D JUMP JUMPDEST CALLVALUE DUP1 ISZERO PUSH3 0x383 JUMPI PUSH1 0x0 DUP1 REVERT JUMPDEST POP PUSH3 0x2EB PUSH3 0x395 CALLDATASIZE PUSH1 0x4 PUSH3 0x27BA JUMP JUMPDEST PUSH3 0x125E JUMP JUMPDEST CALLVALUE DUP1 ISZERO PUSH3 0x3A8 JUMPI PUSH1 0x0 DUP1 REVERT JUMPDEST POP PUSH1 0x0 SLOAD PUSH1 0x1 PUSH1 0xA0 SHL SWAP1 DIV PUSH1 0xFF AND JUMPDEST PUSH1 0x40 MLOAD SWAP1 ISZERO ISZERO DUP2 MSTORE PUSH1 0x20 ADD PUSH3 0x266 JUMP JUMPDEST CALLVALUE DUP1 ISZERO PUSH3 0x3D5 JUMPI PUSH1 0x0 DUP1 REVERT JUMPDEST POP PUSH3 0x3ED PUSH3 0x3E7 CALLDATASIZE PUSH1 0x4 PUSH3 0x24BC JUMP JUMPDEST PUSH3 0x1304 JUMP JUMPDEST PUSH1 0x40 MLOAD PUSH3 0x266 SWAP9 SWAP8 SWAP7 SWAP6 SWAP5 SWAP4 SWAP3 SWAP2 SWAP1 PUSH3 0x27D4 JUMP JUMPDEST CALLVALUE DUP1 ISZERO PUSH3 0x410 JUMPI PUSH1 0x0 DUP1 REVERT JUMPDEST POP PUSH3 0x2EB PUSH3 0x13F0 JUMP JUMPDEST CALLVALUE DUP1 ISZERO PUSH3 0x428 JUMPI PUSH1 0x0 DUP1 REVERT JUMPDEST POP PUSH3 0x3B7 PUSH3 0x43A CALLDATASIZE PUSH1 0x4 PUSH3 0x24BC JUMP JUMPDEST PUSH3 0x1406 JUMP JUMPDEST CALLVALUE DUP1 ISZERO PUSH3 0x44D JUMPI PUSH1 0x0 DUP1 REVERT JUMPDEST POP PUSH3 0x465 PUSH3 0x45F CALLDATASIZE PUSH1 0x4 PUSH3 0x282E JUMP JUMPDEST PUSH3 0x143E JUMP JUMPDEST PUSH1 0x40 MLOAD PUSH3 0x266 SWAP3 SWAP2 SWAP1 PUSH3 0x2851 JUMP JUMPDEST CALLVALUE DUP1 ISZERO PUSH3 0x482 JUMPI PUSH1 0x0 DUP1 REVERT JUMPDEST POP PUSH3 0x2EB PUSH3 0x1672 JUMP JUMPDEST CALLVALUE DUP1 ISZERO PUSH3 0x49A JUMPI PUSH1 0x0 DUP1 REVERT JUMPDEST POP PUSH1 0x0 SLOAD PUSH1 0x1 PUSH1 0x1 PUSH1 0xA0 SHL SUB AND PUSH3 0x286 JUMP JUMPDEST CALLVALUE DUP1 ISZERO PUSH3 0x4BA JUMPI PUSH1 0x0 DUP1 REVERT JUMPDEST POP PUSH3 0x2EB PUSH3 0x4CC CALLDATASIZE PUSH1 0x4 PUSH3 0x24BC JUMP JUMPDEST PUSH3 0x1686 JUMP JUMPDEST CALLVALUE DUP1 ISZERO PUSH3 0x4DF JUMPI PUSH1 0x0 DUP1 REVERT JUMPDEST POP PUSH3 0x2EB PUSH3 0x4F1 CALLDATASIZE PUSH1 0x4 PUSH3 0x24BC JUMP JUMPDEST PUSH3 0x17F3 JUMP JUMPDEST CALLVALUE DUP1 ISZERO PUSH3 0x504 JUMPI PUSH1 0x0 DUP1 REVERT JUMPDEST POP PUSH3 0x2EB PUSH3 0x516 CALLDATASIZE PUSH1 0x4 PUSH3 0x24BC JUMP JUMPDEST PUSH3 0x18E6 JUMP JUMPDEST CALLVALUE DUP1 ISZERO PUSH3 0x529 JUMPI PUSH1 0x0 DUP1 REVERT JUMPDEST POP PUSH1 0x5 SLOAD PUSH3 0x305 JUMP JUMPDEST CALLVALUE DUP1 ISZERO PUSH3 0x540 JUMPI PUSH1 0x0 DUP1 REVERT JUMPDEST POP PUSH3 0x305 PUSH1 0x6 SLOAD DUP2 JUMP JUMPDEST CALLVALUE DUP1 ISZERO PUSH3 0x558 JUMPI PUSH1 0x0 DUP1 REVERT JUMPDEST POP PUSH3 0x2EB PUSH3 0x56A CALLDATASIZE PUSH1 0x4 PUSH3 0x27BA JUMP JUMPDEST PUSH3 0x19B1 JUMP JUMPDEST CALLVALUE DUP1 ISZERO PUSH3 0x57D JUMPI PUSH1 0x0 DUP1 REVERT JUMPDEST POP PUSH3 0x3B7 PUSH3 0x58F CALLDATASIZE PUSH1 0x4 PUSH3 0x24BC JUMP JUMPDEST PUSH1 0x4 PUSH1 0x20 MSTORE PUSH1 0x0 SWAP1 DUP2 MSTORE PUSH1 0x40 SWAP1 KECCAK256 SLOAD PUSH1 0xFF AND DUP2 JUMP JUMPDEST CALLVALUE DUP1 ISZERO PUSH3 0x5B1 JUMPI PUSH1 0x0 DUP1 REVERT JUMPDEST POP PUSH3 0x5BC PUSH3 0x19F1 JUMP JUMPDEST PUSH1 0x40 MLOAD PUSH3 0x266 SWAP2 SWAP1 DUP2 MLOAD DUP2 MSTORE PUSH1 0x20 DUP1 DUP4 ADD MLOAD SWAP1 DUP3 ADD MSTORE PUSH1 0x40 DUP1 DUP4 ADD MLOAD SWAP1 DUP3 ADD MSTORE PUSH1 0x60 SWAP2 DUP3 ADD MLOAD SWAP2 DUP2 ADD SWAP2 SWAP1 SWAP2 MSTORE PUSH1 0x80 ADD SWAP1 JUMP JUMPDEST CALLVALUE DUP1 ISZERO PUSH3 0x5FD JUMPI PUSH1 0x0 DUP1 REVERT JUMPDEST POP PUSH3 0x615 PUSH3 0x60F CALLDATASIZE PUSH1 0x4 PUSH3 0x24BC JUMP JUMPDEST PUSH3 0x1AF6 JUMP JUMPDEST PUSH1 0x40 MLOAD PUSH3 0x266 SWAP2 SWAP1 PUSH3 0x2875 JUMP JUMPDEST CALLVALUE DUP1 ISZERO PUSH3 0x631 JUMPI PUSH1 0x0 DUP1 REVERT JUMPDEST POP PUSH3 0x2EB PUSH3 0x643 CALLDATASIZE PUSH1 0x4 PUSH3 0x24BC JUMP JUMPDEST PUSH3 0x1C88 JUMP JUMPDEST CALLVALUE DUP1 ISZERO PUSH3 0x656 JUMPI PUSH1 0x0 DUP1 REVERT JUMPDEST POP PUSH3 0x305 PUSH1 0x7 SLOAD DUP2 JUMP JUMPDEST CALLVALUE DUP1 ISZERO PUSH3 0x66E JUMPI PUSH1 0x0 DUP1 REVERT JUMPDEST POP PUSH3 0x2EB PUSH3 0x680 CALLDATASIZE PUSH1 0x4 PUSH3 0x288A JUMP JUMPDEST PUSH3 0x1D35 JUMP JUMPDEST CALLVALUE DUP1 ISZERO PUSH3 0x693 JUMPI PUSH1 0x0 DUP1 REVERT JUMPDEST POP PUSH3 0x2EB PUSH3 0x6A5 CALLDATASIZE PUSH1 0x4 PUSH3 0x24BC JUMP JUMPDEST PUSH3 0x1F60 JUMP JUMPDEST PUSH1 0x60 PUSH1 0x0 PUSH3 0x6BA DUP4 PUSH3 0x1FA4 JUMP JUMPDEST SWAP1 POP PUSH1 0x0 DUP2 MLOAD PUSH8 0xFFFFFFFFFFFFFFFF DUP2 GT ISZERO PUSH3 0x6DB JUMPI PUSH3 0x6DB PUSH3 0x2608 JUMP JUMPDEST PUSH1 0x40 MLOAD SWAP1 DUP1 DUP3 MSTORE DUP1 PUSH1 0x20 MUL PUSH1 0x20 ADD DUP3 ADD PUSH1 0x40 MSTORE DUP1 ISZERO PUSH3 0x718 JUMPI DUP2 PUSH1 0x20 ADD JUMPDEST PUSH3 0x704 PUSH3 0x2438 JUMP JUMPDEST DUP2 MSTORE PUSH1 0x20 ADD SWAP1 PUSH1 0x1 SWAP1 SUB SWAP1 DUP2 PUSH3 0x6FA JUMPI SWAP1 POP JUMPDEST POP SWAP1 POP PUSH1 0x0 JUMPDEST DUP3 MLOAD DUP2 LT ISZERO PUSH3 0x8C1 JUMPI PUSH1 0x3 PUSH1 0x0 DUP5 DUP4 DUP2 MLOAD DUP2 LT PUSH3 0x741 JUMPI PUSH3 0x741 PUSH3 0x28C2 JUMP JUMPDEST PUSH1 0x20 MUL PUSH1 0x20 ADD ADD MLOAD PUSH1 0x1 PUSH1 0x1 PUSH1 0xA0 SHL SUB AND PUSH1 0x1 PUSH1 0x1 PUSH1 0xA0 SHL SUB AND DUP2 MSTORE PUSH1 0x20 ADD SWAP1 DUP2 MSTORE PUSH1 0x20 ADD PUSH1 0x0 KECCAK256 PUSH1 0x40 MLOAD DUP1 PUSH2 0x100 ADD PUSH1 0x40 MSTORE SWAP1 DUP2 PUSH1 0x0 DUP3 ADD PUSH1 0x0 SWAP1 SLOAD SWAP1 PUSH2 0x100 EXP SWAP1 DIV PUSH1 0x1 PUSH1 0x1 PUSH1 0xA0 SHL SUB AND PUSH1 0x1 PUSH1 0x1 PUSH1 0xA0 SHL SUB AND PUSH1 0x1 PUSH1 0x1 PUSH1 0xA0 SHL SUB AND DUP2 MSTORE PUSH1 0x20 ADD PUSH1 0x1 DUP3 ADD DUP1 SLOAD PUSH3 0x7B6 SWAP1 PUSH3 0x28D8 JUMP JUMPDEST DUP1 PUSH1 0x1F ADD PUSH1 0x20 DUP1 SWAP2 DIV MUL PUSH1 0x20 ADD PUSH1 0x40 MLOAD SWAP1 DUP2 ADD PUSH1 0x40 MSTORE DUP1 SWAP3 SWAP2 SWAP1 DUP2 DUP2 MSTORE PUSH1 0x20 ADD DUP3 DUP1 SLOAD PUSH3 0x7E4 SWAP1 PUSH3 0x28D8 JUMP JUMPDEST DUP1 ISZERO PUSH3 0x835 JUMPI DUP1 PUSH1 0x1F LT PUSH3 0x809 JUMPI PUSH2 0x100 DUP1 DUP4 SLOAD DIV MUL DUP4 MSTORE SWAP2 PUSH1 0x20 ADD SWAP2 PUSH3 0x835 JUMP JUMPDEST DUP3 ADD SWAP2 SWAP1 PUSH1 0x0 MSTORE PUSH1 0x20 PUSH1 0x0 KECCAK256 SWAP1 JUMPDEST DUP2 SLOAD DUP2 MSTORE SWAP1 PUSH1 0x1 ADD SWAP1 PUSH1 0x20 ADD DUP1 DUP4 GT PUSH3 0x817 JUMPI DUP3 SWAP1 SUB PUSH1 0x1F AND DUP3 ADD SWAP2 JUMPDEST POP POP POP SWAP2 DUP4 MSTORE POP POP PUSH1 0x2 DUP3 ADD SLOAD PUSH1 0x1 PUSH1 0x1 PUSH1 0xA0 SHL SUB AND PUSH1 0x20 DUP3 ADD MSTORE PUSH1 0x3 DUP3 ADD SLOAD PUSH1 0x40 DUP3 ADD MSTORE PUSH1 0x4 DUP3 ADD SLOAD PUSH1 0xFF AND ISZERO ISZERO PUSH1 0x60 DUP3 ADD MSTORE PUSH1 0x5 DUP3 ADD SLOAD PUSH1 0x80 DUP3 ADD MSTORE PUSH1 0x6 DUP3 ADD SLOAD PUSH1 0xA0 DUP3 ADD MSTORE PUSH1 0x7 SWAP1 SWAP2 ADD SLOAD PUSH1 0xC0 SWAP1 SWAP2 ADD MSTORE DUP3 MLOAD DUP4 SWAP1 DUP4 SWAP1 DUP2 LT PUSH3 0x8A0 JUMPI PUSH3 0x8A0 PUSH3 0x28C2 JUMP JUMPDEST PUSH1 0x20 MUL PUSH1 0x20 ADD ADD DUP2 SWAP1 MSTORE POP DUP1 DUP1 PUSH3 0x8B8 SWAP1 PUSH3 0x2924 JUMP JUMPDEST SWAP2 POP POP PUSH3 0x71E JUMP JUMPDEST POP SWAP4 SWAP3 POP POP POP JUMP JUMPDEST CALLER PUSH1 0x0 SWAP1 DUP2 MSTORE PUSH1 0x4 PUSH1 0x20 MSTORE PUSH1 0x40 DUP2 KECCAK256 SLOAD PUSH1 0xFF AND DUP1 PUSH3 0x902 JUMPI POP CALLER PUSH3 0x8F7 PUSH1 0x0 SLOAD PUSH1 0x1 PUSH1 0x1 PUSH1 0xA0 SHL SUB AND SWAP1 JUMP JUMPDEST PUSH1 0x1 PUSH1 0x1 PUSH1 0xA0 SHL SUB AND EQ JUMPDEST PUSH3 0x954 JUMPI PUSH1 0x40 MLOAD PUSH3 0x461BCD PUSH1 0xE5 SHL DUP2 MSTORE PUSH1 0x20 PUSH1 0x4 DUP3 ADD MSTORE PUSH1 0x1F PUSH1 0x24 DUP3 ADD MSTORE PUSH32 0x4E6F7420617574686F72697A656420746F206372656174652067726F75707300 PUSH1 0x44 DUP3 ADD MSTORE PUSH1 0x64 ADD JUMPDEST PUSH1 0x40 MLOAD DUP1 SWAP2 SUB SWAP1 REVERT JUMPDEST PUSH3 0x95E PUSH3 0x21AF JUMP JUMPDEST PUSH3 0x968 PUSH3 0x21DB JUMP JUMPDEST PUSH1 0x0 DUP4 MLOAD GT DUP1 ISZERO PUSH3 0x97C JUMPI POP PUSH1 0x32 DUP4 MLOAD GT ISZERO JUMPDEST PUSH3 0x9CA JUMPI PUSH1 0x40 MLOAD PUSH3 0x461BCD PUSH1 0xE5 SHL DUP2 MSTORE PUSH1 0x20 PUSH1 0x4 DUP3 ADD MSTORE PUSH1 0x19 PUSH1 0x24 DUP3 ADD MSTORE PUSH32 0x496E76616C69642067726F7570206E616D65206C656E67746800000000000000 PUSH1 0x44 DUP3 ADD MSTORE PUSH1 0x64 ADD PUSH3 0x94B JUMP JUMPDEST PUSH1 0x0 DUP3 MLOAD GT DUP1 ISZERO PUSH3 0x9DE JUMPI POP PUSH1 0x20 DUP3 MLOAD GT ISZERO JUMPDEST PUSH3 0xA2C JUMPI PUSH1 0x40 MLOAD PUSH3 0x461BCD PUSH1 0xE5 SHL DUP2 MSTORE PUSH1 0x20 PUSH1 0x4 DUP3 ADD MSTORE PUSH1 0x17 PUSH1 0x24 DUP3 ADD MSTORE PUSH32 0x496E76616C6964206E69636B6E616D65206C656E677468000000000000000000 PUSH1 0x44 DUP3 ADD MSTORE PUSH1 0x64 ADD PUSH3 0x94B JUMP JUMPDEST PUSH1 0x7 SLOAD CALLVALUE LT ISZERO PUSH3 0xA80 JUMPI PUSH1 0x40 MLOAD PUSH3 0x461BCD PUSH1 0xE5 SHL DUP2 MSTORE PUSH1 0x20 PUSH1 0x4 DUP3 ADD MSTORE PUSH1 0x19 PUSH1 0x24 DUP3 ADD MSTORE PUSH32 0x496E73756666696369656E74206372656174696F6E2066656500000000000000 PUSH1 0x44 DUP3 ADD MSTORE PUSH1 0x64 ADD PUSH3 0x94B JUMP JUMPDEST PUSH1 0x6 SLOAD CALLER PUSH1 0x0 SWAP1 DUP2 MSTORE PUSH1 0x2 PUSH1 0x20 MSTORE PUSH1 0x40 SWAP1 KECCAK256 SLOAD LT PUSH3 0xAE2 JUMPI PUSH1 0x40 MLOAD PUSH3 0x461BCD PUSH1 0xE5 SHL DUP2 MSTORE PUSH1 0x20 PUSH1 0x4 DUP3 ADD MSTORE PUSH1 0x1F PUSH1 0x24 DUP3 ADD MSTORE PUSH32 0x4D6178696D756D2067726F757073207065722075736572207265616368656400 PUSH1 0x44 DUP3 ADD MSTORE PUSH1 0x64 ADD PUSH3 0x94B JUMP JUMPDEST PUSH1 0x0 DUP4 CALLER DUP5 PUSH1 0x40 MLOAD PUSH3 0xAF5 SWAP1 PUSH3 0x2491 JUMP JUMPDEST PUSH3 0xB03 SWAP4 SWAP3 SWAP2 SWAP1 PUSH3 0x2940 JUMP JUMPDEST PUSH1 0x40 MLOAD DUP1 SWAP2 SUB SWAP1 PUSH1 0x0 CREATE DUP1 ISZERO DUP1 ISZERO PUSH3 0xB20 JUMPI RETURNDATASIZE PUSH1 0x0 DUP1 RETURNDATACOPY RETURNDATASIZE PUSH1 0x0 REVERT JUMPDEST POP PUSH1 0x40 DUP1 MLOAD PUSH2 0x100 DUP2 ADD DUP3 MSTORE PUSH1 0x1 PUSH1 0x1 PUSH1 0xA0 SHL SUB DUP4 DUP2 AND DUP1 DUP4 MSTORE PUSH1 0x20 DUP1 DUP5 ADD DUP11 DUP2 MSTORE CALLER DUP6 DUP8 ADD MSTORE TIMESTAMP PUSH1 0x60 DUP7 ADD DUP2 SWAP1 MSTORE PUSH1 0x1 PUSH1 0x80 DUP8 ADD DUP2 SWAP1 MSTORE PUSH1 0xA0 DUP8 ADD DUP2 SWAP1 MSTORE PUSH1 0x0 PUSH1 0xC0 DUP9 ADD DUP2 SWAP1 MSTORE PUSH1 0xE0 DUP9 ADD SWAP3 SWAP1 SWAP3 MSTORE SWAP4 DUP2 MSTORE PUSH1 0x3 SWAP1 SWAP3 MSTORE SWAP5 SWAP1 KECCAK256 DUP4 MLOAD DUP2 SLOAD PUSH1 0x1 PUSH1 0x1 PUSH1 0xA0 SHL SUB NOT AND SWAP4 AND SWAP3 SWAP1 SWAP3 OR DUP3 SSTORE SWAP3 MLOAD SWAP4 SWAP5 POP DUP5 SWAP4 SWAP2 SWAP3 DUP4 SWAP3 SWAP1 DUP3 ADD SWAP1 PUSH3 0xBAC SWAP1 DUP3 PUSH3 0x29D5 JUMP JUMPDEST POP PUSH1 0x40 DUP3 DUP2 ADD MLOAD PUSH1 0x2 DUP4 DUP2 ADD DUP1 SLOAD PUSH1 0x1 PUSH1 0x1 PUSH1 0xA0 SHL SUB NOT SWAP1 DUP2 AND PUSH1 0x1 PUSH1 0x1 PUSH1 0xA0 SHL SUB SWAP5 DUP6 AND OR SWAP1 SWAP2 SSTORE PUSH1 0x60 DUP7 ADD MLOAD PUSH1 0x3 DUP7 ADD SSTORE PUSH1 0x80 DUP7 ADD MLOAD PUSH1 0x4 DUP7 ADD DUP1 SLOAD PUSH1 0xFF NOT AND SWAP2 ISZERO ISZERO SWAP2 SWAP1 SWAP2 OR SWAP1 SSTORE PUSH1 0xA0 DUP7 ADD MLOAD PUSH1 0x5 DUP1 DUP8 ADD SWAP2 SWAP1 SWAP2 SSTORE PUSH1 0xC0 DUP8 ADD MLOAD PUSH1 0x6 DUP8 ADD SSTORE PUSH1 0xE0 SWAP1 SWAP7 ADD MLOAD PUSH1 0x7 SWAP6 DUP7 ADD SSTORE CALLER PUSH1 0x0 SWAP1 DUP2 MSTORE PUSH1 0x20 SWAP3 DUP4 MSTORE SWAP4 DUP5 KECCAK256 DUP1 SLOAD PUSH1 0x1 DUP2 DUP2 ADD DUP4 SSTORE SWAP2 DUP7 MSTORE SWAP3 DUP6 KECCAK256 SWAP1 SWAP3 ADD DUP1 SLOAD DUP3 AND SWAP4 DUP10 AND SWAP4 DUP5 OR SWAP1 SSTORE DUP6 SLOAD SWAP2 DUP3 ADD DUP7 SSTORE SWAP5 SWAP1 SWAP3 MSTORE PUSH32 0x36B6384B5ECA791C62761152D0C79BB0604C104A5FB6F4EB0703F3154BB3DB0 SWAP1 SWAP2 ADD DUP1 SLOAD SWAP1 SWAP4 AND OR SWAP1 SWAP2 SSTORE SLOAD CALLVALUE GT ISZERO PUSH3 0xD24 JUMPI PUSH1 0x7 SLOAD PUSH1 0x0 SWAP1 CALLER SWAP1 PUSH3 0xC9C SWAP1 CALLVALUE PUSH3 0x2AA2 JUMP JUMPDEST PUSH1 0x40 MLOAD PUSH1 0x0 DUP2 DUP2 DUP2 DUP6 DUP8 GAS CALL SWAP3 POP POP POP RETURNDATASIZE DUP1 PUSH1 0x0 DUP2 EQ PUSH3 0xCDA JUMPI PUSH1 0x40 MLOAD SWAP2 POP PUSH1 0x1F NOT PUSH1 0x3F RETURNDATASIZE ADD AND DUP3 ADD PUSH1 0x40 MSTORE RETURNDATASIZE DUP3 MSTORE RETURNDATASIZE PUSH1 0x0 PUSH1 0x20 DUP5 ADD RETURNDATACOPY PUSH3 0xCDF JUMP JUMPDEST PUSH1 0x60 SWAP2 POP JUMPDEST POP POP SWAP1 POP DUP1 PUSH3 0xD22 JUMPI PUSH1 0x40 MLOAD PUSH3 0x461BCD PUSH1 0xE5 SHL DUP2 MSTORE PUSH1 0x20 PUSH1 0x4 DUP3 ADD MSTORE PUSH1 0xD PUSH1 0x24 DUP3 ADD MSTORE PUSH13 0x1499599D5B990819985A5B1959 PUSH1 0x9A SHL PUSH1 0x44 DUP3 ADD MSTORE PUSH1 0x64 ADD PUSH3 0x94B JUMP JUMPDEST POP JUMPDEST CALLER PUSH1 0x1 PUSH1 0x1 PUSH1 0xA0 SHL SUB AND DUP3 PUSH1 0x1 PUSH1 0x1 PUSH1 0xA0 SHL SUB AND PUSH32 0x41E5A7EFA0AB2E0500F747947397822AF01C4041D6EDC51D593F4180DA4FB973 DUP9 TIMESTAMP PUSH1 0x40 MLOAD PUSH3 0xD6B SWAP3 SWAP2 SWAP1 PUSH3 0x2AB8 JUMP JUMPDEST PUSH1 0x40 MLOAD DUP1 SWAP2 SUB SWAP1 LOG3 POP SWAP2 POP POP PUSH3 0xD81 PUSH1 0x1 DUP1 SSTORE JUMP JUMPDEST SWAP3 SWAP2 POP POP JUMP JUMPDEST PUSH1 0x60 PUSH3 0xD81 DUP3 PUSH3 0x1FA4 JUMP JUMPDEST PUSH3 0xD9E PUSH3 0x2206 JUMP JUMPDEST PUSH3 0xDA8 PUSH3 0x2235 JUMP JUMPDEST JUMP JUMPDEST PUSH1 0x0 DUP1 DUP1 JUMPDEST PUSH1 0x5 SLOAD DUP2 LT ISZERO PUSH3 0xE2A JUMPI PUSH1 0x3 PUSH1 0x0 PUSH1 0x5 DUP4 DUP2 SLOAD DUP2 LT PUSH3 0xDD4 JUMPI PUSH3 0xDD4 PUSH3 0x28C2 JUMP JUMPDEST PUSH1 0x0 SWAP2 DUP3 MSTORE PUSH1 0x20 DUP1 DUP4 KECCAK256 SWAP1 SWAP2 ADD SLOAD PUSH1 0x1 PUSH1 0x1 PUSH1 0xA0 SHL SUB AND DUP4 MSTORE DUP3 ADD SWAP3 SWAP1 SWAP3 MSTORE PUSH1 0x40 ADD SWAP1 KECCAK256 PUSH1 0x4 ADD SLOAD PUSH1 0xFF AND ISZERO PUSH3 0xE15 JUMPI DUP2 PUSH3 0xE11 DUP2 PUSH3 0x2924 JUMP JUMPDEST SWAP3 POP POP JUMPDEST DUP1 PUSH3 0xE21 DUP2 PUSH3 0x2924 JUMP JUMPDEST SWAP2 POP POP PUSH3 0xDAF JUMP JUMPDEST POP SWAP2 SWAP1 POP JUMP JUMPDEST PUSH3 0xE3A PUSH3 0x2206 JUMP JUMPDEST PUSH3 0xE44 PUSH3 0x21DB JUMP JUMPDEST SELFBALANCE DUP1 PUSH3 0xE8A JUMPI PUSH1 0x40 MLOAD PUSH3 0x461BCD PUSH1 0xE5 SHL DUP2 MSTORE PUSH1 0x20 PUSH1 0x4 DUP3 ADD MSTORE PUSH1 0x13 PUSH1 0x24 DUP3 ADD MSTORE PUSH19 0x4E6F206665657320746F207769746864726177 PUSH1 0x68 SHL PUSH1 0x44 DUP3 ADD MSTORE PUSH1 0x64 ADD PUSH3 0x94B JUMP JUMPDEST PUSH1 0x0 DUP1 SLOAD PUSH1 0x40 MLOAD PUSH1 0x1 PUSH1 0x1 PUSH1 0xA0 SHL SUB SWAP1 SWAP2 AND SWAP1 DUP4 SWAP1 DUP4 DUP2 DUP2 DUP2 DUP6 DUP8 GAS CALL SWAP3 POP POP POP RETURNDATASIZE DUP1 PUSH1 0x0 DUP2 EQ PUSH3 0xED9 JUMPI PUSH1 0x40 MLOAD SWAP2 POP PUSH1 0x1F NOT PUSH1 0x3F RETURNDATASIZE ADD AND DUP3 ADD PUSH1 0x40 MSTORE RETURNDATASIZE DUP3 MSTORE RETURNDATASIZE PUSH1 0x0 PUSH1 0x20 DUP5 ADD RETURNDATACOPY PUSH3 0xEDE JUMP JUMPDEST PUSH1 0x60 SWAP2 POP JUMPDEST POP POP SWAP1 POP DUP1 PUSH3 0xF25 JUMPI PUSH1 0x40 MLOAD PUSH3 0x461BCD PUSH1 0xE5 SHL DUP2 MSTORE PUSH1 0x20 PUSH1 0x4 DUP3 ADD MSTORE PUSH1 0x11 PUSH1 0x24 DUP3 ADD MSTORE PUSH17 0x15DA5D1A191C985DD85B0819985A5B1959 PUSH1 0x7A SHL PUSH1 0x44 DUP3 ADD MSTORE PUSH1 0x64 ADD PUSH3 0x94B JUMP JUMPDEST POP POP PUSH3 0xDA8 PUSH1 0x1 DUP1 SSTORE JUMP JUMPDEST DUP1 MLOAD PUSH1 0x60 SWAP1 DUP3 SWAP1 PUSH3 0xF7B JUMPI PUSH1 0x40 MLOAD PUSH3 0x461BCD PUSH1 0xE5 SHL DUP2 MSTORE PUSH1 0x20 PUSH1 0x4 DUP3 ADD MSTORE PUSH1 0x12 PUSH1 0x24 DUP3 ADD MSTORE PUSH18 0x456D70747920736561726368207175657279 PUSH1 0x70 SHL PUSH1 0x44 DUP3 ADD MSTORE PUSH1 0x64 ADD PUSH3 0x94B JUMP JUMPDEST PUSH1 0x5 SLOAD PUSH1 0x0 SWAP1 PUSH8 0xFFFFFFFFFFFFFFFF DUP2 GT ISZERO PUSH3 0xF9C JUMPI PUSH3 0xF9C PUSH3 0x2608 JUMP JUMPDEST PUSH1 0x40 MLOAD SWAP1 DUP1 DUP3 MSTORE DUP1 PUSH1 0x20 MUL PUSH1 0x20 ADD DUP3 ADD PUSH1 0x40 MSTORE DUP1 ISZERO PUSH3 0xFC6 JUMPI DUP2 PUSH1 0x20 ADD PUSH1 0x20 DUP3 MUL DUP1 CALLDATASIZE DUP4 CALLDATACOPY ADD SWAP1 POP JUMPDEST POP SWAP1 POP PUSH1 0x0 DUP1 JUMPDEST PUSH1 0x5 SLOAD DUP2 LT ISZERO PUSH3 0x1193 JUMPI PUSH1 0x3 PUSH1 0x0 PUSH1 0x5 DUP4 DUP2 SLOAD DUP2 LT PUSH3 0xFF2 JUMPI PUSH3 0xFF2 PUSH3 0x28C2 JUMP JUMPDEST PUSH1 0x0 SWAP2 DUP3 MSTORE PUSH1 0x20 DUP1 DUP4 KECCAK256 SWAP1 SWAP2 ADD SLOAD PUSH1 0x1 PUSH1 0x1 PUSH1 0xA0 SHL SUB AND DUP4 MSTORE DUP3 ADD SWAP3 SWAP1 SWAP3 MSTORE PUSH1 0x40 ADD SWAP1 KECCAK256 PUSH1 0x4 ADD SLOAD PUSH1 0xFF AND ISZERO PUSH3 0x117E JUMPI PUSH1 0x0 PUSH1 0x3 PUSH1 0x0 PUSH1 0x5 DUP5 DUP2 SLOAD DUP2 LT PUSH3 0x103F JUMPI PUSH3 0x103F PUSH3 0x28C2 JUMP JUMPDEST PUSH1 0x0 SWAP2 DUP3 MSTORE PUSH1 0x20 DUP1 DUP4 KECCAK256 SWAP1 SWAP2 ADD SLOAD PUSH1 0x1 PUSH1 0x1 PUSH1 0xA0 SHL SUB AND DUP4 MSTORE DUP3 ADD SWAP3 SWAP1 SWAP3 MSTORE PUSH1 0x40 ADD SWAP1 KECCAK256 PUSH1 0x1 ADD DUP1 SLOAD PUSH3 0x1073 SWAP1 PUSH3 0x28D8 JUMP JUMPDEST DUP1 PUSH1 0x1F ADD PUSH1 0x20 DUP1 SWAP2 DIV MUL PUSH1 0x20 ADD PUSH1 0x40 MLOAD SWAP1 DUP2 ADD PUSH1 0x40 MSTORE DUP1 SWAP3 SWAP2 SWAP1 DUP2 DUP2 MSTORE PUSH1 0x20 ADD DUP3 DUP1 SLOAD PUSH3 0x10A1 SWAP1 PUSH3 0x28D8 JUMP JUMPDEST DUP1 ISZERO PUSH3 0x10F2 JUMPI DUP1 PUSH1 0x1F LT PUSH3 0x10C6 JUMPI PUSH2 0x100 DUP1 DUP4 SLOAD DIV MUL DUP4 MSTORE SWAP2 PUSH1 0x20 ADD SWAP2 PUSH3 0x10F2 JUMP JUMPDEST DUP3 ADD SWAP2 SWAP1 PUSH1 0x0 MSTORE PUSH1 0x20 PUSH1 0x0 KECCAK256 SWAP1 JUMPDEST DUP2 SLOAD DUP2 MSTORE SWAP1 PUSH1 0x1 ADD SWAP1 PUSH1 0x20 ADD DUP1 DUP4 GT PUSH3 0x10D4 JUMPI DUP3 SWAP1 SUB PUSH1 0x1F AND DUP3 ADD SWAP2 JUMPDEST POP POP POP POP POP SWAP1 POP PUSH3 0x1105 DUP2 DUP7 PUSH3 0x228C JUMP JUMPDEST ISZERO PUSH3 0x117C JUMPI PUSH1 0x5 DUP3 DUP2 SLOAD DUP2 LT PUSH3 0x1121 JUMPI PUSH3 0x1121 PUSH3 0x28C2 JUMP JUMPDEST SWAP1 PUSH1 0x0 MSTORE PUSH1 0x20 PUSH1 0x0 KECCAK256 ADD PUSH1 0x0 SWAP1 SLOAD SWAP1 PUSH2 0x100 EXP SWAP1 DIV PUSH1 0x1 PUSH1 0x1 PUSH1 0xA0 SHL SUB AND DUP5 DUP5 DUP2 MLOAD DUP2 LT PUSH3 0x1154 JUMPI PUSH3 0x1154 PUSH3 0x28C2 JUMP JUMPDEST PUSH1 0x1 PUSH1 0x1 PUSH1 0xA0 SHL SUB SWAP1 SWAP3 AND PUSH1 0x20 SWAP3 DUP4 MUL SWAP2 SWAP1 SWAP2 ADD SWAP1 SWAP2 ADD MSTORE DUP3 PUSH3 0x1178 DUP2 PUSH3 0x2924 JUMP JUMPDEST SWAP4 POP POP JUMPDEST POP JUMPDEST DUP1 PUSH3 0x118A DUP2 PUSH3 0x2924 JUMP JUMPDEST SWAP2 POP POP PUSH3 0xFCD JUMP JUMPDEST POP DUP2 MSTORE SWAP4 SWAP3 POP POP POP JUMP JUMPDEST PUSH3 0x11A7 PUSH3 0x2206 JUMP JUMPDEST PUSH1 0x0 SLOAD PUSH1 0x1 PUSH1 0x1 PUSH1 0xA0 SHL SUB AND PUSH1 0x1 PUSH1 0x1 PUSH1 0xA0 SHL SUB AND DUP2 PUSH1 0x1 PUSH1 0x1 PUSH1 0xA0 SHL SUB AND SUB PUSH3 0x1215 JUMPI PUSH1 0x40 MLOAD PUSH3 0x461BCD PUSH1 0xE5 SHL DUP2 MSTORE PUSH1 0x20 PUSH1 0x4 DUP3 ADD MSTORE PUSH1 0x18 PUSH1 0x24 DUP3 ADD MSTORE PUSH32 0x43616E6E6F74206465617574686F72697A65206F776E65720000000000000000 PUSH1 0x44 DUP3 ADD MSTORE PUSH1 0x64 ADD PUSH3 0x94B JUMP JUMPDEST PUSH1 0x1 PUSH1 0x1 PUSH1 0xA0 SHL SUB DUP2 AND PUSH1 0x0 DUP2 DUP2 MSTORE PUSH1 0x4 PUSH1 0x20 MSTORE PUSH1 0x40 DUP1 DUP3 KECCAK256 DUP1 SLOAD PUSH1 0xFF NOT AND SWAP1 SSTORE MLOAD PUSH32 0xF6A1DD783AAF4674902F6284E91943A92233BBE1C581AE17B9C1871758EE6360 SWAP2 SWAP1 LOG2 POP JUMP JUMPDEST PUSH3 0x1268 PUSH3 0x2206 JUMP JUMPDEST PUSH1 0x0 DUP2 GT DUP1 ISZERO PUSH3 0x127A JUMPI POP PUSH1 0x64 DUP2 GT ISZERO JUMPDEST PUSH3 0x12C8 JUMPI PUSH1 0x40 MLOAD PUSH3 0x461BCD PUSH1 0xE5 SHL DUP2 MSTORE PUSH1 0x20 PUSH1 0x4 DUP3 ADD MSTORE PUSH1 0x18 PUSH1 0x24 DUP3 ADD MSTORE PUSH32 0x496E76616C6964206D61782067726F7570732076616C75650000000000000000 PUSH1 0x44 DUP3 ADD MSTORE PUSH1 0x64 ADD PUSH3 0x94B JUMP JUMPDEST PUSH1 0x6 DUP2 SWAP1 SSTORE PUSH1 0x40 MLOAD DUP2 DUP2 MSTORE PUSH32 0xAAEA268D025100DF77607DAE59E2FC2E5A8707E4ABBB5CEBB15CA8A2988E0DF9 SWAP1 PUSH1 0x20 ADD JUMPDEST PUSH1 0x40 MLOAD DUP1 SWAP2 SUB SWAP1 LOG1 POP JUMP JUMPDEST PUSH1 0x3 PUSH1 0x20 MSTORE PUSH1 0x0 SWAP1 DUP2 MSTORE PUSH1 0x40 SWAP1 KECCAK256 DUP1 SLOAD PUSH1 0x1 DUP3 ADD DUP1 SLOAD PUSH1 0x1 PUSH1 0x1 PUSH1 0xA0 SHL SUB SWAP1 SWAP3 AND SWAP3 SWAP2 PUSH3 0x1332 SWAP1 PUSH3 0x28D8 JUMP JUMPDEST DUP1 PUSH1 0x1F ADD PUSH1 0x20 DUP1 SWAP2 DIV MUL PUSH1 0x20 ADD PUSH1 0x40 MLOAD SWAP1 DUP2 ADD PUSH1 0x40 MSTORE DUP1 SWAP3 SWAP2 SWAP1 DUP2 DUP2 MSTORE PUSH1 0x20 ADD DUP3 DUP1 SLOAD PUSH3 0x1360 SWAP1 PUSH3 0x28D8 JUMP JUMPDEST DUP1 ISZERO PUSH3 0x13B1 JUMPI DUP1 PUSH1 0x1F LT PUSH3 0x1385 JUMPI PUSH2 0x100 DUP1 DUP4 SLOAD DIV MUL DUP4 MSTORE SWAP2 PUSH1 0x20 ADD SWAP2 PUSH3 0x13B1 JUMP JUMPDEST DUP3 ADD SWAP2 SWAP1 PUSH1 0x0 MSTORE PUSH1 0x20 PUSH1 0x0 KECCAK256 SWAP1 JUMPDEST DUP2 SLOAD DUP2 MSTORE SWAP1 PUSH1 0x1 ADD SWAP1 PUSH1 0x20 ADD DUP1 DUP4 GT PUSH3 0x1393 JUMPI DUP3 SWAP1 SUB PUSH1 0x1F AND DUP3 ADD SWAP2 JUMPDEST POP POP POP PUSH1 0x2 DUP5 ADD SLOAD PUSH1 0x3 DUP6 ADD SLOAD PUSH1 0x4 DUP7 ADD SLOAD PUSH1 0x5 DUP8 ADD SLOAD PUSH1 0x6 DUP9 ADD SLOAD PUSH1 0x7 SWAP1 SWAP9 ADD SLOAD SWAP7 SWAP8 PUSH1 0x1 PUSH1 0x1 PUSH1 0xA0 SHL SUB SWAP1 SWAP5 AND SWAP7 SWAP3 SWAP6 POP PUSH1 0xFF SWAP1 SWAP2 AND SWAP4 POP SWAP2 SWAP1 DUP9 JUMP JUMPDEST PUSH3 0x13FA PUSH3 0x2206 JUMP JUMPDEST PUSH3 0xDA8 PUSH1 0x0 PUSH3 0x2377 JUMP JUMPDEST PUSH1 0x1 PUSH1 0x1 PUSH1 0xA0 SHL SUB DUP2 AND PUSH1 0x0 SWAP1 DUP2 MSTORE PUSH1 0x4 PUSH1 0x20 MSTORE PUSH1 0x40 DUP2 KECCAK256 SLOAD PUSH1 0xFF AND DUP1 PUSH3 0xD81 JUMPI POP POP PUSH1 0x0 SLOAD PUSH1 0x1 PUSH1 0x1 PUSH1 0xA0 SHL SUB SWAP2 DUP3 AND SWAP2 AND EQ SWAP1 JUMP JUMPDEST PUSH1 0x60 PUSH1 0x0 DUP1 DUP1 JUMPDEST PUSH1 0x5 SLOAD DUP2 LT ISZERO PUSH3 0x14C0 JUMPI PUSH1 0x3 PUSH1 0x0 PUSH1 0x5 DUP4 DUP2 SLOAD DUP2 LT PUSH3 0x146A JUMPI PUSH3 0x146A PUSH3 0x28C2 JUMP JUMPDEST PUSH1 0x0 SWAP2 DUP3 MSTORE PUSH1 0x20 DUP1 DUP4 KECCAK256 SWAP1 SWAP2 ADD SLOAD PUSH1 0x1 PUSH1 0x1 PUSH1 0xA0 SHL SUB AND DUP4 MSTORE DUP3 ADD SWAP3 SWAP1 SWAP3 MSTORE PUSH1 0x40 ADD SWAP1 KECCAK256 PUSH1 0x4 ADD SLOAD PUSH1 0xFF AND ISZERO PUSH3 0x14AB JUMPI DUP2 PUSH3 0x14A7 DUP2 PUSH3 0x2924 JUMP JUMPDEST SWAP3 POP POP JUMPDEST DUP1 PUSH3 0x14B7 DUP2 PUSH3 0x2924 JUMP JUMPDEST SWAP2 POP POP PUSH3 0x1445 JUMP JUMPDEST POP DUP1 DUP6 LT PUSH3 0x14E2 JUMPI PUSH1 0x40 DUP1 MLOAD PUSH1 0x0 DUP2 MSTORE PUSH1 0x20 DUP2 ADD SWAP1 SWAP2 MSTORE SWAP3 POP SWAP1 POP PUSH3 0x166B JUMP JUMPDEST PUSH1 0x0 PUSH3 0x14F0 DUP6 DUP8 PUSH3 0x2ACD JUMP JUMPDEST SWAP1 POP DUP2 DUP2 GT ISZERO PUSH3 0x14FE JUMPI POP DUP1 JUMPDEST PUSH1 0x0 PUSH3 0x150C DUP8 DUP4 PUSH3 0x2AA2 JUMP JUMPDEST SWAP1 POP PUSH1 0x0 DUP2 PUSH8 0xFFFFFFFFFFFFFFFF DUP2 GT ISZERO PUSH3 0x152C JUMPI PUSH3 0x152C PUSH3 0x2608 JUMP JUMPDEST PUSH1 0x40 MLOAD SWAP1 DUP1 DUP3 MSTORE DUP1 PUSH1 0x20 MUL PUSH1 0x20 ADD DUP3 ADD PUSH1 0x40 MSTORE DUP1 ISZERO PUSH3 0x1556 JUMPI DUP2 PUSH1 0x20 ADD PUSH1 0x20 DUP3 MUL DUP1 CALLDATASIZE DUP4 CALLDATACOPY ADD SWAP1 POP JUMPDEST POP SWAP1 POP PUSH1 0x0 DUP1 PUSH1 0x0 JUMPDEST PUSH1 0x5 SLOAD DUP2 LT DUP1 ISZERO PUSH3 0x1570 JUMPI POP DUP5 DUP3 LT JUMPDEST ISZERO PUSH3 0x165F JUMPI PUSH1 0x3 PUSH1 0x0 PUSH1 0x5 DUP4 DUP2 SLOAD DUP2 LT PUSH3 0x1590 JUMPI PUSH3 0x1590 PUSH3 0x28C2 JUMP JUMPDEST PUSH1 0x0 SWAP2 DUP3 MSTORE PUSH1 0x20 DUP1 DUP4 KECCAK256 SWAP1 SWAP2 ADD SLOAD PUSH1 0x1 PUSH1 0x1 PUSH1 0xA0 SHL SUB AND DUP4 MSTORE DUP3 ADD SWAP3 SWAP1 SWAP3 MSTORE PUSH1 0x40 ADD SWAP1 KECCAK256 PUSH1 0x4 ADD SLOAD PUSH1 0xFF AND ISZERO PUSH3 0x164A JUMPI DUP11 DUP4 LT PUSH3 0x163A JUMPI PUSH1 0x5 DUP2 DUP2 SLOAD DUP2 LT PUSH3 0x15DF JUMPI PUSH3 0x15DF PUSH3 0x28C2 JUMP JUMPDEST SWAP1 PUSH1 0x0 MSTORE PUSH1 0x20 PUSH1 0x0 KECCAK256 ADD PUSH1 0x0 SWAP1 SLOAD SWAP1 PUSH2 0x100 EXP SWAP1 DIV PUSH1 0x1 PUSH1 0x1 PUSH1 0xA0 SHL SUB AND DUP5 DUP4 DUP2 MLOAD DUP2 LT PUSH3 0x1612 JUMPI PUSH3 0x1612 PUSH3 0x28C2 JUMP JUMPDEST PUSH1 0x1 PUSH1 0x1 PUSH1 0xA0 SHL SUB SWAP1 SWAP3 AND PUSH1 0x20 SWAP3 DUP4 MUL SWAP2 SWAP1 SWAP2 ADD SWAP1 SWAP2 ADD MSTORE DUP2 PUSH3 0x1636 DUP2 PUSH3 0x2924 JUMP JUMPDEST SWAP3 POP POP JUMPDEST DUP3 PUSH3 0x1646 DUP2 PUSH3 0x2924 JUMP JUMPDEST SWAP4 POP POP JUMPDEST DUP1 PUSH3 0x1656 DUP2 PUSH3 0x2924 JUMP JUMPDEST SWAP2 POP POP PUSH3 0x155F JUMP JUMPDEST POP SWAP2 SWAP7 POP SWAP4 SWAP5 POP POP POP POP POP JUMPDEST SWAP3 POP SWAP3 SWAP1 POP JUMP JUMPDEST PUSH3 0x167C PUSH3 0x2206 JUMP JUMPDEST PUSH3 0xDA8 PUSH3 0x23C7 JUMP JUMPDEST DUP1 PUSH1 0x1 PUSH1 0x1 PUSH1 0xA0 SHL SUB DUP2 AND PUSH3 0x16B0 JUMPI PUSH1 0x40 MLOAD PUSH3 0x461BCD PUSH1 0xE5 SHL DUP2 MSTORE PUSH1 0x4 ADD PUSH3 0x94B SWAP1 PUSH3 0x2AE3 JUMP JUMPDEST PUSH1 0x1 PUSH1 0x1 PUSH1 0xA0 SHL SUB DUP2 AND PUSH1 0x0 SWAP1 DUP2 MSTORE PUSH1 0x3 PUSH1 0x20 MSTORE PUSH1 0x40 SWAP1 KECCAK256 PUSH1 0x4 ADD SLOAD PUSH1 0xFF AND PUSH3 0x16EE JUMPI PUSH1 0x40 MLOAD PUSH3 0x461BCD PUSH1 0xE5 SHL DUP2 MSTORE PUSH1 0x4 ADD PUSH3 0x94B SWAP1 PUSH3 0x2B12 JUMP JUMPDEST PUSH1 0x1 PUSH1 0x1 PUSH1 0xA0 SHL SUB DUP3 DUP2 AND PUSH1 0x0 SWAP1 DUP2 MSTORE PUSH1 0x3 PUSH1 0x20 MSTORE PUSH1 0x40 SWAP1 KECCAK256 PUSH1 0x2 ADD SLOAD AND CALLER EQ DUP1 PUSH3 0x1722 JUMPI POP CALLER PUSH1 0x1 PUSH1 0x1 PUSH1 0xA0 SHL SUB DUP4 AND EQ JUMPDEST DUP1 PUSH3 0x1738 JUMPI POP PUSH1 0x0 SLOAD PUSH1 0x1 PUSH1 0x1 PUSH1 0xA0 SHL SUB AND CALLER EQ JUMPDEST PUSH3 0x1791 JUMPI PUSH1 0x40 MLOAD PUSH3 0x461BCD PUSH1 0xE5 SHL DUP2 MSTORE PUSH1 0x20 PUSH1 0x4 DUP3 ADD MSTORE PUSH1 0x22 PUSH1 0x24 DUP3 ADD MSTORE PUSH32 0x4E6F7420617574686F72697A656420746F20646561637469766174652067726F PUSH1 0x44 DUP3 ADD MSTORE PUSH2 0x757 PUSH1 0xF4 SHL PUSH1 0x64 DUP3 ADD MSTORE PUSH1 0x84 ADD PUSH3 0x94B JUMP JUMPDEST PUSH1 0x1 PUSH1 0x1 PUSH1 0xA0 SHL SUB DUP3 AND PUSH1 0x0 DUP2 DUP2 MSTORE PUSH1 0x3 PUSH1 0x20 MSTORE PUSH1 0x40 SWAP1 DUP2 SWAP1 KECCAK256 PUSH1 0x4 ADD DUP1 SLOAD PUSH1 0xFF NOT AND SWAP1 SSTORE MLOAD PUSH32 0x7631C34004CD3D0F8EE340CD197DB67A72DAD2FE4FB5D8CDF87E8BED952BBE70 SWAP1 PUSH3 0x17E7 SWAP1 TIMESTAMP DUP2 MSTORE PUSH1 0x20 ADD SWAP1 JUMP JUMPDEST PUSH1 0x40 MLOAD DUP1 SWAP2 SUB SWAP1 LOG2 POP POP JUMP JUMPDEST DUP1 PUSH1 0x1 PUSH1 0x1 PUSH1 0xA0 SHL SUB DUP2 AND PUSH3 0x181D JUMPI PUSH1 0x40 MLOAD PUSH3 0x461BCD PUSH1 0xE5 SHL DUP2 MSTORE PUSH1 0x4 ADD PUSH3 0x94B SWAP1 PUSH3 0x2AE3 JUMP JUMPDEST PUSH1 0x1 PUSH1 0x1 PUSH1 0xA0 SHL SUB DUP2 AND PUSH1 0x0 SWAP1 DUP2 MSTORE PUSH1 0x3 PUSH1 0x20 MSTORE PUSH1 0x40 SWAP1 KECCAK256 PUSH1 0x4 ADD SLOAD PUSH1 0xFF AND PUSH3 0x185B JUMPI PUSH1 0x40 MLOAD PUSH3 0x461BCD PUSH1 0xE5 SHL DUP2 MSTORE PUSH1 0x4 ADD PUSH3 0x94B SWAP1 PUSH3 0x2B12 JUMP JUMPDEST CALLER PUSH1 0x1 PUSH1 0x1 PUSH1 0xA0 SHL SUB DUP4 AND EQ PUSH3 0x18C5 JUMPI PUSH1 0x40 MLOAD PUSH3 0x461BCD PUSH1 0xE5 SHL DUP2 MSTORE PUSH1 0x20 PUSH1 0x4 DUP3 ADD MSTORE PUSH1 0x27 PUSH1 0x24 DUP3 ADD MSTORE PUSH32 0x4F6E6C792067726F757020636F6E74726163742063616E207570646174652061 PUSH1 0x44 DUP3 ADD MSTORE PUSH7 0x63746976697479 PUSH1 0xC8 SHL PUSH1 0x64 DUP3 ADD MSTORE PUSH1 0x84 ADD PUSH3 0x94B JUMP JUMPDEST POP PUSH1 0x1 PUSH1 0x1 PUSH1 0xA0 SHL SUB AND PUSH1 0x0 SWAP1 DUP2 MSTORE PUSH1 0x3 PUSH1 0x20 MSTORE PUSH1 0x40 SWAP1 KECCAK256 TIMESTAMP PUSH1 0x7 SWAP1 SWAP2 ADD SSTORE JUMP JUMPDEST PUSH3 0x18F0 PUSH3 0x2206 JUMP JUMPDEST PUSH1 0x1 PUSH1 0x1 PUSH1 0xA0 SHL SUB DUP2 DUP2 AND PUSH1 0x0 SWAP1 DUP2 MSTORE PUSH1 0x3 PUSH1 0x20 MSTORE PUSH1 0x40 SWAP1 KECCAK256 SLOAD AND PUSH3 0x1950 JUMPI PUSH1 0x40 MLOAD PUSH3 0x461BCD PUSH1 0xE5 SHL DUP2 MSTORE PUSH1 0x20 PUSH1 0x4 DUP3 ADD MSTORE PUSH1 0x14 PUSH1 0x24 DUP3 ADD MSTORE PUSH20 0x11DC9BDD5C08191BD95CC81B9BDD08195E1A5CDD PUSH1 0x62 SHL PUSH1 0x44 DUP3 ADD MSTORE PUSH1 0x64 ADD PUSH3 0x94B JUMP JUMPDEST PUSH1 0x1 PUSH1 0x1 PUSH1 0xA0 SHL SUB DUP2 AND PUSH1 0x0 DUP2 DUP2 MSTORE PUSH1 0x3 PUSH1 0x20 MSTORE PUSH1 0x40 SWAP1 DUP2 SWAP1 KECCAK256 PUSH1 0x4 ADD DUP1 SLOAD PUSH1 0xFF NOT AND SWAP1 SSTORE MLOAD PUSH32 0x7631C34004CD3D0F8EE340CD197DB67A72DAD2FE4FB5D8CDF87E8BED952BBE70 SWAP1 PUSH3 0x19A6 SWAP1 TIMESTAMP DUP2 MSTORE PUSH1 0x20 ADD SWAP1 JUMP JUMPDEST PUSH1 0x40 MLOAD DUP1 SWAP2 SUB SWAP1 LOG2 POP JUMP JUMPDEST PUSH3 0x19BB PUSH3 0x2206 JUMP JUMPDEST PUSH1 0x7 DUP2 SWAP1 SSTORE PUSH1 0x40 MLOAD DUP2 DUP2 MSTORE PUSH32 0x88A973FD5506071E0CF878B30898776C47D5250A7EE1E6EE0B36DF3B03C7C16A SWAP1 PUSH1 0x20 ADD PUSH3 0x12F9 JUMP JUMPDEST PUSH3 0x1A1D PUSH1 0x40 MLOAD DUP1 PUSH1 0x80 ADD PUSH1 0x40 MSTORE DUP1 PUSH1 0x0 DUP2 MSTORE PUSH1 0x20 ADD PUSH1 0x0 DUP2 MSTORE PUSH1 0x20 ADD PUSH1 0x0 DUP2 MSTORE PUSH1 0x20 ADD PUSH1 0x0 DUP2 MSTORE POP SWAP1 JUMP JUMPDEST PUSH1 0x0 DUP1 PUSH1 0x0 DUP1 JUMPDEST PUSH1 0x5 SLOAD DUP2 LT ISZERO PUSH3 0x1ACE JUMPI PUSH1 0x0 PUSH1 0x3 PUSH1 0x0 PUSH1 0x5 DUP5 DUP2 SLOAD DUP2 LT PUSH3 0x1A4B JUMPI PUSH3 0x1A4B PUSH3 0x28C2 JUMP JUMPDEST PUSH1 0x0 SWAP2 DUP3 MSTORE PUSH1 0x20 DUP1 DUP4 KECCAK256 SWAP1 SWAP2 ADD SLOAD PUSH1 0x1 PUSH1 0x1 PUSH1 0xA0 SHL SUB AND DUP4 MSTORE DUP3 ADD SWAP3 SWAP1 SWAP3 MSTORE PUSH1 0x40 ADD SWAP1 KECCAK256 PUSH1 0x4 DUP2 ADD SLOAD SWAP1 SWAP2 POP PUSH1 0xFF AND ISZERO PUSH3 0x1AB8 JUMPI DUP5 PUSH3 0x1A8C DUP2 PUSH3 0x2924 JUMP JUMPDEST SWAP6 POP POP DUP1 PUSH1 0x5 ADD SLOAD DUP5 PUSH3 0x1AA1 SWAP2 SWAP1 PUSH3 0x2ACD JUMP JUMPDEST SWAP4 POP DUP1 PUSH1 0x6 ADD SLOAD DUP4 PUSH3 0x1AB5 SWAP2 SWAP1 PUSH3 0x2ACD JUMP JUMPDEST SWAP3 POP JUMPDEST POP DUP1 PUSH3 0x1AC5 DUP2 PUSH3 0x2924 JUMP JUMPDEST SWAP2 POP POP PUSH3 0x1A24 JUMP JUMPDEST POP PUSH1 0x40 DUP1 MLOAD PUSH1 0x80 DUP2 ADD DUP3 MSTORE PUSH1 0x5 SLOAD DUP2 MSTORE PUSH1 0x20 DUP2 ADD SWAP5 SWAP1 SWAP5 MSTORE DUP4 ADD SWAP2 SWAP1 SWAP2 MSTORE PUSH1 0x60 DUP3 ADD MSTORE SWAP2 SWAP1 POP JUMP JUMPDEST PUSH3 0x1B00 PUSH3 0x2438 JUMP JUMPDEST DUP2 PUSH1 0x1 PUSH1 0x1 PUSH1 0xA0 SHL SUB DUP2 AND PUSH3 0x1B2A JUMPI PUSH1 0x40 MLOAD PUSH3 0x461BCD PUSH1 0xE5 SHL DUP2 MSTORE PUSH1 0x4 ADD PUSH3 0x94B SWAP1 PUSH3 0x2AE3 JUMP JUMPDEST PUSH1 0x1 PUSH1 0x1 PUSH1 0xA0 SHL SUB DUP2 AND PUSH1 0x0 SWAP1 DUP2 MSTORE PUSH1 0x3 PUSH1 0x20 MSTORE PUSH1 0x40 SWAP1 KECCAK256 PUSH1 0x4 ADD SLOAD PUSH1 0xFF AND PUSH3 0x1B68 JUMPI PUSH1 0x40 MLOAD PUSH3 0x461BCD PUSH1 0xE5 SHL DUP2 MSTORE PUSH1 0x4 ADD PUSH3 0x94B SWAP1 PUSH3 0x2B12 JUMP JUMPDEST PUSH1 0x1 PUSH1 0x1 PUSH1 0xA0 SHL SUB DUP1 DUP5 AND PUSH1 0x0 SWAP1 DUP2 MSTORE PUSH1 0x3 PUSH1 0x20 SWAP1 DUP2 MSTORE PUSH1 0x40 SWAP2 DUP3 SWAP1 KECCAK256 DUP3 MLOAD PUSH2 0x100 DUP2 ADD SWAP1 SWAP4 MSTORE DUP1 SLOAD SWAP1 SWAP4 AND DUP3 MSTORE PUSH1 0x1 DUP4 ADD DUP1 SLOAD SWAP3 SWAP4 SWAP3 SWAP2 DUP5 ADD SWAP2 PUSH3 0x1BAE SWAP1 PUSH3 0x28D8 JUMP JUMPDEST DUP1 PUSH1 0x1F ADD PUSH1 0x20 DUP1 SWAP2 DIV MUL PUSH1 0x20 ADD PUSH1 0x40 MLOAD SWAP1 DUP2 ADD PUSH1 0x40 MSTORE DUP1 SWAP3 SWAP2 SWAP1 DUP2 DUP2 MSTORE PUSH1 0x20 ADD DUP3 DUP1 SLOAD PUSH3 0x1BDC SWAP1 PUSH3 0x28D8 JUMP JUMPDEST DUP1 ISZERO PUSH3 0x1C2D JUMPI DUP1 PUSH1 0x1F LT PUSH3 0x1C01 JUMPI PUSH2 0x100 DUP1 DUP4 SLOAD DIV MUL DUP4 MSTORE SWAP2 PUSH1 0x20 ADD SWAP2 PUSH3 0x1C2D JUMP JUMPDEST DUP3 ADD SWAP2 SWAP1 PUSH1 0x0 MSTORE PUSH1 0x20 PUSH1 0x0 KECCAK256 SWAP1 JUMPDEST DUP2 SLOAD DUP2 MSTORE SWAP1 PUSH1 0x1 ADD SWAP1 PUSH1 0x20 ADD DUP1 DUP4 GT PUSH3 0x1C0F JUMPI DUP3 SWAP1 SUB PUSH1 0x1F AND DUP3 ADD SWAP2 JUMPDEST POP POP POP SWAP2 DUP4 MSTORE POP POP PUSH1 0x2 DUP3 ADD SLOAD PUSH1 0x1 PUSH1 0x1 PUSH1 0xA0 SHL SUB AND PUSH1 0x20 DUP3 ADD MSTORE PUSH1 0x3 DUP3 ADD SLOAD PUSH1 0x40 DUP3 ADD MSTORE PUSH1 0x4 DUP3 ADD SLOAD PUSH1 0xFF AND ISZERO ISZERO PUSH1 0x60 DUP3 ADD MSTORE PUSH1 0x5 DUP3 ADD SLOAD PUSH1 0x80 DUP3 ADD MSTORE PUSH1 0x6 DUP3 ADD SLOAD PUSH1 0xA0 DUP3 ADD MSTORE PUSH1 0x7 SWAP1 SWAP2 ADD SLOAD PUSH1 0xC0 SWAP1 SWAP2 ADD MSTORE SWAP4 SWAP3 POP POP POP JUMP JUMPDEST PUSH3 0x1C92 PUSH3 0x2206 JUMP JUMPDEST PUSH1 0x1 PUSH1 0x1 PUSH1 0xA0 SHL SUB DUP2 AND PUSH3 0x1CEA JUMPI PUSH1 0x40 MLOAD PUSH3 0x461BCD PUSH1 0xE5 SHL DUP2 MSTORE PUSH1 0x20 PUSH1 0x4 DUP3 ADD MSTORE PUSH1 0x17 PUSH1 0x24 DUP3 ADD MSTORE PUSH32 0x496E76616C69642063726561746F722061646472657373000000000000000000 PUSH1 0x44 DUP3 ADD MSTORE PUSH1 0x64 ADD PUSH3 0x94B JUMP JUMPDEST PUSH1 0x1 PUSH1 0x1 PUSH1 0xA0 SHL SUB DUP2 AND PUSH1 0x0 DUP2 DUP2 MSTORE PUSH1 0x4 PUSH1 0x20 MSTORE PUSH1 0x40 DUP1 DUP3 KECCAK256 DUP1 SLOAD PUSH1 0xFF NOT AND PUSH1 0x1 OR SWAP1 SSTORE MLOAD PUSH31 0xB6D3C5059E85C667AA67CFA572E42162916972ED621A4618E55DFCB4A17463 SWAP2 SWAP1 LOG2 POP JUMP JUMPDEST DUP1 PUSH1 0x1 PUSH1 0x1 PUSH1 0xA0 SHL SUB DUP2 AND PUSH3 0x1D5F JUMPI PUSH1 0x40 MLOAD PUSH3 0x461BCD PUSH1 0xE5 SHL DUP2 MSTORE PUSH1 0x4 ADD PUSH3 0x94B SWAP1 PUSH3 0x2AE3 JUMP JUMPDEST PUSH1 0x1 PUSH1 0x1 PUSH1 0xA0 SHL SUB DUP2 AND PUSH1 0x0 SWAP1 DUP2 MSTORE PUSH1 0x3 PUSH1 0x20 MSTORE PUSH1 0x40 SWAP1 KECCAK256 PUSH1 0x4 ADD SLOAD PUSH1 0xFF AND PUSH3 0x1D9D JUMPI PUSH1 0x40 MLOAD PUSH3 0x461BCD PUSH1 0xE5 SHL DUP2 MSTORE PUSH1 0x4 ADD PUSH3 0x94B SWAP1 PUSH3 0x2B12 JUMP JUMPDEST CALLER PUSH1 0x1 PUSH1 0x1 PUSH1 0xA0 SHL SUB DUP4 AND EQ PUSH3 0x1E01 JUMPI PUSH1 0x40 MLOAD PUSH3 0x461BCD PUSH1 0xE5 SHL DUP2 MSTORE PUSH1 0x20 PUSH1 0x4 DUP3 ADD MSTORE PUSH1 0x21 PUSH1 0x24 DUP3 ADD MSTORE PUSH32 0x4F6E6C792067726F757020636F6E74726163742063616E206164642075736572 PUSH1 0x44 DUP3 ADD MSTORE PUSH1 0x73 PUSH1 0xF8 SHL PUSH1 0x64 DUP3 ADD MSTORE PUSH1 0x84 ADD PUSH3 0x94B JUMP JUMPDEST PUSH1 0x1 PUSH1 0x1 PUSH1 0xA0 SHL SUB DUP4 AND PUSH1 0x0 SWAP1 DUP2 MSTORE PUSH1 0x2 PUSH1 0x20 MSTORE PUSH1 0x40 DUP2 KECCAK256 SWAP1 DUP1 JUMPDEST DUP3 SLOAD DUP2 LT ISZERO PUSH3 0x1E7F JUMPI DUP5 PUSH1 0x1 PUSH1 0x1 PUSH1 0xA0 SHL SUB AND DUP4 DUP3 DUP2 SLOAD DUP2 LT PUSH3 0x1E45 JUMPI PUSH3 0x1E45 PUSH3 0x28C2 JUMP JUMPDEST PUSH1 0x0 SWAP2 DUP3 MSTORE PUSH1 0x20 SWAP1 SWAP2 KECCAK256 ADD SLOAD PUSH1 0x1 PUSH1 0x1 PUSH1 0xA0 SHL SUB AND SUB PUSH3 0x1E6A JUMPI PUSH1 0x1 SWAP2 POP PUSH3 0x1E7F JUMP JUMPDEST DUP1 PUSH3 0x1E76 DUP2 PUSH3 0x2924 JUMP JUMPDEST SWAP2 POP POP PUSH3 0x1E1C JUMP JUMPDEST POP DUP1 PUSH3 0x1F59 JUMPI PUSH1 0x6 SLOAD DUP3 SLOAD LT PUSH3 0x1EDA JUMPI PUSH1 0x40 MLOAD PUSH3 0x461BCD PUSH1 0xE5 SHL DUP2 MSTORE PUSH1 0x20 PUSH1 0x4 DUP3 ADD MSTORE PUSH1 0x1F PUSH1 0x24 DUP3 ADD MSTORE PUSH32 0x55736572206861732072656163686564206D6178696D756D2067726F75707300 PUSH1 0x44 DUP3 ADD MSTORE PUSH1 0x64 ADD PUSH3 0x94B JUMP JUMPDEST PUSH1 0x1 PUSH1 0x1 PUSH1 0xA0 SHL SUB DUP6 DUP2 AND PUSH1 0x0 SWAP1 DUP2 MSTORE PUSH1 0x2 PUSH1 0x20 SWAP1 DUP2 MSTORE PUSH1 0x40 DUP1 DUP4 KECCAK256 DUP1 SLOAD PUSH1 0x1 DUP2 ADD DUP3 SSTORE SWAP1 DUP5 MSTORE DUP3 DUP5 KECCAK256 ADD DUP1 SLOAD PUSH1 0x1 PUSH1 0x1 PUSH1 0xA0 SHL SUB NOT AND SWAP5 DUP10 AND SWAP5 DUP6 OR SWAP1 SSTORE SWAP3 DUP3 MSTORE PUSH1 0x3 SWAP1 MSTORE SWAP1 DUP2 KECCAK256 PUSH1 0x5 ADD DUP1 SLOAD SWAP2 PUSH3 0x1F34 DUP4 PUSH3 0x2924 JUMP JUMPDEST SWAP1 SWAP2 SSTORE POP POP PUSH1 0x1 PUSH1 0x1 PUSH1 0xA0 SHL SUB DUP5 AND PUSH1 0x0 SWAP1 DUP2 MSTORE PUSH1 0x3 PUSH1 0x20 MSTORE PUSH1 0x40 SWAP1 KECCAK256 TIMESTAMP PUSH1 0x7 SWAP1 SWAP2 ADD SSTORE JUMPDEST POP POP POP POP POP JUMP JUMPDEST PUSH3 0x1F6A PUSH3 0x2206 JUMP JUMPDEST PUSH1 0x1 PUSH1 0x1 PUSH1 0xA0 SHL SUB DUP2 AND PUSH3 0x1F96 JUMPI PUSH1 0x40 MLOAD PUSH4 0x1E4FBDF7 PUSH1 0xE0 SHL DUP2 MSTORE PUSH1 0x0 PUSH1 0x4 DUP3 ADD MSTORE PUSH1 0x24 ADD PUSH3 0x94B JUMP JUMPDEST PUSH3 0x1FA1 DUP2 PUSH3 0x2377 JUMP JUMPDEST POP JUMP JUMPDEST PUSH1 0x1 PUSH1 0x1 PUSH1 0xA0 SHL SUB DUP2 AND PUSH1 0x0 SWAP1 DUP2 MSTORE PUSH1 0x2 PUSH1 0x20 SWAP1 DUP2 MSTORE PUSH1 0x40 DUP1 DUP4 KECCAK256 DUP1 SLOAD DUP3 MLOAD DUP2 DUP6 MUL DUP2 ADD DUP6 ADD SWAP1 SWAP4 MSTORE DUP1 DUP4 MSTORE PUSH1 0x60 SWAP5 SWAP4 DUP4 ADD DUP3 DUP3 DUP1 ISZERO PUSH3 0x200F JUMPI PUSH1 0x20 MUL DUP3 ADD SWAP2 SWAP1 PUSH1 0x0 MSTORE PUSH1 0x20 PUSH1 0x0 KECCAK256 SWAP1 JUMPDEST DUP2 SLOAD PUSH1 0x1 PUSH1 0x1 PUSH1 0xA0 SHL SUB AND DUP2 MSTORE PUSH1 0x1 SWAP1 SWAP2 ADD SWAP1 PUSH1 0x20 ADD DUP1 DUP4 GT PUSH3 0x1FF0 JUMPI JUMPDEST POP POP POP POP POP SWAP1 POP PUSH1 0x0 DUP1 JUMPDEST DUP3 MLOAD DUP2 LT ISZERO PUSH3 0x2092 JUMPI PUSH1 0x3 PUSH1 0x0 DUP5 DUP4 DUP2 MLOAD DUP2 LT PUSH3 0x203D JUMPI PUSH3 0x203D PUSH3 0x28C2 JUMP JUMPDEST PUSH1 0x20 SWAP1 DUP2 MUL SWAP2 SWAP1 SWAP2 ADD DUP2 ADD MLOAD PUSH1 0x1 PUSH1 0x1 PUSH1 0xA0 SHL SUB AND DUP3 MSTORE DUP2 ADD SWAP2 SWAP1 SWAP2 MSTORE PUSH1 0x40 ADD PUSH1 0x0 KECCAK256 PUSH1 0x4 ADD SLOAD PUSH1 0xFF AND ISZERO PUSH3 0x207D JUMPI DUP2 PUSH3 0x2079 DUP2 PUSH3 0x2924 JUMP JUMPDEST SWAP3 POP POP JUMPDEST DUP1 PUSH3 0x2089 DUP2 PUSH3 0x2924 JUMP JUMPDEST SWAP2 POP POP PUSH3 0x201A JUMP JUMPDEST POP PUSH1 0x0 DUP2 PUSH8 0xFFFFFFFFFFFFFFFF DUP2 GT ISZERO PUSH3 0x20B1 JUMPI PUSH3 0x20B1 PUSH3 0x2608 JUMP JUMPDEST PUSH1 0x40 MLOAD SWAP1 DUP1 DUP3 MSTORE DUP1 PUSH1 0x20 MUL PUSH1 0x20 ADD DUP3 ADD PUSH1 0x40 MSTORE DUP1 ISZERO PUSH3 0x20DB JUMPI DUP2 PUSH1 0x20 ADD PUSH1 0x20 DUP3 MUL DUP1 CALLDATASIZE DUP4 CALLDATACOPY ADD SWAP1 POP JUMPDEST POP SWAP1 POP PUSH1 0x0 DUP1 JUMPDEST DUP5 MLOAD DUP2 LT ISZERO PUSH3 0x21A4 JUMPI PUSH1 0x3 PUSH1 0x0 DUP7 DUP4 DUP2 MLOAD DUP2 LT PUSH3 0x2105 JUMPI PUSH3 0x2105 PUSH3 0x28C2 JUMP JUMPDEST PUSH1 0x20 SWAP1 DUP2 MUL SWAP2 SWAP1 SWAP2 ADD DUP2 ADD MLOAD PUSH1 0x1 PUSH1 0x1 PUSH1 0xA0 SHL SUB AND DUP3 MSTORE DUP2 ADD SWAP2 SWAP1 SWAP2 MSTORE PUSH1 0x40 ADD PUSH1 0x0 KECCAK256 PUSH1 0x4 ADD SLOAD PUSH1 0xFF AND ISZERO PUSH3 0x218F JUMPI DUP5 DUP2 DUP2 MLOAD DUP2 LT PUSH3 0x214A JUMPI PUSH3 0x214A PUSH3 0x28C2 JUMP JUMPDEST PUSH1 0x20 MUL PUSH1 0x20 ADD ADD MLOAD DUP4 DUP4 DUP2 MLOAD DUP2 LT PUSH3 0x2167 JUMPI PUSH3 0x2167 PUSH3 0x28C2 JUMP JUMPDEST PUSH1 0x1 PUSH1 0x1 PUSH1 0xA0 SHL SUB SWAP1 SWAP3 AND PUSH1 0x20 SWAP3 DUP4 MUL SWAP2 SWAP1 SWAP2 ADD SWAP1 SWAP2 ADD MSTORE DUP2 PUSH3 0x218B DUP2 PUSH3 0x2924 JUMP JUMPDEST SWAP3 POP POP JUMPDEST DUP1 PUSH3 0x219B DUP2 PUSH3 0x2924 JUMP JUMPDEST SWAP2 POP POP PUSH3 0x20E2 JUMP JUMPDEST POP SWAP1 SWAP6 SWAP5 POP POP POP POP POP JUMP JUMPDEST PUSH1 0x0 SLOAD PUSH1 0x1 PUSH1 0xA0 SHL SWAP1 DIV PUSH1 0xFF AND ISZERO PUSH3 0xDA8 JUMPI PUSH1 0x40 MLOAD PUSH4 0xD93C0665 PUSH1 0xE0 SHL DUP2 MSTORE PUSH1 0x4 ADD PUSH1 0x40 MLOAD DUP1 SWAP2 SUB SWAP1 REVERT JUMPDEST PUSH1 0x2 PUSH1 0x1 SLOAD SUB PUSH3 0x21FF JUMPI PUSH1 0x40 MLOAD PUSH4 0x3EE5AEB5 PUSH1 0xE0 SHL DUP2 MSTORE PUSH1 0x4 ADD PUSH1 0x40 MLOAD DUP1 SWAP2 SUB SWAP1 REVERT JUMPDEST PUSH1 0x2 PUSH1 0x1 SSTORE JUMP JUMPDEST PUSH1 0x0 SLOAD PUSH1 0x1 PUSH1 0x1 PUSH1 0xA0 SHL SUB AND CALLER EQ PUSH3 0xDA8 JUMPI PUSH1 0x40 MLOAD PUSH4 0x118CDAA7 PUSH1 0xE0 SHL DUP2 MSTORE CALLER PUSH1 0x4 DUP3 ADD MSTORE PUSH1 0x24 ADD PUSH3 0x94B JUMP JUMPDEST PUSH3 0x223F PUSH3 0x240D JUMP JUMPDEST PUSH1 0x0 DUP1 SLOAD PUSH1 0xFF PUSH1 0xA0 SHL NOT AND SWAP1 SSTORE PUSH32 0x5DB9EE0A495BF2E6FF9C91A7834C1BA4FDD244A5E8AA4E537BD38AEAE4B073AA CALLER JUMPDEST PUSH1 0x40 MLOAD PUSH1 0x1 PUSH1 0x1 PUSH1 0xA0 SHL SUB SWAP1 SWAP2 AND DUP2 MSTORE PUSH1 0x20 ADD PUSH1 0x40 MLOAD DUP1 SWAP2 SUB SWAP1 LOG1 JUMP JUMPDEST PUSH1 0x0 DUP3 MLOAD DUP3 MLOAD GT ISZERO PUSH3 0x22A2 JUMPI POP PUSH1 0x0 PUSH3 0xD81 JUMP JUMPDEST PUSH1 0x0 JUMPDEST DUP3 MLOAD DUP5 MLOAD PUSH3 0x22B5 SWAP2 SWAP1 PUSH3 0x2AA2 JUMP JUMPDEST DUP2 GT PUSH3 0x236D JUMPI PUSH1 0x1 PUSH1 0x0 JUMPDEST DUP5 MLOAD DUP2 LT ISZERO PUSH3 0x2343 JUMPI DUP5 DUP2 DUP2 MLOAD DUP2 LT PUSH3 0x22E0 JUMPI PUSH3 0x22E0 PUSH3 0x28C2 JUMP JUMPDEST ADD PUSH1 0x20 ADD MLOAD PUSH1 0x1 PUSH1 0x1 PUSH1 0xF8 SHL SUB NOT AND DUP7 PUSH3 0x22FC DUP4 DUP7 PUSH3 0x2ACD JUMP JUMPDEST DUP2 MLOAD DUP2 LT PUSH3 0x230F JUMPI PUSH3 0x230F PUSH3 0x28C2 JUMP JUMPDEST ADD PUSH1 0x20 ADD MLOAD PUSH1 0x1 PUSH1 0x1 PUSH1 0xF8 SHL SUB NOT AND EQ PUSH3 0x232E JUMPI PUSH1 0x0 SWAP2 POP PUSH3 0x2343 JUMP JUMPDEST DUP1 PUSH3 0x233A DUP2 PUSH3 0x2924 JUMP JUMPDEST SWAP2 POP POP PUSH3 0x22C1 JUMP JUMPDEST POP DUP1 ISZERO PUSH3 0x2357 JUMPI PUSH1 0x1 SWAP3 POP POP POP PUSH3 0xD81 JUMP JUMPDEST POP DUP1 PUSH3 0x2364 DUP2 PUSH3 0x2924 JUMP JUMPDEST SWAP2 POP POP PUSH3 0x22A5 JUMP JUMPDEST POP PUSH1 0x0 SWAP4 SWAP3 POP POP POP JUMP JUMPDEST PUSH1 0x0 DUP1 SLOAD PUSH1 0x1 PUSH1 0x1 PUSH1 0xA0 SHL SUB DUP4 DUP2 AND PUSH1 0x1 PUSH1 0x1 PUSH1 0xA0 SHL SUB NOT DUP4 AND DUP2 OR DUP5 SSTORE PUSH1 0x40 MLOAD SWAP2 SWAP1 SWAP3 AND SWAP3 DUP4 SWAP2 PUSH32 0x8BE0079C531659141344CD1FD0A4F28419497F9722A3DAAFE3B4186F6B6457E0 SWAP2 SWAP1 LOG3 POP POP JUMP JUMPDEST PUSH3 0x23D1 PUSH3 0x21AF JUMP JUMPDEST PUSH1 0x0 DUP1 SLOAD PUSH1 0xFF PUSH1 0xA0 SHL NOT AND PUSH1 0x1 PUSH1 0xA0 SHL OR SWAP1 SSTORE PUSH32 0x62E78CEA01BEE320CD4E420270B5EA74000D11B0C9F74754EBDBFC544B05A258 PUSH3 0x226F CALLER SWAP1 JUMP JUMPDEST PUSH1 0x0 SLOAD PUSH1 0x1 PUSH1 0xA0 SHL SWAP1 DIV PUSH1 0xFF AND PUSH3 0xDA8 JUMPI PUSH1 0x40 MLOAD PUSH4 0x8DFC202B PUSH1 0xE0 SHL DUP2 MSTORE PUSH1 0x4 ADD PUSH1 0x40 MLOAD DUP1 SWAP2 SUB SWAP1 REVERT JUMPDEST PUSH1 0x40 MLOAD DUP1 PUSH2 0x100 ADD PUSH1 0x40 MSTORE DUP1 PUSH1 0x0 PUSH1 0x1 PUSH1 0x1 PUSH1 0xA0 SHL SUB AND DUP2 MSTORE PUSH1 0x20 ADD PUSH1 0x60 DUP2 MSTORE PUSH1 0x20 ADD PUSH1 0x0 PUSH1 0x1 PUSH1 0x1 PUSH1 0xA0 SHL SUB AND DUP2 MSTORE PUSH1 0x20 ADD PUSH1 0x0 DUP2 MSTORE PUSH1 0x20 ADD PUSH1 0x0 ISZERO ISZERO DUP2 MSTORE PUSH1 0x20 ADD PUSH1 0x0 DUP2 MSTORE PUSH1 0x20 ADD PUSH1 0x0 DUP2 MSTORE PUSH1 0x20 ADD PUSH1 0x0 DUP2 MSTORE POP SWAP1 JUMP JUMPDEST PUSH2 0x3D00 DUP1 PUSH3 0x2B4A DUP4 CODECOPY ADD SWAP1 JUMP JUMPDEST DUP1 CALLDATALOAD PUSH1 0x1 PUSH1 0x1 PUSH1 0xA0 SHL SUB DUP2 AND DUP2 EQ PUSH3 0x24B7 JUMPI PUSH1 0x0 DUP1 REVERT JUMPDEST SWAP2 SWAP1 POP JUMP JUMPDEST PUSH1 0x0 PUSH1 0x20 DUP3 DUP5 SUB SLT ISZERO PUSH3 0x24CF JUMPI PUSH1 0x0 DUP1 REVERT JUMPDEST PUSH3 0x24DA DUP3 PUSH3 0x249F JUMP JUMPDEST SWAP4 SWAP3 POP POP POP JUMP JUMPDEST PUSH1 0x0 DUP2 MLOAD DUP1 DUP5 MSTORE PUSH1 0x0 JUMPDEST DUP2 DUP2 LT ISZERO PUSH3 0x2509 JUMPI PUSH1 0x20 DUP2 DUP6 ADD DUP2 ADD MLOAD DUP7 DUP4 ADD DUP3 ADD MSTORE ADD PUSH3 0x24EB JUMP JUMPDEST POP PUSH1 0x0 PUSH1 0x20 DUP3 DUP7 ADD ADD MSTORE PUSH1 0x20 PUSH1 0x1F NOT PUSH1 0x1F DUP4 ADD AND DUP6 ADD ADD SWAP2 POP POP SWAP3 SWAP2 POP POP JUMP JUMPDEST PUSH1 0x0 PUSH2 0x100 PUSH1 0x1 DUP1 PUSH1 0xA0 SHL SUB DUP1 DUP5 MLOAD AND DUP6 MSTORE PUSH1 0x20 DUP5 ADD MLOAD DUP3 PUSH1 0x20 DUP8 ADD MSTORE PUSH3 0x2554 DUP4 DUP8 ADD DUP3 PUSH3 0x24E1 JUMP JUMPDEST SWAP3 POP POP DUP1 PUSH1 0x40 DUP6 ADD MLOAD AND PUSH1 0x40 DUP7 ADD MSTORE POP PUSH1 0x60 DUP4 ADD MLOAD PUSH1 0x60 DUP6 ADD MSTORE PUSH1 0x80 DUP4 ADD MLOAD ISZERO ISZERO PUSH1 0x80 DUP6 ADD MSTORE PUSH1 0xA0 DUP4 ADD MLOAD PUSH1 0xA0 DUP6 ADD MSTORE PUSH1 0xC0 DUP4 ADD MLOAD PUSH1 0xC0 DUP6 ADD MSTORE PUSH1 0xE0 DUP4 ADD MLOAD PUSH1 0xE0 DUP6 ADD MSTORE DUP1 SWAP2 POP POP SWAP3 SWAP2 POP POP JUMP JUMPDEST PUSH1 0x0 PUSH1 0x20 DUP1 DUP4 ADD DUP2 DUP5 MSTORE DUP1 DUP6 MLOAD DUP1 DUP4 MSTORE PUSH1 0x40 DUP7 ADD SWAP2 POP PUSH1 0x40 DUP2 PUSH1 0x5 SHL DUP8 ADD ADD SWAP3 POP DUP4 DUP8 ADD PUSH1 0x0 JUMPDEST DUP3 DUP2 LT ISZERO PUSH3 0x25FB JUMPI PUSH1 0x3F NOT DUP9 DUP7 SUB ADD DUP5 MSTORE PUSH3 0x25E8 DUP6 DUP4 MLOAD PUSH3 0x2529 JUMP JUMPDEST SWAP5 POP SWAP3 DUP6 ADD SWAP3 SWAP1 DUP6 ADD SWAP1 PUSH1 0x1 ADD PUSH3 0x25C9 JUMP JUMPDEST POP SWAP3 SWAP8 SWAP7 POP POP POP POP POP POP POP JUMP JUMPDEST PUSH4 0x4E487B71 PUSH1 0xE0 SHL PUSH1 0x0 MSTORE PUSH1 0x41 PUSH1 0x4 MSTORE PUSH1 0x24 PUSH1 0x0 REVERT JUMPDEST PUSH1 0x0 DUP3 PUSH1 0x1F DUP4 ADD SLT PUSH3 0x2630 JUMPI PUSH1 0x0 DUP1 REVERT JUMPDEST DUP2 CALLDATALOAD PUSH8 0xFFFFFFFFFFFFFFFF DUP1 DUP3 GT ISZERO PUSH3 0x264E JUMPI PUSH3 0x264E PUSH3 0x2608 JUMP JUMPDEST PUSH1 0x40 MLOAD PUSH1 0x1F DUP4 ADD PUSH1 0x1F NOT SWAP1 DUP2 AND PUSH1 0x3F ADD AND DUP2 ADD SWAP1 DUP3 DUP3 GT DUP2 DUP4 LT OR ISZERO PUSH3 0x2679 JUMPI PUSH3 0x2679 PUSH3 0x2608 JUMP JUMPDEST DUP2 PUSH1 0x40 MSTORE DUP4 DUP2 MSTORE DUP7 PUSH1 0x20 DUP6 DUP9 ADD ADD GT ISZERO PUSH3 0x2693 JUMPI PUSH1 0x0 DUP1 REVERT JUMPDEST DUP4 PUSH1 0x20 DUP8 ADD PUSH1 0x20 DUP4 ADD CALLDATACOPY PUSH1 0x0 PUSH1 0x20 DUP6 DUP4 ADD ADD MSTORE DUP1 SWAP5 POP POP POP POP POP SWAP3 SWAP2 POP POP JUMP JUMPDEST PUSH1 0x0 DUP1 PUSH1 0x40 DUP4 DUP6 SUB SLT ISZERO PUSH3 0x26C7 JUMPI PUSH1 0x0 DUP1 REVERT JUMPDEST DUP3 CALLDATALOAD PUSH8 0xFFFFFFFFFFFFFFFF DUP1 DUP3 GT ISZERO PUSH3 0x26E0 JUMPI PUSH1 0x0 DUP1 REVERT JUMPDEST PUSH3 0x26EE DUP7 DUP4 DUP8 ADD PUSH3 0x261E JUMP JUMPDEST SWAP4 POP PUSH1 0x20 DUP6 ADD CALLDATALOAD SWAP2 POP DUP1 DUP3 GT ISZERO PUSH3 0x2705 JUMPI PUSH1 0x0 DUP1 REVERT JUMPDEST POP PUSH3 0x2714 DUP6 DUP3 DUP7 ADD PUSH3 0x261E JUMP JUMPDEST SWAP2 POP POP SWAP3 POP SWAP3 SWAP1 POP JUMP JUMPDEST PUSH1 0x0 DUP2 MLOAD DUP1 DUP5 MSTORE PUSH1 0x20 DUP1 DUP6 ADD SWAP5 POP DUP1 DUP5 ADD PUSH1 0x0 JUMPDEST DUP4 DUP2 LT ISZERO PUSH3 0x2759 JUMPI DUP2 MLOAD PUSH1 0x1 PUSH1 0x1 PUSH1 0xA0 SHL SUB AND DUP8 MSTORE SWAP6 DUP3 ADD SWAP6 SWAP1 DUP3 ADD SWAP1 PUSH1 0x1 ADD PUSH3 0x2732 JUMP JUMPDEST POP SWAP5 SWAP6 SWAP5 POP POP POP POP POP JUMP JUMPDEST PUSH1 0x20 DUP2 MSTORE PUSH1 0x0 PUSH3 0x24DA PUSH1 0x20 DUP4 ADD DUP5 PUSH3 0x271E JUMP JUMPDEST PUSH1 0x0 PUSH1 0x20 DUP3 DUP5 SUB SLT ISZERO PUSH3 0x278C JUMPI PUSH1 0x0 DUP1 REVERT JUMPDEST DUP2 CALLDATALOAD PUSH8 0xFFFFFFFFFFFFFFFF DUP2 GT ISZERO PUSH3 0x27A4 JUMPI PUSH1 0x0 DUP1 REVERT JUMPDEST PUSH3 0x27B2 DUP5 DUP3 DUP6 ADD PUSH3 0x261E JUMP JUMPDEST SWAP5 SWAP4 POP POP POP POP JUMP JUMPDEST PUSH1 0x0 PUSH1 0x20 DUP3 DUP5 SUB SLT ISZERO PUSH3 0x27CD JUMPI PUSH1 0x0 DUP1 REVERT JUMPDEST POP CALLDATALOAD SWAP2 SWAP1 POP JUMP JUMPDEST PUSH1 0x1 PUSH1 0x1 PUSH1 0xA0 SHL SUB DUP10 DUP2 AND DUP3 MSTORE PUSH2 0x100 PUSH1 0x20 DUP4 ADD DUP2 SWAP1 MSTORE PUSH1 0x0 SWAP2 PUSH3 0x27FC DUP5 DUP4 ADD DUP13 PUSH3 0x24E1 JUMP JUMPDEST SWAP10 AND PUSH1 0x40 DUP5 ADD MSTORE POP POP PUSH1 0x60 DUP2 ADD SWAP6 SWAP1 SWAP6 MSTORE SWAP3 ISZERO ISZERO PUSH1 0x80 DUP6 ADD MSTORE PUSH1 0xA0 DUP5 ADD SWAP2 SWAP1 SWAP2 MSTORE PUSH1 0xC0 DUP4 ADD MSTORE PUSH1 0xE0 SWAP1 SWAP2 ADD MSTORE SWAP3 SWAP2 POP POP JUMP JUMPDEST PUSH1 0x0 DUP1 PUSH1 0x40 DUP4 DUP6 SUB SLT ISZERO PUSH3 0x2842 JUMPI PUSH1 0x0 DUP1 REVERT JUMPDEST POP POP DUP1 CALLDATALOAD SWAP3 PUSH1 0x20 SWAP1 SWAP2 ADD CALLDATALOAD SWAP2 POP JUMP JUMPDEST PUSH1 0x40 DUP2 MSTORE PUSH1 0x0 PUSH3 0x2866 PUSH1 0x40 DUP4 ADD DUP6 PUSH3 0x271E JUMP JUMPDEST SWAP1 POP DUP3 PUSH1 0x20 DUP4 ADD MSTORE SWAP4 SWAP3 POP POP POP JUMP JUMPDEST PUSH1 0x20 DUP2 MSTORE PUSH1 0x0 PUSH3 0x24DA PUSH1 0x20 DUP4 ADD DUP5 PUSH3 0x2529 JUMP JUMPDEST PUSH1 0x0 DUP1 PUSH1 0x40 DUP4 DUP6 SUB SLT ISZERO PUSH3 0x289E JUMPI PUSH1 0x0 DUP1 REVERT JUMPDEST PUSH3 0x28A9 DUP4 PUSH3 0x249F JUMP JUMPDEST SWAP2 POP PUSH3 0x28B9 PUSH1 0x20 DUP5 ADD PUSH3 0x249F JUMP JUMPDEST SWAP1 POP SWAP3 POP SWAP3 SWAP1 POP JUMP JUMPDEST PUSH4 0x4E487B71 PUSH1 0xE0 SHL PUSH1 0x0 MSTORE PUSH1 0x32 PUSH1 0x4 MSTORE PUSH1 0x24 PUSH1 0x0 REVERT JUMPDEST PUSH1 0x1 DUP2 DUP2 SHR SWAP1 DUP3 AND DUP1 PUSH3 0x28ED JUMPI PUSH1 0x7F DUP3 AND SWAP2 POP JUMPDEST PUSH1 0x20 DUP3 LT DUP2 SUB PUSH3 0xE2A JUMPI PUSH4 0x4E487B71 PUSH1 0xE0 SHL PUSH1 0x0 MSTORE PUSH1 0x22 PUSH1 0x4 MSTORE PUSH1 0x24 PUSH1 0x0 REVERT JUMPDEST PUSH4 0x4E487B71 PUSH1 0xE0 SHL PUSH1 0x0 MSTORE PUSH1 0x11 PUSH1 0x4 MSTORE PUSH1 0x24 PUSH1 0x0 REVERT JUMPDEST PUSH1 0x0 PUSH1 0x1 DUP3 ADD PUSH3 0x2939 JUMPI PUSH3 0x2939 PUSH3 0x290E JUMP JUMPDEST POP PUSH1 0x1 ADD SWAP1 JUMP JUMPDEST PUSH1 0x60 DUP2 MSTORE PUSH1 0x0 PUSH3 0x2955 PUSH1 0x60 DUP4 ADD DUP7 PUSH3 0x24E1 JUMP JUMPDEST PUSH1 0x1 PUSH1 0x1 PUSH1 0xA0 SHL SUB DUP6 AND PUSH1 0x20 DUP5 ADD MSTORE DUP3 DUP2 SUB PUSH1 0x40 DUP5 ADD MSTORE PUSH3 0x2978 DUP2 DUP6 PUSH3 0x24E1 JUMP JUMPDEST SWAP7 SWAP6 POP POP POP POP POP POP JUMP JUMPDEST PUSH1 0x1F DUP3 GT ISZERO PUSH3 0x29D0 JUMPI PUSH1 0x0 DUP2 DUP2 MSTORE PUSH1 0x20 DUP2 KECCAK256 PUSH1 0x1F DUP6 ADD PUSH1 0x5 SHR DUP2 ADD PUSH1 0x20 DUP7 LT ISZERO PUSH3 0x29AB JUMPI POP DUP1 JUMPDEST PUSH1 0x1F DUP6 ADD PUSH1 0x5 SHR DUP3 ADD SWAP2 POP JUMPDEST DUP2 DUP2 LT ISZERO PUSH3 0x29CC JUMPI DUP3 DUP2 SSTORE PUSH1 0x1 ADD PUSH3 0x29B7 JUMP JUMPDEST POP POP POP JUMPDEST POP POP POP JUMP JUMPDEST DUP2 MLOAD PUSH8 0xFFFFFFFFFFFFFFFF DUP2 GT ISZERO PUSH3 0x29F2 JUMPI PUSH3 0x29F2 PUSH3 0x2608 JUMP JUMPDEST PUSH3 0x2A0A DUP2 PUSH3 0x2A03 DUP5 SLOAD PUSH3 0x28D8 JUMP JUMPDEST DUP5 PUSH3 0x2982 JUMP JUMPDEST PUSH1 0x20 DUP1 PUSH1 0x1F DUP4 GT PUSH1 0x1 DUP2 EQ PUSH3 0x2A42 JUMPI PUSH1 0x0 DUP5 ISZERO PUSH3 0x2A29 JUMPI POP DUP6 DUP4 ADD MLOAD JUMPDEST PUSH1 0x0 NOT PUSH1 0x3 DUP7 SWAP1 SHL SHR NOT AND PUSH1 0x1 DUP6 SWAP1 SHL OR DUP6 SSTORE PUSH3 0x29CC JUMP JUMPDEST PUSH1 0x0 DUP6 DUP2 MSTORE PUSH1 0x20 DUP2 KECCAK256 PUSH1 0x1F NOT DUP7 AND SWAP2 JUMPDEST DUP3 DUP2 LT ISZERO PUSH3 0x2A73 JUMPI DUP9 DUP7 ADD MLOAD DUP3 SSTORE SWAP5 DUP5 ADD SWAP5 PUSH1 0x1 SWAP1 SWAP2 ADD SWAP1 DUP5 ADD PUSH3 0x2A52 JUMP JUMPDEST POP DUP6 DUP3 LT ISZERO PUSH3 0x2A92 JUMPI DUP8 DUP6 ADD MLOAD PUSH1 0x0 NOT PUSH1 0x3 DUP9 SWAP1 SHL PUSH1 0xF8 AND SHR NOT AND DUP2 SSTORE JUMPDEST POP POP POP POP POP PUSH1 0x1 SWAP1 DUP2 SHL ADD SWAP1 SSTORE POP JUMP JUMPDEST DUP2 DUP2 SUB DUP2 DUP2 GT ISZERO PUSH3 0xD81 JUMPI PUSH3 0xD81 PUSH3 0x290E JUMP JUMPDEST PUSH1 0x40 DUP2 MSTORE PUSH1 0x0 PUSH3 0x2866 PUSH1 0x40 DUP4 ADD DUP6 PUSH3 0x24E1 JUMP JUMPDEST DUP1 DUP3 ADD DUP1 DUP3 GT ISZERO PUSH3 0xD81 JUMPI PUSH3 0xD81 PUSH3 0x290E JUMP JUMPDEST PUSH1 0x20 DUP1 DUP3 MSTORE PUSH1 0x15 SWAP1 DUP3 ADD MSTORE PUSH21 0x496E76616C69642067726F75702061646472657373 PUSH1 0x58 SHL PUSH1 0x40 DUP3 ADD MSTORE PUSH1 0x60 ADD SWAP1 JUMP JUMPDEST PUSH1 0x20 DUP1 DUP3 MSTORE PUSH1 0x1B SWAP1 DUP3 ADD MSTORE PUSH32 0x47726F7570206E6F7420666F756E64206F7220696E6163746976650000000000 PUSH1 0x40 DUP3 ADD MSTORE PUSH1 0x60 ADD SWAP1 JUMP INVALID PUSH1 0xA0 PUSH1 0x40 MSTORE CALLVALUE DUP1 ISZERO PUSH3 0x11 JUMPI PUSH1 0x0 DUP1 REVERT JUMPDEST POP PUSH1 0x40 MLOAD PUSH3 0x3D00 CODESIZE SUB DUP1 PUSH3 0x3D00 DUP4 CODECOPY DUP2 ADD PUSH1 0x40 DUP2 SWAP1 MSTORE PUSH3 0x34 SWAP2 PUSH3 0x4C4 JUMP JUMPDEST PUSH1 0x1 PUSH1 0x0 SSTORE DUP2 PUSH1 0x1 PUSH1 0x1 PUSH1 0xA0 SHL SUB DUP2 AND PUSH3 0x6A JUMPI PUSH1 0x40 MLOAD PUSH4 0x1E4FBDF7 PUSH1 0xE0 SHL DUP2 MSTORE PUSH1 0x0 PUSH1 0x4 DUP3 ADD MSTORE PUSH1 0x24 ADD JUMPDEST PUSH1 0x40 MLOAD DUP1 SWAP2 SUB SWAP1 REVERT JUMPDEST PUSH3 0x75 DUP2 PUSH3 0x14E JUMP JUMPDEST POP PUSH1 0x0 DUP4 MLOAD GT PUSH3 0xC9 JUMPI PUSH1 0x40 MLOAD PUSH3 0x461BCD PUSH1 0xE5 SHL DUP2 MSTORE PUSH1 0x20 PUSH1 0x4 DUP3 ADD MSTORE PUSH1 0x13 PUSH1 0x24 DUP3 ADD MSTORE PUSH32 0x47726F7570206E616D6520726571756972656400000000000000000000000000 PUSH1 0x44 DUP3 ADD MSTORE PUSH1 0x64 ADD PUSH3 0x61 JUMP JUMPDEST PUSH1 0x0 DUP2 MLOAD GT PUSH3 0x11C JUMPI PUSH1 0x40 MLOAD PUSH3 0x461BCD PUSH1 0xE5 SHL DUP2 MSTORE PUSH1 0x20 PUSH1 0x4 DUP3 ADD MSTORE PUSH1 0x19 PUSH1 0x24 DUP3 ADD MSTORE PUSH32 0x43726561746F72206E69636B6E616D6520726571756972656400000000000000 PUSH1 0x44 DUP3 ADD MSTORE PUSH1 0x64 ADD PUSH3 0x61 JUMP JUMPDEST PUSH1 0x2 PUSH3 0x12A DUP5 DUP3 PUSH3 0x5DE JUMP JUMPDEST POP PUSH1 0x1 PUSH1 0x3 DUP2 SWAP1 SSTORE PUSH1 0xB SSTORE CALLER PUSH1 0x80 MSTORE PUSH3 0x145 DUP3 DUP3 PUSH3 0x1A0 JUMP JUMPDEST POP POP POP PUSH3 0x6E7 JUMP JUMPDEST PUSH1 0x1 DUP1 SLOAD PUSH1 0x1 PUSH1 0x1 PUSH1 0xA0 SHL SUB DUP4 DUP2 AND PUSH1 0x1 PUSH1 0x1 PUSH1 0xA0 SHL SUB NOT DUP4 AND DUP2 OR SWAP1 SWAP4 SSTORE PUSH1 0x40 MLOAD SWAP2 AND SWAP2 SWAP1 DUP3 SWAP1 PUSH32 0x8BE0079C531659141344CD1FD0A4F28419497F9722A3DAAFE3B4186F6B6457E0 SWAP1 PUSH1 0x0 SWAP1 LOG3 POP POP JUMP JUMPDEST PUSH1 0x1 PUSH1 0x1 PUSH1 0xA0 SHL SUB DUP3 AND PUSH3 0x1EA JUMPI PUSH1 0x40 MLOAD PUSH3 0x461BCD PUSH1 0xE5 SHL DUP2 MSTORE PUSH1 0x20 PUSH1 0x4 DUP3 ADD MSTORE PUSH1 0xF PUSH1 0x24 DUP3 ADD MSTORE PUSH15 0x496E76616C69642061646472657373 PUSH1 0x88 SHL PUSH1 0x44 DUP3 ADD MSTORE PUSH1 0x64 ADD PUSH3 0x61 JUMP JUMPDEST PUSH1 0x1 PUSH1 0x1 PUSH1 0xA0 SHL SUB DUP3 AND PUSH1 0x0 SWAP1 DUP2 MSTORE PUSH1 0x4 PUSH1 0x20 DUP2 SWAP1 MSTORE PUSH1 0x40 SWAP1 SWAP2 KECCAK256 ADD SLOAD PUSH1 0xFF AND ISZERO PUSH3 0x259 JUMPI PUSH1 0x40 MLOAD PUSH3 0x461BCD PUSH1 0xE5 SHL DUP2 MSTORE PUSH1 0x20 PUSH1 0x4 DUP3 ADD MSTORE PUSH1 0x15 PUSH1 0x24 DUP3 ADD MSTORE PUSH32 0x4D656D62657220616C7265616479206578697374730000000000000000000000 PUSH1 0x44 DUP3 ADD MSTORE PUSH1 0x64 ADD PUSH3 0x61 JUMP JUMPDEST PUSH1 0x0 DUP2 MLOAD GT DUP1 ISZERO PUSH3 0x26D JUMPI POP PUSH1 0x20 DUP2 MLOAD GT ISZERO JUMPDEST PUSH3 0x2BB JUMPI PUSH1 0x40 MLOAD PUSH3 0x461BCD PUSH1 0xE5 SHL DUP2 MSTORE PUSH1 0x20 PUSH1 0x4 DUP3 ADD MSTORE PUSH1 0x17 PUSH1 0x24 DUP3 ADD MSTORE PUSH32 0x496E76616C6964206E69636B6E616D65206C656E677468000000000000000000 PUSH1 0x44 DUP3 ADD MSTORE PUSH1 0x64 ADD PUSH3 0x61 JUMP JUMPDEST PUSH1 0x40 DUP1 MLOAD PUSH1 0xC0 DUP2 ADD DUP3 MSTORE PUSH1 0x1 PUSH1 0x1 PUSH1 0xA0 SHL SUB DUP5 DUP2 AND DUP1 DUP4 MSTORE PUSH1 0x20 DUP1 DUP5 ADD DUP7 DUP2 MSTORE PUSH1 0x0 DUP6 DUP8 ADD DUP2 SWAP1 MSTORE PUSH1 0x60 DUP7 ADD DUP2 SWAP1 MSTORE PUSH1 0x1 PUSH1 0x80 DUP8 ADD DUP2 SWAP1 MSTORE TIMESTAMP PUSH1 0xA0 DUP9 ADD MSTORE SWAP4 DUP2 MSTORE PUSH1 0x4 SWAP1 SWAP3 MSTORE SWAP5 SWAP1 KECCAK256 DUP4 MLOAD DUP2 SLOAD PUSH1 0x1 PUSH1 0x1 PUSH1 0xA0 SHL SUB NOT AND SWAP4 AND SWAP3 SWAP1 SWAP3 OR DUP3 SSTORE SWAP3 MLOAD SWAP2 SWAP3 SWAP1 SWAP2 SWAP1 DUP3 ADD SWAP1 PUSH3 0x330 SWAP1 DUP3 PUSH3 0x5DE JUMP JUMPDEST POP PUSH1 0x40 DUP3 DUP2 ADD MLOAD PUSH1 0x2 DUP4 ADD SSTORE PUSH1 0x60 DUP4 ADD MLOAD PUSH1 0x3 DUP4 ADD SSTORE PUSH1 0x80 DUP4 ADD MLOAD PUSH1 0x4 DUP4 ADD DUP1 SLOAD PUSH1 0xFF NOT AND SWAP2 ISZERO ISZERO SWAP2 SWAP1 SWAP2 OR SWAP1 SSTORE PUSH1 0xA0 SWAP1 SWAP3 ADD MLOAD PUSH1 0x5 SWAP1 SWAP2 ADD SSTORE PUSH1 0x8 DUP1 SLOAD PUSH1 0x1 DUP2 ADD DUP3 SSTORE PUSH1 0x0 SWAP2 SWAP1 SWAP2 MSTORE PUSH32 0xF3F7A9FE364FAAB93B216DA50A3214154F22A0A2B415B23A84C8169E8B636EE3 ADD DUP1 SLOAD PUSH1 0x1 PUSH1 0x1 PUSH1 0xA0 SHL SUB NOT AND PUSH1 0x1 PUSH1 0x1 PUSH1 0xA0 SHL SUB DUP6 AND SWAP1 DUP2 OR SWAP1 SWAP2 SSTORE SWAP1 MLOAD PUSH32 0xAC4F9610B174640B0A902CE555FAA384CC9C9D291750F76E476F26F97BD079B4 SWAP1 PUSH3 0x3EB SWAP1 DUP5 SWAP1 TIMESTAMP SWAP1 PUSH3 0x6AA JUMP JUMPDEST PUSH1 0x40 MLOAD DUP1 SWAP2 SUB SWAP1 LOG2 POP POP JUMP JUMPDEST PUSH4 0x4E487B71 PUSH1 0xE0 SHL PUSH1 0x0 MSTORE PUSH1 0x41 PUSH1 0x4 MSTORE PUSH1 0x24 PUSH1 0x0 REVERT JUMPDEST PUSH1 0x0 JUMPDEST DUP4 DUP2 LT ISZERO PUSH3 0x42A JUMPI DUP2 DUP2 ADD MLOAD DUP4 DUP3 ADD MSTORE PUSH1 0x20 ADD PUSH3 0x410 JUMP JUMPDEST POP POP PUSH1 0x0 SWAP2 ADD MSTORE JUMP JUMPDEST PUSH1 0x0 DUP3 PUSH1 0x1F DUP4 ADD SLT PUSH3 0x445 JUMPI PUSH1 0x0 DUP1 REVERT JUMPDEST DUP2 MLOAD PUSH1 0x1 PUSH1 0x1 PUSH1 0x40 SHL SUB DUP1 DUP3 GT ISZERO PUSH3 0x462 JUMPI PUSH3 0x462 PUSH3 0x3F7 JUMP JUMPDEST PUSH1 0x40 MLOAD PUSH1 0x1F DUP4 ADD PUSH1 0x1F NOT SWAP1 DUP2 AND PUSH1 0x3F ADD AND DUP2 ADD SWAP1 DUP3 DUP3 GT DUP2 DUP4 LT OR ISZERO PUSH3 0x48D JUMPI PUSH3 0x48D PUSH3 0x3F7 JUMP JUMPDEST DUP2 PUSH1 0x40 MSTORE DUP4 DUP2 MSTORE DUP7 PUSH1 0x20 DUP6 DUP9 ADD ADD GT ISZERO PUSH3 0x4A7 JUMPI PUSH1 0x0 DUP1 REVERT JUMPDEST PUSH3 0x4BA DUP5 PUSH1 0x20 DUP4 ADD PUSH1 0x20 DUP10 ADD PUSH3 0x40D JUMP JUMPDEST SWAP7 SWAP6 POP POP POP POP POP POP JUMP JUMPDEST PUSH1 0x0 DUP1 PUSH1 0x0 PUSH1 0x60 DUP5 DUP7 SUB SLT ISZERO PUSH3 0x4DA JUMPI PUSH1 0x0 DUP1 REVERT JUMPDEST DUP4 MLOAD PUSH1 0x1 PUSH1 0x1 PUSH1 0x40 SHL SUB DUP1 DUP3 GT ISZERO PUSH3 0x4F2 JUMPI PUSH1 0x0 DUP1 REVERT JUMPDEST PUSH3 0x500 DUP8 DUP4 DUP9 ADD PUSH3 0x433 JUMP JUMPDEST PUSH1 0x20 DUP8 ADD MLOAD SWAP1 SWAP6 POP SWAP2 POP PUSH1 0x1 PUSH1 0x1 PUSH1 0xA0 SHL SUB DUP3 AND DUP3 EQ PUSH3 0x520 JUMPI PUSH1 0x0 DUP1 REVERT JUMPDEST PUSH1 0x40 DUP7 ADD MLOAD SWAP2 SWAP4 POP DUP1 DUP3 GT ISZERO PUSH3 0x536 JUMPI PUSH1 0x0 DUP1 REVERT JUMPDEST POP PUSH3 0x545 DUP7 DUP3 DUP8 ADD PUSH3 0x433 JUMP JUMPDEST SWAP2 POP POP SWAP3 POP SWAP3 POP SWAP3 JUMP JUMPDEST PUSH1 0x1 DUP2 DUP2 SHR SWAP1 DUP3 AND DUP1 PUSH3 0x564 JUMPI PUSH1 0x7F DUP3 AND SWAP2 POP JUMPDEST PUSH1 0x20 DUP3 LT DUP2 SUB PUSH3 0x585 JUMPI PUSH4 0x4E487B71 PUSH1 0xE0 SHL PUSH1 0x0 MSTORE PUSH1 0x22 PUSH1 0x4 MSTORE PUSH1 0x24 PUSH1 0x0 REVERT JUMPDEST POP SWAP2 SWAP1 POP JUMP JUMPDEST PUSH1 0x1F DUP3 GT ISZERO PUSH3 0x5D9 JUMPI PUSH1 0x0 DUP2 DUP2 MSTORE PUSH1 0x20 DUP2 KECCAK256 PUSH1 0x1F DUP6 ADD PUSH1 0x5 SHR DUP2 ADD PUSH1 0x20 DUP7 LT ISZERO PUSH3 0x5B4 JUMPI POP DUP1 JUMPDEST PUSH1 0x1F DUP6 ADD PUSH1 0x5 SHR DUP3 ADD SWAP2 POP JUMPDEST DUP2 DUP2 LT ISZERO PUSH3 0x5D5 JUMPI DUP3 DUP2 SSTORE PUSH1 0x1 ADD PUSH3 0x5C0 JUMP JUMPDEST POP POP POP JUMPDEST POP POP POP JUMP JUMPDEST DUP2 MLOAD PUSH1 0x1 PUSH1 0x1 PUSH1 0x40 SHL SUB DUP2 GT ISZERO PUSH3 0x5FA JUMPI PUSH3 0x5FA PUSH3 0x3F7 JUMP JUMPDEST PUSH3 0x612 DUP2 PUSH3 0x60B DUP5 SLOAD PUSH3 0x54F JUMP JUMPDEST DUP5 PUSH3 0x58B JUMP JUMPDEST PUSH1 0x20 DUP1 PUSH1 0x1F DUP4 GT PUSH1 0x1 DUP2 EQ PUSH3 0x64A JUMPI PUSH1 0x0 DUP5 ISZERO PUSH3 0x631 JUMPI POP DUP6 DUP4 ADD MLOAD JUMPDEST PUSH1 0x0 NOT PUSH1 0x3 DUP7 SWAP1 SHL SHR NOT AND PUSH1 0x1 DUP6 SWAP1 SHL OR DUP6 SSTORE PUSH3 0x5D5 JUMP JUMPDEST PUSH1 0x0 DUP6 DUP2 MSTORE PUSH1 0x20 DUP2 KECCAK256 PUSH1 0x1F NOT DUP7 AND SWAP2 JUMPDEST DUP3 DUP2 LT ISZERO PUSH3 0x67B JUMPI DUP9 DUP7 ADD MLOAD DUP3 SSTORE SWAP5 DUP5 ADD SWAP5 PUSH1 0x1 SWAP1 SWAP2 ADD SWAP1 DUP5 ADD PUSH3 0x65A JUMP JUMPDEST POP DUP6 DUP3 LT ISZERO PUSH3 0x69A JUMPI DUP8 DUP6 ADD MLOAD PUSH1 0x0 NOT PUSH1 0x3 DUP9 SWAP1 SHL PUSH1 0xF8 AND SHR NOT AND DUP2 SSTORE JUMPDEST POP POP POP POP POP PUSH1 0x1 SWAP1 DUP2 SHL ADD SWAP1 SSTORE POP JUMP JUMPDEST PUSH1 0x40 DUP2 MSTORE PUSH1 0x0 DUP4 MLOAD DUP1 PUSH1 0x40 DUP5 ADD MSTORE PUSH3 0x6CB DUP2 PUSH1 0x60 DUP6 ADD PUSH1 0x20 DUP9 ADD PUSH3 0x40D JUMP JUMPDEST PUSH1 0x20 DUP4 ADD SWAP4 SWAP1 SWAP4 MSTORE POP PUSH1 0x1F SWAP2 SWAP1 SWAP2 ADD PUSH1 0x1F NOT AND ADD PUSH1 0x60 ADD SWAP2 SWAP1 POP JUMP JUMPDEST PUSH1 0x80 MLOAD PUSH2 0x35F6 PUSH3 0x70A PUSH1 0x0 CODECOPY PUSH1 0x0 DUP2 DUP2 PUSH2 0x70E ADD MSTORE PUSH2 0x1E90 ADD MSTORE PUSH2 0x35F6 PUSH1 0x0 RETURN INVALID PUSH1 0x80 PUSH1 0x40 MSTORE PUSH1 0x4 CALLDATASIZE LT PUSH2 0x1DC JUMPI PUSH1 0x0 CALLDATALOAD PUSH1 0xE0 SHR DUP1 PUSH4 0x8BD1E678 GT PUSH2 0x102 JUMPI DUP1 PUSH4 0xC23F001F GT PUSH2 0x95 JUMPI DUP1 PUSH4 0xEB48571F GT PUSH2 0x64 JUMPI DUP1 PUSH4 0xEB48571F EQ PUSH2 0x75A JUMPI DUP1 PUSH4 0xEBF301E8 EQ PUSH2 0x77A JUMPI DUP1 PUSH4 0xF2FDE38B EQ PUSH2 0x79A JUMPI DUP1 PUSH4 0xF8B2CB4F EQ PUSH2 0x7BA JUMPI PUSH1 0x0 DUP1 REVERT JUMPDEST DUP1 PUSH4 0xC23F001F EQ PUSH2 0x6C4 JUMPI DUP1 PUSH4 0xC45A0155 EQ PUSH2 0x6FC JUMPI DUP1 PUSH4 0xDB2E21BC EQ PUSH2 0x730 JUMPI DUP1 PUSH4 0xEA0E35B1 EQ PUSH2 0x745 JUMPI PUSH1 0x0 DUP1 REVERT JUMPDEST DUP1 PUSH4 0xAF4AFE0A GT PUSH2 0xD1 JUMPI DUP1 PUSH4 0xAF4AFE0A EQ PUSH2 0x63C JUMPI DUP1 PUSH4 0xB307FC6D EQ PUSH2 0x66F JUMPI DUP1 PUSH4 0xB8BEE300 EQ PUSH2 0x68F JUMPI DUP1 PUSH4 0xC127C247 EQ PUSH2 0x6A4 JUMPI PUSH1 0x0 DUP1 REVERT JUMPDEST DUP1 PUSH4 0x8BD1E678 EQ PUSH2 0x5A9 JUMPI DUP1 PUSH4 0x8DA5CB5B EQ PUSH2 0x5D7 JUMPI DUP1 PUSH4 0xAB26C7C6 EQ PUSH2 0x609 JUMPI DUP1 PUSH4 0xADF298C8 EQ PUSH2 0x629 JUMPI PUSH1 0x0 DUP1 REVERT JUMPDEST DUP1 PUSH4 0x5C975ABB GT PUSH2 0x17A JUMPI DUP1 PUSH4 0x715018A6 GT PUSH2 0x149 JUMPI DUP1 PUSH4 0x715018A6 EQ PUSH2 0x517 JUMPI DUP1 PUSH4 0x735E5DB6 EQ PUSH2 0x52C JUMPI DUP1 PUSH4 0x783CEC80 EQ PUSH2 0x559 JUMPI DUP1 PUSH4 0x7E661BC8 EQ PUSH2 0x57B JUMPI PUSH1 0x0 DUP1 REVERT JUMPDEST DUP1 PUSH4 0x5C975ABB EQ PUSH2 0x44F JUMPI DUP1 PUSH4 0x5F1231EA EQ PUSH2 0x479 JUMPI DUP1 PUSH4 0x62CC0F39 EQ PUSH2 0x4A6 JUMPI DUP1 PUSH4 0x687B6393 EQ PUSH2 0x4C6 JUMPI PUSH1 0x0 DUP1 REVERT JUMPDEST DUP1 PUSH4 0xB1CA49A GT PUSH2 0x1B6 JUMPI DUP1 PUSH4 0xB1CA49A EQ PUSH2 0x37A JUMPI DUP1 PUSH4 0x481306EB EQ PUSH2 0x39A JUMPI DUP1 PUSH4 0x4C582380 EQ PUSH2 0x3CF JUMPI DUP1 PUSH4 0x5768EC68 EQ PUSH2 0x43A JUMPI PUSH1 0x0 DUP1 REVERT JUMPDEST DUP1 PUSH4 0x7FD5CE8 EQ PUSH2 0x29F JUMPI DUP1 PUSH4 0x8AE4B0C EQ PUSH2 0x2B6 JUMPI DUP1 PUSH4 0x8DF7DC8 EQ PUSH2 0x2F1 JUMPI PUSH1 0x0 DUP1 REVERT JUMPDEST CALLDATASIZE PUSH2 0x29A JUMPI CALLER PUSH1 0x0 SWAP1 DUP2 MSTORE PUSH1 0x4 PUSH1 0x20 DUP2 SWAP1 MSTORE PUSH1 0x40 SWAP1 SWAP2 KECCAK256 ADD SLOAD PUSH1 0xFF AND DUP1 PUSH2 0x20D JUMPI POP PUSH1 0x1 SLOAD PUSH1 0x1 PUSH1 0x1 PUSH1 0xA0 SHL SUB AND CALLER EQ JUMPDEST PUSH2 0x25E JUMPI PUSH1 0x40 MLOAD PUSH3 0x461BCD PUSH1 0xE5 SHL DUP2 MSTORE PUSH1 0x20 PUSH1 0x4 DUP3 ADD MSTORE PUSH1 0x19 PUSH1 0x24 DUP3 ADD MSTORE PUSH32 0x4F6E6C79206D656D626572732063616E2073656E642045544800000000000000 PUSH1 0x44 DUP3 ADD MSTORE PUSH1 0x64 ADD JUMPDEST PUSH1 0x40 MLOAD DUP1 SWAP2 SUB SWAP1 REVERT JUMPDEST PUSH1 0x40 DUP1 MLOAD CALLVALUE DUP2 MSTORE TIMESTAMP PUSH1 0x20 DUP3 ADD MSTORE CALLER SWAP2 PUSH32 0x7DD768B8B37911C0BB413D9CF56FCB57B286F5DEF4C57D475C8ABDD6737B7E1E SWAP2 ADD PUSH1 0x40 MLOAD DUP1 SWAP2 SUB SWAP1 LOG2 STOP JUMPDEST PUSH1 0x0 DUP1 REVERT JUMPDEST CALLVALUE DUP1 ISZERO PUSH2 0x2AB JUMPI PUSH1 0x0 DUP1 REVERT JUMPDEST POP PUSH2 0x2B4 PUSH2 0x7DA JUMP JUMPDEST STOP JUMPDEST CALLVALUE DUP1 ISZERO PUSH2 0x2C2 JUMPI PUSH1 0x0 DUP1 REVERT JUMPDEST POP PUSH2 0x2D6 PUSH2 0x2D1 CALLDATASIZE PUSH1 0x4 PUSH2 0x2D42 JUMP JUMPDEST PUSH2 0x820 JUMP JUMPDEST PUSH1 0x40 MLOAD PUSH2 0x2E8 SWAP7 SWAP6 SWAP5 SWAP4 SWAP3 SWAP2 SWAP1 PUSH2 0x2DAA JUMP JUMPDEST PUSH1 0x40 MLOAD DUP1 SWAP2 SUB SWAP1 RETURN JUMPDEST CALLVALUE DUP1 ISZERO PUSH2 0x2FD JUMPI PUSH1 0x0 DUP1 REVERT JUMPDEST POP PUSH2 0x347 PUSH2 0x30C CALLDATASIZE PUSH1 0x4 PUSH2 0x2DF3 JUMP JUMPDEST PUSH1 0x7 PUSH1 0x20 MSTORE PUSH1 0x0 SWAP1 DUP2 MSTORE PUSH1 0x40 SWAP1 KECCAK256 DUP1 SLOAD PUSH1 0x1 DUP3 ADD SLOAD PUSH1 0x2 DUP4 ADD SLOAD PUSH1 0x3 DUP5 ADD SLOAD PUSH1 0x4 SWAP1 SWAP5 ADD SLOAD PUSH1 0x1 PUSH1 0x1 PUSH1 0xA0 SHL SUB SWAP4 DUP5 AND SWAP5 SWAP4 SWAP1 SWAP3 AND SWAP3 SWAP1 SWAP2 DUP6 JUMP JUMPDEST PUSH1 0x40 DUP1 MLOAD PUSH1 0x1 PUSH1 0x1 PUSH1 0xA0 SHL SUB SWAP7 DUP8 AND DUP2 MSTORE SWAP6 SWAP1 SWAP5 AND PUSH1 0x20 DUP7 ADD MSTORE SWAP3 DUP5 ADD SWAP2 SWAP1 SWAP2 MSTORE PUSH1 0x60 DUP4 ADD MSTORE PUSH1 0x80 DUP3 ADD MSTORE PUSH1 0xA0 ADD PUSH2 0x2E8 JUMP JUMPDEST CALLVALUE DUP1 ISZERO PUSH2 0x386 JUMPI PUSH1 0x0 DUP1 REVERT JUMPDEST POP PUSH2 0x2B4 PUSH2 0x395 CALLDATASIZE PUSH1 0x4 PUSH2 0x2D42 JUMP JUMPDEST PUSH2 0x8EE JUMP JUMPDEST CALLVALUE DUP1 ISZERO PUSH2 0x3A6 JUMPI PUSH1 0x0 DUP1 REVERT JUMPDEST POP PUSH2 0x3AF PUSH2 0xBDE JUMP JUMPDEST PUSH1 0x40 DUP1 MLOAD SWAP5 DUP6 MSTORE PUSH1 0x20 DUP6 ADD SWAP4 SWAP1 SWAP4 MSTORE SWAP2 DUP4 ADD MSTORE PUSH1 0x60 DUP3 ADD MSTORE PUSH1 0x80 ADD PUSH2 0x2E8 JUMP JUMPDEST CALLVALUE DUP1 ISZERO PUSH2 0x3DB JUMPI PUSH1 0x0 DUP1 REVERT JUMPDEST POP PUSH2 0x3EF PUSH2 0x3EA CALLDATASIZE PUSH1 0x4 PUSH2 0x2DF3 JUMP JUMPDEST PUSH2 0xC61 JUMP JUMPDEST PUSH1 0x40 MLOAD PUSH2 0x2E8 SWAP2 SWAP1 DUP2 MLOAD PUSH1 0x1 PUSH1 0x1 PUSH1 0xA0 SHL SUB SWAP1 DUP2 AND DUP3 MSTORE PUSH1 0x20 DUP1 DUP5 ADD MLOAD SWAP1 SWAP2 AND SWAP1 DUP3 ADD MSTORE PUSH1 0x40 DUP1 DUP4 ADD MLOAD SWAP1 DUP3 ADD MSTORE PUSH1 0x60 DUP1 DUP4 ADD MLOAD SWAP1 DUP3 ADD MSTORE PUSH1 0x80 SWAP2 DUP3 ADD MLOAD SWAP2 DUP2 ADD SWAP2 SWAP1 SWAP2 MSTORE PUSH1 0xA0 ADD SWAP1 JUMP JUMPDEST CALLVALUE DUP1 ISZERO PUSH2 0x446 JUMPI PUSH1 0x0 DUP1 REVERT JUMPDEST POP PUSH2 0x2B4 PUSH2 0xD3C JUMP JUMPDEST CALLVALUE DUP1 ISZERO PUSH2 0x45B JUMPI PUSH1 0x0 DUP1 REVERT JUMPDEST POP PUSH1 0x1 SLOAD PUSH1 0x1 PUSH1 0xA0 SHL SWAP1 DIV PUSH1 0xFF AND PUSH1 0x40 MLOAD SWAP1 ISZERO ISZERO DUP2 MSTORE PUSH1 0x20 ADD PUSH2 0x2E8 JUMP JUMPDEST CALLVALUE DUP1 ISZERO PUSH2 0x485 JUMPI PUSH1 0x0 DUP1 REVERT JUMPDEST POP PUSH2 0x499 PUSH2 0x494 CALLDATASIZE PUSH1 0x4 PUSH2 0x2D42 JUMP JUMPDEST PUSH2 0xD7C JUMP JUMPDEST PUSH1 0x40 MLOAD PUSH2 0x2E8 SWAP2 SWAP1 PUSH2 0x2E0C JUMP JUMPDEST CALLVALUE DUP1 ISZERO PUSH2 0x4B2 JUMPI PUSH1 0x0 DUP1 REVERT JUMPDEST POP PUSH2 0x2B4 PUSH2 0x4C1 CALLDATASIZE PUSH1 0x4 PUSH2 0x2F27 JUMP JUMPDEST PUSH2 0xF18 JUMP JUMPDEST CALLVALUE DUP1 ISZERO PUSH2 0x4D2 JUMPI PUSH1 0x0 DUP1 REVERT JUMPDEST POP PUSH2 0x509 PUSH2 0x4E1 CALLDATASIZE PUSH1 0x4 PUSH2 0x2D42 JUMP JUMPDEST CALLER PUSH1 0x0 SWAP1 DUP2 MSTORE PUSH1 0x6 PUSH1 0x20 SWAP1 DUP2 MSTORE PUSH1 0x40 DUP1 DUP4 KECCAK256 PUSH1 0x1 PUSH1 0x1 PUSH1 0xA0 SHL SUB SWAP5 SWAP1 SWAP5 AND DUP4 MSTORE SWAP3 SWAP1 MSTORE KECCAK256 SLOAD SWAP1 JUMP JUMPDEST PUSH1 0x40 MLOAD SWAP1 DUP2 MSTORE PUSH1 0x20 ADD PUSH2 0x2E8 JUMP JUMPDEST CALLVALUE DUP1 ISZERO PUSH2 0x523 JUMPI PUSH1 0x0 DUP1 REVERT JUMPDEST POP PUSH2 0x2B4 PUSH2 0x1166 JUMP JUMPDEST CALLVALUE DUP1 ISZERO PUSH2 0x538 JUMPI PUSH1 0x0 DUP1 REVERT JUMPDEST POP PUSH2 0x54C PUSH2 0x547 CALLDATASIZE PUSH1 0x4 PUSH2 0x2DF3 JUMP JUMPDEST PUSH2 0x117A JUMP JUMPDEST PUSH1 0x40 MLOAD PUSH2 0x2E8 SWAP2 SWAP1 PUSH2 0x308F JUMP JUMPDEST CALLVALUE DUP1 ISZERO PUSH2 0x565 JUMPI PUSH1 0x0 DUP1 REVERT JUMPDEST POP PUSH2 0x56E PUSH2 0x13B0 JUMP JUMPDEST PUSH1 0x40 MLOAD PUSH2 0x2E8 SWAP2 SWAP1 PUSH2 0x30A2 JUMP JUMPDEST CALLVALUE DUP1 ISZERO PUSH2 0x587 JUMPI PUSH1 0x0 DUP1 REVERT JUMPDEST POP PUSH2 0x59B PUSH2 0x596 CALLDATASIZE PUSH1 0x4 PUSH2 0x30B5 JUMP JUMPDEST PUSH2 0x143E JUMP JUMPDEST PUSH1 0x40 MLOAD PUSH2 0x2E8 SWAP3 SWAP2 SWAP1 PUSH2 0x30D7 JUMP JUMPDEST CALLVALUE DUP1 ISZERO PUSH2 0x5B5 JUMPI PUSH1 0x0 DUP1 REVERT JUMPDEST POP PUSH2 0x5C9 PUSH2 0x5C4 CALLDATASIZE PUSH1 0x4 PUSH2 0x30B5 JUMP JUMPDEST PUSH2 0x174C JUMP JUMPDEST PUSH1 0x40 MLOAD PUSH2 0x2E8 SWAP3 SWAP2 SWAP1 PUSH2 0x3140 JUMP JUMPDEST CALLVALUE DUP1 ISZERO PUSH2 0x5E3 JUMPI PUSH1 0x0 DUP1 REVERT JUMPDEST POP PUSH1 0x1 SLOAD PUSH1 0x1 PUSH1 0x1 PUSH1 0xA0 SHL SUB AND JUMPDEST PUSH1 0x40 MLOAD PUSH1 0x1 PUSH1 0x1 PUSH1 0xA0 SHL SUB SWAP1 SWAP2 AND DUP2 MSTORE PUSH1 0x20 ADD PUSH2 0x2E8 JUMP JUMPDEST CALLVALUE DUP1 ISZERO PUSH2 0x615 JUMPI PUSH1 0x0 DUP1 REVERT JUMPDEST POP PUSH2 0x509 PUSH2 0x624 CALLDATASIZE PUSH1 0x4 PUSH2 0x2DF3 JUMP JUMPDEST PUSH2 0x1861 JUMP JUMPDEST PUSH2 0x2B4 PUSH2 0x637 CALLDATASIZE PUSH1 0x4 PUSH2 0x2D42 JUMP JUMPDEST PUSH2 0x1882 JUMP JUMPDEST CALLVALUE DUP1 ISZERO PUSH2 0x648 JUMPI PUSH1 0x0 DUP1 REVERT JUMPDEST POP PUSH2 0x65C PUSH2 0x657 CALLDATASIZE PUSH1 0x4 PUSH2 0x2DF3 JUMP JUMPDEST PUSH2 0x1CE2 JUMP JUMPDEST PUSH1 0x40 MLOAD PUSH2 0x2E8 SWAP8 SWAP7 SWAP6 SWAP5 SWAP4 SWAP3 SWAP2 SWAP1 PUSH2 0x3162 JUMP JUMPDEST CALLVALUE DUP1 ISZERO PUSH2 0x67B JUMPI PUSH1 0x0 DUP1 REVERT JUMPDEST POP PUSH2 0x5F1 PUSH2 0x68A CALLDATASIZE PUSH1 0x4 PUSH2 0x2DF3 JUMP JUMPDEST PUSH2 0x1DB3 JUMP JUMPDEST CALLVALUE DUP1 ISZERO PUSH2 0x69B JUMPI PUSH1 0x0 DUP1 REVERT JUMPDEST POP PUSH2 0x509 PUSH1 0x14 DUP2 JUMP JUMPDEST CALLVALUE DUP1 ISZERO PUSH2 0x6B0 JUMPI PUSH1 0x0 DUP1 REVERT JUMPDEST POP PUSH2 0x2B4 PUSH2 0x6BF CALLDATASIZE PUSH1 0x4 PUSH2 0x31AE JUMP JUMPDEST PUSH2 0x1DDD JUMP JUMPDEST CALLVALUE DUP1 ISZERO PUSH2 0x6D0 JUMPI PUSH1 0x0 DUP1 REVERT JUMPDEST POP PUSH2 0x509 PUSH2 0x6DF CALLDATASIZE PUSH1 0x4 PUSH2 0x31E6 JUMP JUMPDEST PUSH1 0x6 PUSH1 0x20 SWAP1 DUP2 MSTORE PUSH1 0x0 SWAP3 DUP4 MSTORE PUSH1 0x40 DUP1 DUP5 KECCAK256 SWAP1 SWAP2 MSTORE SWAP1 DUP3 MSTORE SWAP1 KECCAK256 SLOAD DUP2 JUMP JUMPDEST CALLVALUE DUP1 ISZERO PUSH2 0x708 JUMPI PUSH1 0x0 DUP1 REVERT JUMPDEST POP PUSH2 0x5F1 PUSH32 0x0 DUP2 JUMP JUMPDEST CALLVALUE DUP1 ISZERO PUSH2 0x73C JUMPI PUSH1 0x0 DUP1 REVERT JUMPDEST POP PUSH2 0x2B4 PUSH2 0x1EEB JUMP JUMPDEST CALLVALUE DUP1 ISZERO PUSH2 0x751 JUMPI PUSH1 0x0 DUP1 REVERT JUMPDEST POP PUSH2 0x509 PUSH1 0x32 DUP2 JUMP JUMPDEST CALLVALUE DUP1 ISZERO PUSH2 0x766 JUMPI PUSH1 0x0 DUP1 REVERT JUMPDEST POP PUSH2 0x509 PUSH2 0x775 CALLDATASIZE PUSH1 0x4 PUSH2 0x3219 JUMP JUMPDEST PUSH2 0x2055 JUMP JUMPDEST CALLVALUE DUP1 ISZERO PUSH2 0x786 JUMPI PUSH1 0x0 DUP1 REVERT JUMPDEST POP PUSH2 0x509 PUSH2 0x795 CALLDATASIZE PUSH1 0x4 PUSH2 0x2DF3 JUMP JUMPDEST PUSH2 0x2794 JUMP JUMPDEST CALLVALUE DUP1 ISZERO PUSH2 0x7A6 JUMPI PUSH1 0x0 DUP1 REVERT JUMPDEST POP PUSH2 0x2B4 PUSH2 0x7B5 CALLDATASIZE PUSH1 0x4 PUSH2 0x2D42 JUMP JUMPDEST PUSH2 0x27A4 JUMP JUMPDEST CALLVALUE DUP1 ISZERO PUSH2 0x7C6 JUMPI PUSH1 0x0 DUP1 REVERT JUMPDEST POP PUSH2 0x509 PUSH2 0x7D5 CALLDATASIZE PUSH1 0x4 PUSH2 0x2D42 JUMP JUMPDEST PUSH2 0x27DF JUMP JUMPDEST PUSH2 0x7E2 PUSH2 0x2870 JUMP JUMPDEST PUSH2 0x7EA PUSH2 0x289D JUMP JUMPDEST PUSH1 0x40 MLOAD TIMESTAMP DUP2 MSTORE PUSH32 0xB5A81006F0FBBE8840C33BD9E50F9AAF88F69B1CD74A626748BA871DDF982D32 SWAP1 PUSH1 0x20 ADD JUMPDEST PUSH1 0x40 MLOAD DUP1 SWAP2 SUB SWAP1 LOG1 JUMP JUMPDEST PUSH1 0x4 PUSH1 0x20 MSTORE PUSH1 0x0 SWAP1 DUP2 MSTORE PUSH1 0x40 SWAP1 KECCAK256 DUP1 SLOAD PUSH1 0x1 DUP3 ADD DUP1 SLOAD PUSH1 0x1 PUSH1 0x1 PUSH1 0xA0 SHL SUB SWAP1 SWAP3 AND SWAP3 SWAP2 PUSH2 0x84C SWAP1 PUSH2 0x32F9 JUMP JUMPDEST DUP1 PUSH1 0x1F ADD PUSH1 0x20 DUP1 SWAP2 DIV MUL PUSH1 0x20 ADD PUSH1 0x40 MLOAD SWAP1 DUP2 ADD PUSH1 0x40 MSTORE DUP1 SWAP3 SWAP2 SWAP1 DUP2 DUP2 MSTORE PUSH1 0x20 ADD DUP3 DUP1 SLOAD PUSH2 0x878 SWAP1 PUSH2 0x32F9 JUMP JUMPDEST DUP1 ISZERO PUSH2 0x8C5 JUMPI DUP1 PUSH1 0x1F LT PUSH2 0x89A JUMPI PUSH2 0x100 DUP1 DUP4 SLOAD DIV MUL DUP4 MSTORE SWAP2 PUSH1 0x20 ADD SWAP2 PUSH2 0x8C5 JUMP JUMPDEST DUP3 ADD SWAP2 SWAP1 PUSH1 0x0 MSTORE PUSH1 0x20 PUSH1 0x0 KECCAK256 SWAP1 JUMPDEST DUP2 SLOAD DUP2 MSTORE SWAP1 PUSH1 0x1 ADD SWAP1 PUSH1 0x20 ADD DUP1 DUP4 GT PUSH2 0x8A8 JUMPI DUP3 SWAP1 SUB PUSH1 0x1F AND DUP3 ADD SWAP2 JUMPDEST POP POP POP PUSH1 0x2 DUP5 ADD SLOAD PUSH1 0x3 DUP6 ADD SLOAD PUSH1 0x4 DUP7 ADD SLOAD PUSH1 0x5 SWAP1 SWAP7 ADD SLOAD SWAP5 SWAP6 SWAP2 SWAP5 SWAP1 SWAP4 POP PUSH1 0xFF SWAP1 SWAP2 AND SWAP2 POP DUP7 JUMP JUMPDEST PUSH2 0x8F6 PUSH2 0x2870 JUMP JUMPDEST DUP1 PUSH1 0x1 PUSH1 0x1 PUSH1 0xA0 SHL SUB DUP2 AND PUSH2 0x91D JUMPI PUSH1 0x40 MLOAD PUSH3 0x461BCD PUSH1 0xE5 SHL DUP2 MSTORE PUSH1 0x4 ADD PUSH2 0x255 SWAP1 PUSH2 0x332D JUMP JUMPDEST PUSH1 0x1 PUSH1 0x1 PUSH1 0xA0 SHL SUB DUP2 AND PUSH1 0x0 SWAP1 DUP2 MSTORE PUSH1 0x4 PUSH1 0x20 DUP2 SWAP1 MSTORE PUSH1 0x40 SWAP1 SWAP2 KECCAK256 ADD SLOAD PUSH1 0xFF AND PUSH2 0x97D JUMPI PUSH1 0x40 MLOAD PUSH3 0x461BCD PUSH1 0xE5 SHL DUP2 MSTORE PUSH1 0x20 PUSH1 0x4 DUP3 ADD MSTORE PUSH1 0x11 PUSH1 0x24 DUP3 ADD MSTORE PUSH17 0x4D656D626572206E6F7420616374697665 PUSH1 0x78 SHL PUSH1 0x44 DUP3 ADD MSTORE PUSH1 0x64 ADD PUSH2 0x255 JUMP JUMPDEST PUSH1 0x1 SLOAD PUSH1 0x1 PUSH1 0x1 PUSH1 0xA0 SHL SUB AND PUSH1 0x1 PUSH1 0x1 PUSH1 0xA0 SHL SUB AND DUP3 PUSH1 0x1 PUSH1 0x1 PUSH1 0xA0 SHL SUB AND SUB PUSH2 0x9DF JUMPI PUSH1 0x40 MLOAD PUSH3 0x461BCD PUSH1 0xE5 SHL DUP2 MSTORE PUSH1 0x20 PUSH1 0x4 DUP3 ADD MSTORE PUSH1 0x13 PUSH1 0x24 DUP3 ADD MSTORE PUSH19 0x21B0B73737BA103932B6B7BB329037BBB732B9 PUSH1 0x69 SHL PUSH1 0x44 DUP3 ADD MSTORE PUSH1 0x64 ADD PUSH2 0x255 JUMP JUMPDEST PUSH1 0x1 PUSH1 0x1 PUSH1 0xA0 SHL SUB DUP3 AND PUSH1 0x0 SWAP1 DUP2 MSTORE PUSH1 0x4 PUSH1 0x20 MSTORE PUSH1 0x40 SWAP1 KECCAK256 PUSH1 0x2 ADD SLOAD ISZERO DUP1 ISZERO PUSH2 0xA21 JUMPI POP PUSH1 0x1 PUSH1 0x1 PUSH1 0xA0 SHL SUB DUP3 AND PUSH1 0x0 SWAP1 DUP2 MSTORE PUSH1 0x4 PUSH1 0x20 MSTORE PUSH1 0x40 SWAP1 KECCAK256 PUSH1 0x3 ADD SLOAD ISZERO JUMPDEST PUSH2 0xA6D JUMPI PUSH1 0x40 MLOAD PUSH3 0x461BCD PUSH1 0xE5 SHL DUP2 MSTORE PUSH1 0x20 PUSH1 0x4 DUP3 ADD MSTORE PUSH1 0x1F PUSH1 0x24 DUP3 ADD MSTORE PUSH32 0x4D656D62657220686173206F75747374616E64696E672062616C616E63657300 PUSH1 0x44 DUP3 ADD MSTORE PUSH1 0x64 ADD PUSH2 0x255 JUMP JUMPDEST PUSH1 0x1 PUSH1 0x1 PUSH1 0xA0 SHL SUB DUP3 AND PUSH1 0x0 SWAP1 DUP2 MSTORE PUSH1 0x4 PUSH1 0x20 DUP2 SWAP1 MSTORE PUSH1 0x40 DUP3 KECCAK256 ADD DUP1 SLOAD PUSH1 0xFF NOT AND SWAP1 SSTORE JUMPDEST PUSH1 0x8 SLOAD DUP2 LT ISZERO PUSH2 0xB96 JUMPI DUP3 PUSH1 0x1 PUSH1 0x1 PUSH1 0xA0 SHL SUB AND PUSH1 0x8 DUP3 DUP2 SLOAD DUP2 LT PUSH2 0xAB8 JUMPI PUSH2 0xAB8 PUSH2 0x3356 JUMP JUMPDEST PUSH1 0x0 SWAP2 DUP3 MSTORE PUSH1 0x20 SWAP1 SWAP2 KECCAK256 ADD SLOAD PUSH1 0x1 PUSH1 0x1 PUSH1 0xA0 SHL SUB AND SUB PUSH2 0xB84 JUMPI PUSH1 0x8 DUP1 SLOAD PUSH2 0xAE2 SWAP1 PUSH1 0x1 SWAP1 PUSH2 0x3382 JUMP JUMPDEST DUP2 SLOAD DUP2 LT PUSH2 0xAF2 JUMPI PUSH2 0xAF2 PUSH2 0x3356 JUMP JUMPDEST PUSH1 0x0 SWAP2 DUP3 MSTORE PUSH1 0x20 SWAP1 SWAP2 KECCAK256 ADD SLOAD PUSH1 0x8 DUP1 SLOAD PUSH1 0x1 PUSH1 0x1 PUSH1 0xA0 SHL SUB SWAP1 SWAP3 AND SWAP2 DUP4 SWAP1 DUP2 LT PUSH2 0xB1E JUMPI PUSH2 0xB1E PUSH2 0x3356 JUMP JUMPDEST SWAP1 PUSH1 0x0 MSTORE PUSH1 0x20 PUSH1 0x0 KECCAK256 ADD PUSH1 0x0 PUSH2 0x100 EXP DUP2 SLOAD DUP2 PUSH1 0x1 PUSH1 0x1 PUSH1 0xA0 SHL SUB MUL NOT AND SWAP1 DUP4 PUSH1 0x1 PUSH1 0x1 PUSH1 0xA0 SHL SUB AND MUL OR SWAP1 SSTORE POP PUSH1 0x8 DUP1 SLOAD DUP1 PUSH2 0xB5D JUMPI PUSH2 0xB5D PUSH2 0x3395 JUMP JUMPDEST PUSH1 0x0 DUP3 DUP2 MSTORE PUSH1 0x20 SWAP1 KECCAK256 DUP2 ADD PUSH1 0x0 NOT SWAP1 DUP2 ADD DUP1 SLOAD PUSH1 0x1 PUSH1 0x1 PUSH1 0xA0 SHL SUB NOT AND SWAP1 SSTORE ADD SWAP1 SSTORE PUSH2 0xB96 JUMP JUMPDEST DUP1 PUSH2 0xB8E DUP2 PUSH2 0x33AB JUMP JUMPDEST SWAP2 POP POP PUSH2 0xA91 JUMP JUMPDEST POP DUP2 PUSH1 0x1 PUSH1 0x1 PUSH1 0xA0 SHL SUB AND PUSH32 0x3AC963493DF564DE734D98633F1145D21512E282BA4C02D3C1011119BF7F2862 TIMESTAMP PUSH1 0x40 MLOAD PUSH2 0xBD2 SWAP2 DUP2 MSTORE PUSH1 0x20 ADD SWAP1 JUMP JUMPDEST PUSH1 0x40 MLOAD DUP1 SWAP2 SUB SWAP1 LOG2 POP POP JUMP JUMPDEST PUSH1 0x8 SLOAD PUSH1 0x9 SLOAD PUSH1 0xB SLOAD PUSH1 0x0 SWAP1 DUP2 SWAP1 PUSH2 0xBF8 SWAP1 PUSH1 0x1 SWAP1 PUSH2 0x3382 JUMP JUMPDEST SWAP1 POP PUSH1 0x0 JUMPDEST PUSH1 0x9 SLOAD DUP2 LT ISZERO PUSH2 0xC5A JUMPI PUSH1 0x5 PUSH1 0x0 PUSH1 0x9 DUP4 DUP2 SLOAD DUP2 LT PUSH2 0xC1E JUMPI PUSH2 0xC1E PUSH2 0x3356 JUMP JUMPDEST SWAP1 PUSH1 0x0 MSTORE PUSH1 0x20 PUSH1 0x0 KECCAK256 ADD SLOAD DUP2 MSTORE PUSH1 0x20 ADD SWAP1 DUP2 MSTORE PUSH1 0x20 ADD PUSH1 0x0 KECCAK256 PUSH1 0x2 ADD SLOAD DUP4 PUSH2 0xC46 SWAP2 SWAP1 PUSH2 0x33C4 JUMP JUMPDEST SWAP3 POP DUP1 PUSH2 0xC52 DUP2 PUSH2 0x33AB JUMP JUMPDEST SWAP2 POP POP PUSH2 0xBFD JUMP JUMPDEST POP SWAP1 SWAP2 SWAP3 SWAP4 JUMP JUMPDEST PUSH1 0x40 DUP1 MLOAD PUSH1 0xA0 DUP2 ADD DUP3 MSTORE PUSH1 0x0 DUP1 DUP3 MSTORE PUSH1 0x20 DUP3 ADD DUP2 SWAP1 MSTORE SWAP2 DUP2 ADD DUP3 SWAP1 MSTORE PUSH1 0x60 DUP2 ADD DUP3 SWAP1 MSTORE PUSH1 0x80 DUP2 ADD SWAP2 SWAP1 SWAP2 MSTORE PUSH1 0x0 DUP3 GT DUP1 ISZERO PUSH2 0xC9D JUMPI POP PUSH1 0xB SLOAD DUP3 LT JUMPDEST PUSH2 0xCE1 JUMPI PUSH1 0x40 MLOAD PUSH3 0x461BCD PUSH1 0xE5 SHL DUP2 MSTORE PUSH1 0x20 PUSH1 0x4 DUP3 ADD MSTORE PUSH1 0x15 PUSH1 0x24 DUP3 ADD MSTORE PUSH21 0x125B9D985B1A59081CD95D1D1B195B595B9D081251 PUSH1 0x5A SHL PUSH1 0x44 DUP3 ADD MSTORE PUSH1 0x64 ADD PUSH2 0x255 JUMP JUMPDEST POP PUSH1 0x0 SWAP1 DUP2 MSTORE PUSH1 0x7 PUSH1 0x20 SWAP1 DUP2 MSTORE PUSH1 0x40 SWAP2 DUP3 SWAP1 KECCAK256 DUP3 MLOAD PUSH1 0xA0 DUP2 ADD DUP5 MSTORE DUP2 SLOAD PUSH1 0x1 PUSH1 0x1 PUSH1 0xA0 SHL SUB SWAP1 DUP2 AND DUP3 MSTORE PUSH1 0x1 DUP4 ADD SLOAD AND SWAP3 DUP2 ADD SWAP3 SWAP1 SWAP3 MSTORE PUSH1 0x2 DUP2 ADD SLOAD SWAP3 DUP3 ADD SWAP3 SWAP1 SWAP3 MSTORE PUSH1 0x3 DUP3 ADD SLOAD PUSH1 0x60 DUP3 ADD MSTORE PUSH1 0x4 SWAP1 SWAP2 ADD SLOAD PUSH1 0x80 DUP3 ADD MSTORE SWAP1 JUMP JUMPDEST PUSH2 0xD44 PUSH2 0x2870 JUMP JUMPDEST PUSH2 0xD4C PUSH2 0x28ED JUMP JUMPDEST PUSH1 0x40 MLOAD TIMESTAMP DUP2 MSTORE PUSH32 0xB1D2425E73D9A7882DC53CEBC5168B37F785C0B8548A07CC190AD6EBDB53ABA2 SWAP1 PUSH1 0x20 ADD PUSH2 0x816 JUMP JUMPDEST PUSH2 0xDC0 PUSH1 0x40 MLOAD DUP1 PUSH1 0xC0 ADD PUSH1 0x40 MSTORE DUP1 PUSH1 0x0 PUSH1 0x1 PUSH1 0x1 PUSH1 0xA0 SHL SUB AND DUP2 MSTORE PUSH1 0x20 ADD PUSH1 0x60 DUP2 MSTORE PUSH1 0x20 ADD PUSH1 0x0 DUP2 MSTORE PUSH1 0x20 ADD PUSH1 0x0 DUP2 MSTORE PUSH1 0x20 ADD PUSH1 0x0 ISZERO ISZERO DUP2 MSTORE PUSH1 0x20 ADD PUSH1 0x0 DUP2 MSTORE POP SWAP1 JUMP JUMPDEST PUSH1 0x1 PUSH1 0x1 PUSH1 0xA0 SHL SUB DUP3 AND PUSH1 0x0 SWAP1 DUP2 MSTORE PUSH1 0x4 PUSH1 0x20 DUP2 SWAP1 MSTORE PUSH1 0x40 SWAP1 SWAP2 KECCAK256 ADD SLOAD PUSH1 0xFF AND PUSH2 0xE1F JUMPI PUSH1 0x40 MLOAD PUSH3 0x461BCD PUSH1 0xE5 SHL DUP2 MSTORE PUSH1 0x20 PUSH1 0x4 DUP3 ADD MSTORE PUSH1 0x10 PUSH1 0x24 DUP3 ADD MSTORE PUSH16 0x13595B58995C881B9BDD08199BDD5B99 PUSH1 0x82 SHL PUSH1 0x44 DUP3 ADD MSTORE PUSH1 0x64 ADD PUSH2 0x255 JUMP JUMPDEST PUSH1 0x1 PUSH1 0x1 PUSH1 0xA0 SHL SUB DUP1 DUP4 AND PUSH1 0x0 SWAP1 DUP2 MSTORE PUSH1 0x4 PUSH1 0x20 SWAP1 DUP2 MSTORE PUSH1 0x40 SWAP2 DUP3 SWAP1 KECCAK256 DUP3 MLOAD PUSH1 0xC0 DUP2 ADD SWAP1 SWAP4 MSTORE DUP1 SLOAD SWAP1 SWAP4 AND DUP3 MSTORE PUSH1 0x1 DUP4 ADD DUP1 SLOAD SWAP3 SWAP4 SWAP3 SWAP2 DUP5 ADD SWAP2 PUSH2 0xE62 SWAP1 PUSH2 0x32F9 JUMP JUMPDEST DUP1 PUSH1 0x1F ADD PUSH1 0x20 DUP1 SWAP2 DIV MUL PUSH1 0x20 ADD PUSH1 0x40 MLOAD SWAP1 DUP2 ADD PUSH1 0x40 MSTORE DUP1 SWAP3 SWAP2 SWAP1 DUP2 DUP2 MSTORE PUSH1 0x20 ADD DUP3 DUP1 SLOAD PUSH2 0xE8E SWAP1 PUSH2 0x32F9 JUMP JUMPDEST DUP1 ISZERO PUSH2 0xEDB JUMPI DUP1 PUSH1 0x1F LT PUSH2 0xEB0 JUMPI PUSH2 0x100 DUP1 DUP4 SLOAD DIV MUL DUP4 MSTORE SWAP2 PUSH1 0x20 ADD SWAP2 PUSH2 0xEDB JUMP JUMPDEST DUP3 ADD SWAP2 SWAP1 PUSH1 0x0 MSTORE PUSH1 0x20 PUSH1 0x0 KECCAK256 SWAP1 JUMPDEST DUP2 SLOAD DUP2 MSTORE SWAP1 PUSH1 0x1 ADD SWAP1 PUSH1 0x20 ADD DUP1 DUP4 GT PUSH2 0xEBE JUMPI DUP3 SWAP1 SUB PUSH1 0x1F AND DUP3 ADD SWAP2 JUMPDEST POP POP POP SWAP2 DUP4 MSTORE POP POP PUSH1 0x2 DUP3 ADD SLOAD PUSH1 0x20 DUP3 ADD MSTORE PUSH1 0x3 DUP3 ADD SLOAD PUSH1 0x40 DUP3 ADD MSTORE PUSH1 0x4 DUP3 ADD SLOAD PUSH1 0xFF AND ISZERO ISZERO PUSH1 0x60 DUP3 ADD MSTORE PUSH1 0x5 SWAP1 SWAP2 ADD SLOAD PUSH1 0x80 SWAP1 SWAP2 ADD MSTORE SWAP3 SWAP2 POP POP JUMP JUMPDEST DUP2 PUSH1 0x0 DUP2 GT DUP1 ISZERO PUSH2 0xF2A JUMPI POP PUSH1 0x3 SLOAD DUP2 LT JUMPDEST PUSH2 0xF6B JUMPI PUSH1 0x40 MLOAD PUSH3 0x461BCD PUSH1 0xE5 SHL DUP2 MSTORE PUSH1 0x20 PUSH1 0x4 DUP3 ADD MSTORE PUSH1 0x12 PUSH1 0x24 DUP3 ADD MSTORE PUSH18 0x125B9D985B1A5908195E1C195B9CD9481251 PUSH1 0x72 SHL PUSH1 0x44 DUP3 ADD MSTORE PUSH1 0x64 ADD PUSH2 0x255 JUMP JUMPDEST CALLER PUSH1 0x0 SWAP1 DUP2 MSTORE PUSH1 0x4 PUSH1 0x20 DUP2 SWAP1 MSTORE PUSH1 0x40 SWAP1 SWAP2 KECCAK256 ADD SLOAD PUSH1 0xFF AND PUSH2 0xFC3 JUMPI PUSH1 0x40 MLOAD PUSH3 0x461BCD PUSH1 0xE5 SHL DUP2 MSTORE PUSH1 0x20 PUSH1 0x4 DUP3 ADD MSTORE PUSH1 0x12 PUSH1 0x24 DUP3 ADD MSTORE PUSH18 0x2737BA10309033B937BAB81036B2B6B132B9 PUSH1 0x71 SHL PUSH1 0x44 DUP3 ADD MSTORE PUSH1 0x64 ADD PUSH2 0x255 JUMP JUMPDEST PUSH1 0x1 SLOAD PUSH1 0x1 PUSH1 0xA0 SHL SWAP1 DIV PUSH1 0xFF AND ISZERO PUSH2 0xFED JUMPI PUSH1 0x40 MLOAD PUSH3 0x461BCD PUSH1 0xE5 SHL DUP2 MSTORE PUSH1 0x4 ADD PUSH2 0x255 SWAP1 PUSH2 0x33D7 JUMP JUMPDEST PUSH1 0x0 DUP4 DUP2 MSTORE PUSH1 0x5 PUSH1 0x20 MSTORE PUSH1 0x40 SWAP1 KECCAK256 PUSH1 0x3 ADD SLOAD PUSH1 0x1 PUSH1 0x1 PUSH1 0xA0 SHL SUB AND CALLER EQ PUSH2 0x1056 JUMPI PUSH1 0x40 MLOAD PUSH3 0x461BCD PUSH1 0xE5 SHL DUP2 MSTORE PUSH1 0x20 PUSH1 0x4 DUP3 ADD MSTORE PUSH1 0x1F PUSH1 0x24 DUP3 ADD MSTORE PUSH32 0x4F6E6C7920657870656E73652063726561746F722063616E2075706461746500 PUSH1 0x44 DUP3 ADD MSTORE PUSH1 0x64 ADD PUSH2 0x255 JUMP JUMPDEST PUSH1 0x0 DUP4 DUP2 MSTORE PUSH1 0x5 PUSH1 0x20 MSTORE PUSH1 0x40 SWAP1 KECCAK256 PUSH1 0x6 ADD SLOAD PUSH1 0xFF AND ISZERO PUSH2 0x10B8 JUMPI PUSH1 0x40 MLOAD PUSH3 0x461BCD PUSH1 0xE5 SHL DUP2 MSTORE PUSH1 0x20 PUSH1 0x4 DUP3 ADD MSTORE PUSH1 0x1D PUSH1 0x24 DUP3 ADD MSTORE PUSH32 0x43616E6E6F742075706461746520736574746C656420657870656E7365000000 PUSH1 0x44 DUP3 ADD MSTORE PUSH1 0x64 ADD PUSH2 0x255 JUMP JUMPDEST PUSH1 0x0 DUP3 MLOAD GT DUP1 ISZERO PUSH2 0x10CB JUMPI POP PUSH1 0xC8 DUP3 MLOAD GT ISZERO JUMPDEST PUSH2 0x110D JUMPI PUSH1 0x40 MLOAD PUSH3 0x461BCD PUSH1 0xE5 SHL DUP2 MSTORE PUSH1 0x20 PUSH1 0x4 DUP3 ADD MSTORE PUSH1 0x13 PUSH1 0x24 DUP3 ADD MSTORE PUSH19 0x24B73B30B634B2103232B9B1B934B83A34B7B7 PUSH1 0x69 SHL PUSH1 0x44 DUP3 ADD MSTORE PUSH1 0x64 ADD PUSH2 0x255 JUMP JUMPDEST PUSH1 0x0 DUP4 DUP2 MSTORE PUSH1 0x5 PUSH1 0x20 MSTORE PUSH1 0x40 SWAP1 KECCAK256 PUSH1 0x1 ADD PUSH2 0x1128 DUP4 DUP3 PUSH2 0x3451 JUMP JUMPDEST POP DUP3 PUSH32 0x83047016DDFE1D662751127A42D4EA02177F06A1751B37FFB62B044D37E038DF DUP4 PUSH1 0x40 MLOAD PUSH2 0x1159 SWAP2 SWAP1 PUSH2 0x30A2 JUMP JUMPDEST PUSH1 0x40 MLOAD DUP1 SWAP2 SUB SWAP1 LOG2 POP POP POP JUMP JUMPDEST PUSH2 0x116E PUSH2 0x2870 JUMP JUMPDEST PUSH2 0x1178 PUSH1 0x0 PUSH2 0x2930 JUMP JUMPDEST JUMP JUMPDEST PUSH2 0x1182 PUSH2 0x2C17 JUMP JUMPDEST DUP2 PUSH1 0x0 DUP2 GT DUP1 ISZERO PUSH2 0x1194 JUMPI POP PUSH1 0x3 SLOAD DUP2 LT JUMPDEST PUSH2 0x11D5 JUMPI PUSH1 0x40 MLOAD PUSH3 0x461BCD PUSH1 0xE5 SHL DUP2 MSTORE PUSH1 0x20 PUSH1 0x4 DUP3 ADD MSTORE PUSH1 0x12 PUSH1 0x24 DUP3 ADD MSTORE PUSH18 0x125B9D985B1A5908195E1C195B9CD9481251 PUSH1 0x72 SHL PUSH1 0x44 DUP3 ADD MSTORE PUSH1 0x64 ADD PUSH2 0x255 JUMP JUMPDEST PUSH1 0x5 PUSH1 0x0 DUP5 DUP2 MSTORE PUSH1 0x20 ADD SWAP1 DUP2 MSTORE PUSH1 0x20 ADD PUSH1 0x0 KECCAK256 PUSH1 0x40 MLOAD DUP1 PUSH2 0x120 ADD PUSH1 0x40 MSTORE SWAP1 DUP2 PUSH1 0x0 DUP3 ADD SLOAD DUP2 MSTORE PUSH1 0x20 ADD PUSH1 0x1 DUP3 ADD DUP1 SLOAD PUSH2 0x120E SWAP1 PUSH2 0x32F9 JUMP JUMPDEST DUP1 PUSH1 0x1F ADD PUSH1 0x20 DUP1 SWAP2 DIV MUL PUSH1 0x20 ADD PUSH1 0x40 MLOAD SWAP1 DUP2 ADD PUSH1 0x40 MSTORE DUP1 SWAP3 SWAP2 SWAP1 DUP2 DUP2 MSTORE PUSH1 0x20 ADD DUP3 DUP1 SLOAD PUSH2 0x123A SWAP1 PUSH2 0x32F9 JUMP JUMPDEST DUP1 ISZERO PUSH2 0x1287 JUMPI DUP1 PUSH1 0x1F LT PUSH2 0x125C JUMPI PUSH2 0x100 DUP1 DUP4 SLOAD DIV MUL DUP4 MSTORE SWAP2 PUSH1 0x20 ADD SWAP2 PUSH2 0x1287 JUMP JUMPDEST DUP3 ADD SWAP2 SWAP1 PUSH1 0x0 MSTORE PUSH1 0x20 PUSH1 0x0 KECCAK256 SWAP1 JUMPDEST DUP2 SLOAD DUP2 MSTORE SWAP1 PUSH1 0x1 ADD SWAP1 PUSH1 0x20 ADD DUP1 DUP4 GT PUSH2 0x126A JUMPI DUP3 SWAP1 SUB PUSH1 0x1F AND DUP3 ADD SWAP2 JUMPDEST POP POP POP POP POP DUP2 MSTORE PUSH1 0x20 ADD PUSH1 0x2 DUP3 ADD SLOAD DUP2 MSTORE PUSH1 0x20 ADD PUSH1 0x3 DUP3 ADD PUSH1 0x0 SWAP1 SLOAD SWAP1 PUSH2 0x100 EXP SWAP1 DIV PUSH1 0x1 PUSH1 0x1 PUSH1 0xA0 SHL SUB AND PUSH1 0x1 PUSH1 0x1 PUSH1 0xA0 SHL SUB AND PUSH1 0x1 PUSH1 0x1 PUSH1 0xA0 SHL SUB AND DUP2 MSTORE PUSH1 0x20 ADD PUSH1 0x4 DUP3 ADD DUP1 SLOAD DUP1 PUSH1 0x20 MUL PUSH1 0x20 ADD PUSH1 0x40 MLOAD SWAP1 DUP2 ADD PUSH1 0x40 MSTORE DUP1 SWAP3 SWAP2 SWAP1 DUP2 DUP2 MSTORE PUSH1 0x20 ADD DUP3 DUP1 SLOAD DUP1 ISZERO PUSH2 0x1322 JUMPI PUSH1 0x20 MUL DUP3 ADD SWAP2 SWAP1 PUSH1 0x0 MSTORE PUSH1 0x20 PUSH1 0x0 KECCAK256 SWAP1 JUMPDEST DUP2 SLOAD PUSH1 0x1 PUSH1 0x1 PUSH1 0xA0 SHL SUB AND DUP2 MSTORE PUSH1 0x1 SWAP1 SWAP2 ADD SWAP1 PUSH1 0x20 ADD DUP1 DUP4 GT PUSH2 0x1304 JUMPI JUMPDEST POP POP POP POP POP DUP2 MSTORE PUSH1 0x20 ADD PUSH1 0x5 DUP3 ADD DUP1 SLOAD DUP1 PUSH1 0x20 MUL PUSH1 0x20 ADD PUSH1 0x40 MLOAD SWAP1 DUP2 ADD PUSH1 0x40 MSTORE DUP1 SWAP3 SWAP2 SWAP1 DUP2 DUP2 MSTORE PUSH1 0x20 ADD DUP3 DUP1 SLOAD DUP1 ISZERO PUSH2 0x137A JUMPI PUSH1 0x20 MUL DUP3 ADD SWAP2 SWAP1 PUSH1 0x0 MSTORE PUSH1 0x20 PUSH1 0x0 KECCAK256 SWAP1 JUMPDEST DUP2 SLOAD DUP2 MSTORE PUSH1 0x20 ADD SWAP1 PUSH1 0x1 ADD SWAP1 DUP1 DUP4 GT PUSH2 0x1366 JUMPI JUMPDEST POP POP POP SWAP2 DUP4 MSTORE POP POP PUSH1 0x6 DUP3 ADD SLOAD PUSH1 0xFF AND ISZERO ISZERO PUSH1 0x20 DUP3 ADD MSTORE PUSH1 0x7 DUP3 ADD SLOAD PUSH1 0x40 DUP3 ADD MSTORE PUSH1 0x8 SWAP1 SWAP2 ADD SLOAD PUSH1 0x60 SWAP1 SWAP2 ADD MSTORE SWAP2 POP JUMPDEST POP SWAP2 SWAP1 POP JUMP JUMPDEST PUSH1 0x2 DUP1 SLOAD PUSH2 0x13BD SWAP1 PUSH2 0x32F9 JUMP JUMPDEST DUP1 PUSH1 0x1F ADD PUSH1 0x20 DUP1 SWAP2 DIV MUL PUSH1 0x20 ADD PUSH1 0x40 MLOAD SWAP1 DUP2 ADD PUSH1 0x40 MSTORE DUP1 SWAP3 SWAP2 SWAP1 DUP2 DUP2 MSTORE PUSH1 0x20 ADD DUP3 DUP1 SLOAD PUSH2 0x13E9 SWAP1 PUSH2 0x32F9 JUMP JUMPDEST DUP1 ISZERO PUSH2 0x1436 JUMPI DUP1 PUSH1 0x1F LT PUSH2 0x140B JUMPI PUSH2 0x100 DUP1 DUP4 SLOAD DIV MUL DUP4 MSTORE SWAP2 PUSH1 0x20 ADD SWAP2 PUSH2 0x1436 JUMP JUMPDEST DUP3 ADD SWAP2 SWAP1 PUSH1 0x0 MSTORE PUSH1 0x20 PUSH1 0x0 KECCAK256 SWAP1 JUMPDEST DUP2 SLOAD DUP2 MSTORE SWAP1 PUSH1 0x1 ADD SWAP1 PUSH1 0x20 ADD DUP1 DUP4 GT PUSH2 0x1419 JUMPI DUP3 SWAP1 SUB PUSH1 0x1F AND DUP3 ADD SWAP2 JUMPDEST POP POP POP POP POP DUP2 JUMP JUMPDEST PUSH1 0x9 SLOAD PUSH1 0x60 SWAP1 PUSH1 0x0 SWAP1 DUP1 DUP6 LT PUSH2 0x1489 JUMPI PUSH1 0x40 DUP1 MLOAD PUSH1 0x0 DUP1 DUP3 MSTORE PUSH1 0x20 DUP3 ADD SWAP1 SWAP3 MSTORE SWAP1 PUSH2 0x147F JUMP JUMPDEST PUSH2 0x146C PUSH2 0x2C17 JUMP JUMPDEST DUP2 MSTORE PUSH1 0x20 ADD SWAP1 PUSH1 0x1 SWAP1 SUB SWAP1 DUP2 PUSH2 0x1464 JUMPI SWAP1 POP JUMPDEST POP SWAP3 POP SWAP1 POP PUSH2 0x1745 JUMP JUMPDEST PUSH1 0x0 PUSH2 0x1495 DUP6 DUP8 PUSH2 0x33C4 JUMP JUMPDEST SWAP1 POP DUP2 DUP2 GT ISZERO PUSH2 0x14A2 JUMPI POP DUP1 JUMPDEST PUSH1 0x0 PUSH2 0x14AE DUP8 DUP4 PUSH2 0x3382 JUMP JUMPDEST SWAP1 POP PUSH1 0x0 DUP2 PUSH8 0xFFFFFFFFFFFFFFFF DUP2 GT ISZERO PUSH2 0x14CB JUMPI PUSH2 0x14CB PUSH2 0x2E70 JUMP JUMPDEST PUSH1 0x40 MLOAD SWAP1 DUP1 DUP3 MSTORE DUP1 PUSH1 0x20 MUL PUSH1 0x20 ADD DUP3 ADD PUSH1 0x40 MSTORE DUP1 ISZERO PUSH2 0x1504 JUMPI DUP2 PUSH1 0x20 ADD JUMPDEST PUSH2 0x14F1 PUSH2 0x2C17 JUMP JUMPDEST DUP2 MSTORE PUSH1 0x20 ADD SWAP1 PUSH1 0x1 SWAP1 SUB SWAP1 DUP2 PUSH2 0x14E9 JUMPI SWAP1 POP JUMPDEST POP SWAP1 POP PUSH1 0x0 JUMPDEST DUP3 DUP2 LT ISZERO PUSH2 0x173C JUMPI PUSH1 0x5 PUSH1 0x0 PUSH1 0x9 PUSH2 0x1522 DUP5 DUP14 PUSH2 0x33C4 JUMP JUMPDEST DUP2 SLOAD DUP2 LT PUSH2 0x1532 JUMPI PUSH2 0x1532 PUSH2 0x3356 JUMP JUMPDEST SWAP1 PUSH1 0x0 MSTORE PUSH1 0x20 PUSH1 0x0 KECCAK256 ADD SLOAD DUP2 MSTORE PUSH1 0x20 ADD SWAP1 DUP2 MSTORE PUSH1 0x20 ADD PUSH1 0x0 KECCAK256 PUSH1 0x40 MLOAD DUP1 PUSH2 0x120 ADD PUSH1 0x40 MSTORE SWAP1 DUP2 PUSH1 0x0 DUP3 ADD SLOAD DUP2 MSTORE PUSH1 0x20 ADD PUSH1 0x1 DUP3 ADD DUP1 SLOAD PUSH2 0x1571 SWAP1 PUSH2 0x32F9 JUMP JUMPDEST DUP1 PUSH1 0x1F ADD PUSH1 0x20 DUP1 SWAP2 DIV MUL PUSH1 0x20 ADD PUSH1 0x40 MLOAD SWAP1 DUP2 ADD PUSH1 0x40 MSTORE DUP1 SWAP3 SWAP2 SWAP1 DUP2 DUP2 MSTORE PUSH1 0x20 ADD DUP3 DUP1 SLOAD PUSH2 0x159D SWAP1 PUSH2 0x32F9 JUMP JUMPDEST DUP1 ISZERO PUSH2 0x15EA JUMPI DUP1 PUSH1 0x1F LT PUSH2 0x15BF JUMPI PUSH2 0x100 DUP1 DUP4 SLOAD DIV MUL DUP4 MSTORE SWAP2 PUSH1 0x20 ADD SWAP2 PUSH2 0x15EA JUMP JUMPDEST DUP3 ADD SWAP2 SWAP1 PUSH1 0x0 MSTORE PUSH1 0x20 PUSH1 0x0 KECCAK256 SWAP1 JUMPDEST DUP2 SLOAD DUP2 MSTORE SWAP1 PUSH1 0x1 ADD SWAP1 PUSH1 0x20 ADD DUP1 DUP4 GT PUSH2 0x15CD JUMPI DUP3 SWAP1 SUB PUSH1 0x1F AND DUP3 ADD SWAP2 JUMPDEST POP POP POP POP POP DUP2 MSTORE PUSH1 0x20 ADD PUSH1 0x2 DUP3 ADD SLOAD DUP2 MSTORE PUSH1 0x20 ADD PUSH1 0x3 DUP3 ADD PUSH1 0x0 SWAP1 SLOAD SWAP1 PUSH2 0x100 EXP SWAP1 DIV PUSH1 0x1 PUSH1 0x1 PUSH1 0xA0 SHL SUB AND PUSH1 0x1 PUSH1 0x1 PUSH1 0xA0 SHL SUB AND PUSH1 0x1 PUSH1 0x1 PUSH1 0xA0 SHL SUB AND DUP2 MSTORE PUSH1 0x20 ADD PUSH1 0x4 DUP3 ADD DUP1 SLOAD DUP1 PUSH1 0x20 MUL PUSH1 0x20 ADD PUSH1 0x40 MLOAD SWAP1 DUP2 ADD PUSH1 0x40 MSTORE DUP1 SWAP3 SWAP2 SWAP1 DUP2 DUP2 MSTORE PUSH1 0x20 ADD DUP3 DUP1 SLOAD DUP1 ISZERO PUSH2 0x1685 JUMPI PUSH1 0x20 MUL DUP3 ADD SWAP2 SWAP1 PUSH1 0x0 MSTORE PUSH1 0x20 PUSH1 0x0 KECCAK256 SWAP1 JUMPDEST DUP2 SLOAD PUSH1 0x1 PUSH1 0x1 PUSH1 0xA0 SHL SUB AND DUP2 MSTORE PUSH1 0x1 SWAP1 SWAP2 ADD SWAP1 PUSH1 0x20 ADD DUP1 DUP4 GT PUSH2 0x1667 JUMPI JUMPDEST POP POP POP POP POP DUP2 MSTORE PUSH1 0x20 ADD PUSH1 0x5 DUP3 ADD DUP1 SLOAD DUP1 PUSH1 0x20 MUL PUSH1 0x20 ADD PUSH1 0x40 MLOAD SWAP1 DUP2 ADD PUSH1 0x40 MSTORE DUP1 SWAP3 SWAP2 SWAP1 DUP2 DUP2 MSTORE PUSH1 0x20 ADD DUP3 DUP1 SLOAD DUP1 ISZERO PUSH2 0x16DD JUMPI PUSH1 0x20 MUL DUP3 ADD SWAP2 SWAP1 PUSH1 0x0 MSTORE PUSH1 0x20 PUSH1 0x0 KECCAK256 SWAP1 JUMPDEST DUP2 SLOAD DUP2 MSTORE PUSH1 0x20 ADD SWAP1 PUSH1 0x1 ADD SWAP1 DUP1 DUP4 GT PUSH2 0x16C9 JUMPI JUMPDEST POP POP POP SWAP2 DUP4 MSTORE POP POP PUSH1 0x6 DUP3 ADD SLOAD PUSH1 0xFF AND ISZERO ISZERO PUSH1 0x20 DUP3 ADD MSTORE PUSH1 0x7 DUP3 ADD SLOAD PUSH1 0x40 DUP3 ADD MSTORE PUSH1 0x8 SWAP1 SWAP2 ADD SLOAD PUSH1 0x60 SWAP1 SWAP2 ADD MSTORE DUP3 MLOAD DUP4 SWAP1 DUP4 SWAP1 DUP2 LT PUSH2 0x171E JUMPI PUSH2 0x171E PUSH2 0x3356 JUMP JUMPDEST PUSH1 0x20 MUL PUSH1 0x20 ADD ADD DUP2 SWAP1 MSTORE POP DUP1 DUP1 PUSH2 0x1734 SWAP1 PUSH2 0x33AB JUMP JUMPDEST SWAP2 POP POP PUSH2 0x150A JUMP JUMPDEST POP SWAP5 POP SWAP2 SWAP3 POP POP POP JUMPDEST SWAP3 POP SWAP3 SWAP1 POP JUMP JUMPDEST PUSH1 0x8 SLOAD PUSH1 0x60 SWAP1 PUSH1 0x0 SWAP1 DUP1 DUP6 LT PUSH2 0x1772 JUMPI PUSH1 0x40 DUP1 MLOAD PUSH1 0x0 DUP1 DUP3 MSTORE PUSH1 0x20 DUP3 ADD SWAP1 SWAP3 MSTORE SWAP1 PUSH2 0x147F JUMP JUMPDEST PUSH1 0x0 PUSH2 0x177E DUP6 DUP8 PUSH2 0x33C4 JUMP JUMPDEST SWAP1 POP DUP2 DUP2 GT ISZERO PUSH2 0x178B JUMPI POP DUP1 JUMPDEST PUSH1 0x0 PUSH2 0x1797 DUP8 DUP4 PUSH2 0x3382 JUMP JUMPDEST SWAP1 POP PUSH1 0x0 DUP2 PUSH8 0xFFFFFFFFFFFFFFFF DUP2 GT ISZERO PUSH2 0x17B4 JUMPI PUSH2 0x17B4 PUSH2 0x2E70 JUMP JUMPDEST PUSH1 0x40 MLOAD SWAP1 DUP1 DUP3 MSTORE DUP1 PUSH1 0x20 MUL PUSH1 0x20 ADD DUP3 ADD PUSH1 0x40 MSTORE DUP1 ISZERO PUSH2 0x17DD JUMPI DUP2 PUSH1 0x20 ADD PUSH1 0x20 DUP3 MUL DUP1 CALLDATASIZE DUP4 CALLDATACOPY ADD SWAP1 POP JUMPDEST POP SWAP1 POP PUSH1 0x0 JUMPDEST DUP3 DUP2 LT ISZERO PUSH2 0x173C JUMPI PUSH1 0x8 PUSH2 0x17F7 DUP3 DUP12 PUSH2 0x33C4 JUMP JUMPDEST DUP2 SLOAD DUP2 LT PUSH2 0x1807 JUMPI PUSH2 0x1807 PUSH2 0x3356 JUMP JUMPDEST SWAP1 PUSH1 0x0 MSTORE PUSH1 0x20 PUSH1 0x0 KECCAK256 ADD PUSH1 0x0 SWAP1 SLOAD SWAP1 PUSH2 0x100 EXP SWAP1 DIV PUSH1 0x1 PUSH1 0x1 PUSH1 0xA0 SHL SUB AND DUP3 DUP3 DUP2 MLOAD DUP2 LT PUSH2 0x1837 JUMPI PUSH2 0x1837 PUSH2 0x3356 JUMP JUMPDEST PUSH1 0x1 PUSH1 0x1 PUSH1 0xA0 SHL SUB SWAP1 SWAP3 AND PUSH1 0x20 SWAP3 DUP4 MUL SWAP2 SWAP1 SWAP2 ADD SWAP1 SWAP2 ADD MSTORE DUP1 PUSH2 0x1859 DUP2 PUSH2 0x33AB JUMP JUMPDEST SWAP2 POP POP PUSH2 0x17E3 JUMP JUMPDEST PUSH1 0x9 DUP2 DUP2 SLOAD DUP2 LT PUSH2 0x1871 JUMPI PUSH1 0x0 DUP1 REVERT JUMPDEST PUSH1 0x0 SWAP2 DUP3 MSTORE PUSH1 0x20 SWAP1 SWAP2 KECCAK256 ADD SLOAD SWAP1 POP DUP2 JUMP JUMPDEST PUSH2 0x188A PUSH2 0x2982 JUMP JUMPDEST DUP1 PUSH1 0x1 PUSH1 0x1 PUSH1 0xA0 SHL SUB DUP2 AND PUSH2 0x18B1 JUMPI PUSH1 0x40 MLOAD PUSH3 0x461BCD PUSH1 0xE5 SHL DUP2 MSTORE PUSH1 0x4 ADD PUSH2 0x255 SWAP1 PUSH2 0x332D JUMP JUMPDEST PUSH1 0x1 PUSH1 0x1 PUSH1 0xA0 SHL SUB DUP2 AND PUSH1 0x0 SWAP1 DUP2 MSTORE PUSH1 0x4 PUSH1 0x20 DUP2 SWAP1 MSTORE PUSH1 0x40 SWAP1 SWAP2 KECCAK256 ADD SLOAD PUSH1 0xFF AND PUSH2 0x1911 JUMPI PUSH1 0x40 MLOAD PUSH3 0x461BCD PUSH1 0xE5 SHL DUP2 MSTORE PUSH1 0x20 PUSH1 0x4 DUP3 ADD MSTORE PUSH1 0x11 PUSH1 0x24 DUP3 ADD MSTORE PUSH17 0x4D656D626572206E6F7420616374697665 PUSH1 0x78 SHL PUSH1 0x44 DUP3 ADD MSTORE PUSH1 0x64 ADD PUSH2 0x255 JUMP JUMPDEST PUSH1 0x1 SLOAD PUSH1 0x1 PUSH1 0xA0 SHL SWAP1 DIV PUSH1 0xFF AND ISZERO PUSH2 0x193B JUMPI PUSH1 0x40 MLOAD PUSH3 0x461BCD PUSH1 0xE5 SHL DUP2 MSTORE PUSH1 0x4 ADD PUSH2 0x255 SWAP1 PUSH2 0x33D7 JUMP JUMPDEST CALLER PUSH1 0x0 SWAP1 DUP2 MSTORE PUSH1 0x6 PUSH1 0x20 SWAP1 DUP2 MSTORE PUSH1 0x40 DUP1 DUP4 KECCAK256 PUSH1 0x1 PUSH1 0x1 PUSH1 0xA0 SHL SUB DUP7 AND DUP5 MSTORE SWAP1 SWAP2 MSTORE SWAP1 KECCAK256 SLOAD DUP1 PUSH2 0x19A0 JUMPI PUSH1 0x40 MLOAD PUSH3 0x461BCD PUSH1 0xE5 SHL DUP2 MSTORE PUSH1 0x20 PUSH1 0x4 DUP3 ADD MSTORE PUSH1 0x11 PUSH1 0x24 DUP3 ADD MSTORE PUSH17 0x4E6F206465627420746F20736574746C65 PUSH1 0x78 SHL PUSH1 0x44 DUP3 ADD MSTORE PUSH1 0x64 ADD PUSH2 0x255 JUMP JUMPDEST DUP1 CALLVALUE LT ISZERO PUSH2 0x19E7 JUMPI PUSH1 0x40 MLOAD PUSH3 0x461BCD PUSH1 0xE5 SHL DUP2 MSTORE PUSH1 0x20 PUSH1 0x4 DUP3 ADD MSTORE PUSH1 0x14 PUSH1 0x24 DUP3 ADD MSTORE PUSH20 0x125B9CDD59999A58DA595B9D081C185E5B595B9D PUSH1 0x62 SHL PUSH1 0x44 DUP3 ADD MSTORE PUSH1 0x64 ADD PUSH2 0x255 JUMP JUMPDEST CALLER PUSH1 0x0 DUP2 DUP2 MSTORE PUSH1 0x6 PUSH1 0x20 SWAP1 DUP2 MSTORE PUSH1 0x40 DUP1 DUP4 KECCAK256 PUSH1 0x1 PUSH1 0x1 PUSH1 0xA0 SHL SUB DUP9 AND DUP5 MSTORE DUP3 MSTORE DUP1 DUP4 KECCAK256 DUP4 SWAP1 SSTORE SWAP3 DUP3 MSTORE PUSH1 0x4 SWAP1 MSTORE SWAP1 DUP2 KECCAK256 PUSH1 0x2 ADD DUP1 SLOAD DUP4 SWAP3 SWAP1 PUSH2 0x1A2A SWAP1 DUP5 SWAP1 PUSH2 0x3382 JUMP JUMPDEST SWAP1 SWAP2 SSTORE POP POP PUSH1 0x1 PUSH1 0x1 PUSH1 0xA0 SHL SUB DUP4 AND PUSH1 0x0 SWAP1 DUP2 MSTORE PUSH1 0x4 PUSH1 0x20 MSTORE PUSH1 0x40 DUP2 KECCAK256 PUSH1 0x3 ADD DUP1 SLOAD DUP4 SWAP3 SWAP1 PUSH2 0x1A5A SWAP1 DUP5 SWAP1 PUSH2 0x3382 JUMP JUMPDEST SWAP1 SWAP2 SSTORE POP POP PUSH1 0xB DUP1 SLOAD PUSH1 0x0 SWAP2 DUP3 PUSH2 0x1A70 DUP4 PUSH2 0x33AB JUMP JUMPDEST SWAP2 SWAP1 POP SSTORE SWAP1 POP PUSH1 0x40 MLOAD DUP1 PUSH1 0xA0 ADD PUSH1 0x40 MSTORE DUP1 CALLER PUSH1 0x1 PUSH1 0x1 PUSH1 0xA0 SHL SUB AND DUP2 MSTORE PUSH1 0x20 ADD DUP6 PUSH1 0x1 PUSH1 0x1 PUSH1 0xA0 SHL SUB AND DUP2 MSTORE PUSH1 0x20 ADD DUP4 DUP2 MSTORE PUSH1 0x20 ADD TIMESTAMP DUP2 MSTORE PUSH1 0x20 ADD TIMESTAMP CALLER DUP8 DUP7 PUSH1 0x40 MLOAD PUSH1 0x20 ADD PUSH2 0x1AF0 SWAP5 SWAP4 SWAP3 SWAP2 SWAP1 SWAP4 DUP5 MSTORE PUSH1 0x60 SWAP3 DUP4 SHL PUSH12 0xFFFFFFFFFFFFFFFFFFFFFFFF NOT SWAP1 DUP2 AND PUSH1 0x20 DUP7 ADD MSTORE SWAP2 SWAP1 SWAP3 SHL AND PUSH1 0x34 DUP4 ADD MSTORE PUSH1 0x48 DUP3 ADD MSTORE PUSH1 0x68 ADD SWAP1 JUMP JUMPDEST PUSH1 0x40 DUP1 MLOAD DUP1 DUP4 SUB PUSH1 0x1F NOT ADD DUP2 MSTORE SWAP2 DUP2 MSTORE DUP2 MLOAD PUSH1 0x20 SWAP3 DUP4 ADD KECCAK256 SWAP1 SWAP3 MSTORE PUSH1 0x0 DUP5 DUP2 MSTORE PUSH1 0x7 DUP3 MSTORE DUP3 DUP2 KECCAK256 DUP5 MLOAD DUP2 SLOAD PUSH1 0x1 PUSH1 0x1 PUSH1 0xA0 SHL SUB NOT SWAP1 DUP2 AND PUSH1 0x1 PUSH1 0x1 PUSH1 0xA0 SHL SUB SWAP3 DUP4 AND OR DUP4 SSTORE SWAP4 DUP7 ADD MLOAD PUSH1 0x1 DUP4 ADD DUP1 SLOAD SWAP1 SWAP6 AND SWAP1 DUP3 AND OR SWAP1 SWAP4 SSTORE DUP5 DUP5 ADD MLOAD PUSH1 0x2 DUP3 ADD SSTORE PUSH1 0x60 DUP6 ADD MLOAD PUSH1 0x3 DUP3 ADD SSTORE PUSH1 0x80 SWAP1 SWAP5 ADD MLOAD PUSH1 0x4 SWAP1 SWAP5 ADD SWAP4 SWAP1 SWAP4 SSTORE SWAP1 MLOAD SWAP1 DUP7 AND SWAP1 DUP5 SWAP1 DUP4 DUP2 DUP2 DUP2 DUP6 DUP8 GAS CALL SWAP3 POP POP POP RETURNDATASIZE DUP1 PUSH1 0x0 DUP2 EQ PUSH2 0x1BAB JUMPI PUSH1 0x40 MLOAD SWAP2 POP PUSH1 0x1F NOT PUSH1 0x3F RETURNDATASIZE ADD AND DUP3 ADD PUSH1 0x40 MSTORE RETURNDATASIZE DUP3 MSTORE RETURNDATASIZE PUSH1 0x0 PUSH1 0x20 DUP5 ADD RETURNDATACOPY PUSH2 0x1BB0 JUMP JUMPDEST PUSH1 0x60 SWAP2 POP JUMPDEST POP POP SWAP1 POP DUP1 PUSH2 0x1BF2 JUMPI PUSH1 0x40 MLOAD PUSH3 0x461BCD PUSH1 0xE5 SHL DUP2 MSTORE PUSH1 0x20 PUSH1 0x4 DUP3 ADD MSTORE PUSH1 0xE PUSH1 0x24 DUP3 ADD MSTORE PUSH14 0x14185E5B595B9D0819985A5B1959 PUSH1 0x92 SHL PUSH1 0x44 DUP3 ADD MSTORE PUSH1 0x64 ADD PUSH2 0x255 JUMP JUMPDEST DUP3 CALLVALUE GT ISZERO PUSH2 0x1C8B JUMPI PUSH1 0x0 CALLER PUSH2 0x1C07 DUP6 CALLVALUE PUSH2 0x3382 JUMP JUMPDEST PUSH1 0x40 MLOAD PUSH1 0x0 DUP2 DUP2 DUP2 DUP6 DUP8 GAS CALL SWAP3 POP POP POP RETURNDATASIZE DUP1 PUSH1 0x0 DUP2 EQ PUSH2 0x1C43 JUMPI PUSH1 0x40 MLOAD SWAP2 POP PUSH1 0x1F NOT PUSH1 0x3F RETURNDATASIZE ADD AND DUP3 ADD PUSH1 0x40 MSTORE RETURNDATASIZE DUP3 MSTORE RETURNDATASIZE PUSH1 0x0 PUSH1 0x20 DUP5 ADD RETURNDATACOPY PUSH2 0x1C48 JUMP JUMPDEST PUSH1 0x60 SWAP2 POP JUMPDEST POP POP SWAP1 POP DUP1 PUSH2 0x1C89 JUMPI PUSH1 0x40 MLOAD PUSH3 0x461BCD PUSH1 0xE5 SHL DUP2 MSTORE PUSH1 0x20 PUSH1 0x4 DUP3 ADD MSTORE PUSH1 0xD PUSH1 0x24 DUP3 ADD MSTORE PUSH13 0x1499599D5B990819985A5B1959 PUSH1 0x9A SHL PUSH1 0x44 DUP3 ADD MSTORE PUSH1 0x64 ADD PUSH2 0x255 JUMP JUMPDEST POP JUMPDEST PUSH1 0x40 DUP1 MLOAD DUP5 DUP2 MSTORE PUSH1 0x20 DUP2 ADD DUP5 SWAP1 MSTORE PUSH1 0x1 PUSH1 0x1 PUSH1 0xA0 SHL SUB DUP8 AND SWAP2 CALLER SWAP2 PUSH32 0x31BEBD4F9E31F2EFCBDD89389DA31BE464DFC71A4DC6B5EAE9C4E3A11B4CC106 SWAP2 ADD PUSH1 0x40 MLOAD DUP1 SWAP2 SUB SWAP1 LOG3 POP POP POP POP PUSH2 0x1CDF PUSH1 0x1 PUSH1 0x0 SSTORE JUMP JUMPDEST POP JUMP JUMPDEST PUSH1 0x5 PUSH1 0x20 MSTORE PUSH1 0x0 SWAP1 DUP2 MSTORE PUSH1 0x40 SWAP1 KECCAK256 DUP1 SLOAD PUSH1 0x1 DUP3 ADD DUP1 SLOAD SWAP2 SWAP3 SWAP2 PUSH2 0x1D04 SWAP1 PUSH2 0x32F9 JUMP JUMPDEST DUP1 PUSH1 0x1F ADD PUSH1 0x20 DUP1 SWAP2 DIV MUL PUSH1 0x20 ADD PUSH1 0x40 MLOAD SWAP1 DUP2 ADD PUSH1 0x40 MSTORE DUP1 SWAP3 SWAP2 SWAP1 DUP2 DUP2 MSTORE PUSH1 0x20 ADD DUP3 DUP1 SLOAD PUSH2 0x1D30 SWAP1 PUSH2 0x32F9 JUMP JUMPDEST DUP1 ISZERO PUSH2 0x1D7D JUMPI DUP1 PUSH1 0x1F LT PUSH2 0x1D52 JUMPI PUSH2 0x100 DUP1 DUP4 SLOAD DIV MUL DUP4 MSTORE SWAP2 PUSH1 0x20 ADD SWAP2 PUSH2 0x1D7D JUMP JUMPDEST DUP3 ADD SWAP2 SWAP1 PUSH1 0x0 MSTORE PUSH1 0x20 PUSH1 0x0 KECCAK256 SWAP1 JUMPDEST DUP2 SLOAD DUP2 MSTORE SWAP1 PUSH1 0x1 ADD SWAP1 PUSH1 0x20 ADD DUP1 DUP4 GT PUSH2 0x1D60 JUMPI DUP3 SWAP1 SUB PUSH1 0x1F AND DUP3 ADD SWAP2 JUMPDEST POP POP POP PUSH1 0x2 DUP5 ADD SLOAD PUSH1 0x3 DUP6 ADD SLOAD PUSH1 0x6 DUP7 ADD SLOAD PUSH1 0x7 DUP8 ADD SLOAD PUSH1 0x8 SWAP1 SWAP8 ADD SLOAD SWAP6 SWAP7 SWAP3 SWAP6 PUSH1 0x1 PUSH1 0x1 PUSH1 0xA0 SHL SUB SWAP1 SWAP3 AND SWAP5 POP PUSH1 0xFF AND SWAP3 POP DUP8 JUMP JUMPDEST PUSH1 0x8 DUP2 DUP2 SLOAD DUP2 LT PUSH2 0x1DC3 JUMPI PUSH1 0x0 DUP1 REVERT JUMPDEST PUSH1 0x0 SWAP2 DUP3 MSTORE PUSH1 0x20 SWAP1 SWAP2 KECCAK256 ADD SLOAD PUSH1 0x1 PUSH1 0x1 PUSH1 0xA0 SHL SUB AND SWAP1 POP DUP2 JUMP JUMPDEST PUSH2 0x1DE5 PUSH2 0x2870 JUMP JUMPDEST PUSH1 0x1 SLOAD PUSH1 0x1 PUSH1 0xA0 SHL SWAP1 DIV PUSH1 0xFF AND ISZERO PUSH2 0x1E0F JUMPI PUSH1 0x40 MLOAD PUSH3 0x461BCD PUSH1 0xE5 SHL DUP2 MSTORE PUSH1 0x4 ADD PUSH2 0x255 SWAP1 PUSH2 0x33D7 JUMP JUMPDEST PUSH1 0x8 SLOAD PUSH1 0x32 GT PUSH2 0x1E61 JUMPI PUSH1 0x40 MLOAD PUSH3 0x461BCD PUSH1 0xE5 SHL DUP2 MSTORE PUSH1 0x20 PUSH1 0x4 DUP3 ADD MSTORE PUSH1 0x17 PUSH1 0x24 DUP3 ADD MSTORE PUSH32 0x4D6178696D756D206D656D626572732072656163686564000000000000000000 PUSH1 0x44 DUP3 ADD MSTORE PUSH1 0x64 ADD PUSH2 0x255 JUMP JUMPDEST PUSH2 0x1E6B DUP3 DUP3 PUSH2 0x29AC JUMP JUMPDEST PUSH1 0x40 MLOAD PUSH4 0x71BB7D2F PUSH1 0xE1 SHL DUP2 MSTORE PUSH1 0x1 PUSH1 0x1 PUSH1 0xA0 SHL SUB DUP4 DUP2 AND PUSH1 0x4 DUP4 ADD MSTORE ADDRESS PUSH1 0x24 DUP4 ADD MSTORE PUSH32 0x0 AND SWAP1 PUSH4 0xE376FA5E SWAP1 PUSH1 0x44 ADD PUSH1 0x0 PUSH1 0x40 MLOAD DUP1 DUP4 SUB DUP2 PUSH1 0x0 DUP8 DUP1 EXTCODESIZE ISZERO DUP1 ISZERO PUSH2 0x1ED4 JUMPI PUSH1 0x0 DUP1 REVERT JUMPDEST POP GAS CALL SWAP3 POP POP POP DUP1 ISZERO PUSH2 0x1EE5 JUMPI POP PUSH1 0x1 JUMPDEST POP JUMPDEST POP POP JUMP JUMPDEST PUSH2 0x1EF3 PUSH2 0x2870 JUMP JUMPDEST PUSH1 0x1 SLOAD PUSH1 0x1 PUSH1 0xA0 SHL SWAP1 DIV PUSH1 0xFF AND PUSH2 0x1F5C JUMPI PUSH1 0x40 MLOAD PUSH3 0x461BCD PUSH1 0xE5 SHL DUP2 MSTORE PUSH1 0x20 PUSH1 0x4 DUP3 ADD MSTORE PUSH1 0x27 PUSH1 0x24 DUP3 ADD MSTORE PUSH32 0x4D7573742062652070617573656420666F7220656D657267656E637920776974 PUSH1 0x44 DUP3 ADD MSTORE PUSH7 0x1A191C985DD85B PUSH1 0xCA SHL PUSH1 0x64 DUP3 ADD MSTORE PUSH1 0x84 ADD PUSH2 0x255 JUMP JUMPDEST SELFBALANCE DUP1 PUSH2 0x1FA1 JUMPI PUSH1 0x40 MLOAD PUSH3 0x461BCD PUSH1 0xE5 SHL DUP2 MSTORE PUSH1 0x20 PUSH1 0x4 DUP3 ADD MSTORE PUSH1 0x14 PUSH1 0x24 DUP3 ADD MSTORE PUSH20 0x4E6F2066756E647320746F207769746864726177 PUSH1 0x60 SHL PUSH1 0x44 DUP3 ADD MSTORE PUSH1 0x64 ADD PUSH2 0x255 JUMP JUMPDEST PUSH1 0x0 PUSH2 0x1FB5 PUSH1 0x1 SLOAD PUSH1 0x1 PUSH1 0x1 PUSH1 0xA0 SHL SUB AND SWAP1 JUMP JUMPDEST PUSH1 0x1 PUSH1 0x1 PUSH1 0xA0 SHL SUB AND DUP3 PUSH1 0x40 MLOAD PUSH1 0x0 PUSH1 0x40 MLOAD DUP1 DUP4 SUB DUP2 DUP6 DUP8 GAS CALL SWAP3 POP POP POP RETURNDATASIZE DUP1 PUSH1 0x0 DUP2 EQ PUSH2 0x1FFF JUMPI PUSH1 0x40 MLOAD SWAP2 POP PUSH1 0x1F NOT PUSH1 0x3F RETURNDATASIZE ADD AND DUP3 ADD PUSH1 0x40 MSTORE RETURNDATASIZE DUP3 MSTORE RETURNDATASIZE PUSH1 0x0 PUSH1 0x20 DUP5 ADD RETURNDATACOPY PUSH2 0x2004 JUMP JUMPDEST PUSH1 0x60 SWAP2 POP JUMPDEST POP POP SWAP1 POP DUP1 PUSH2 0x1EE7 JUMPI PUSH1 0x40 MLOAD PUSH3 0x461BCD PUSH1 0xE5 SHL DUP2 MSTORE PUSH1 0x20 PUSH1 0x4 DUP3 ADD MSTORE PUSH1 0x1B PUSH1 0x24 DUP3 ADD MSTORE PUSH32 0x456D657267656E6379207769746864726177616C206661696C65640000000000 PUSH1 0x44 DUP3 ADD MSTORE PUSH1 0x64 ADD PUSH2 0x255 JUMP JUMPDEST CALLER PUSH1 0x0 SWAP1 DUP2 MSTORE PUSH1 0x4 PUSH1 0x20 DUP2 SWAP1 MSTORE PUSH1 0x40 DUP3 KECCAK256 ADD SLOAD PUSH1 0xFF AND PUSH2 0x20AC JUMPI PUSH1 0x40 MLOAD PUSH3 0x461BCD PUSH1 0xE5 SHL DUP2 MSTORE PUSH1 0x20 PUSH1 0x4 DUP3 ADD MSTORE PUSH1 0x12 PUSH1 0x24 DUP3 ADD MSTORE PUSH18 0x2737BA10309033B937BAB81036B2B6B132B9 PUSH1 0x71 SHL PUSH1 0x44 DUP3 ADD MSTORE PUSH1 0x64 ADD PUSH2 0x255 JUMP JUMPDEST PUSH1 0x1 SLOAD PUSH1 0x1 PUSH1 0xA0 SHL SWAP1 DIV PUSH1 0xFF AND ISZERO PUSH2 0x20D6 JUMPI PUSH1 0x40 MLOAD PUSH3 0x461BCD PUSH1 0xE5 SHL DUP2 MSTORE PUSH1 0x4 ADD PUSH2 0x255 SWAP1 PUSH2 0x33D7 JUMP JUMPDEST PUSH1 0x0 DUP5 GT PUSH2 0x2126 JUMPI PUSH1 0x40 MLOAD PUSH3 0x461BCD PUSH1 0xE5 SHL DUP2 MSTORE PUSH1 0x20 PUSH1 0x4 DUP3 ADD MSTORE PUSH1 0x17 PUSH1 0x24 DUP3 ADD MSTORE PUSH32 0x416D6F756E74206D75737420626520706F736974697665000000000000000000 PUSH1 0x44 DUP3 ADD MSTORE PUSH1 0x64 ADD PUSH2 0x255 JUMP JUMPDEST PUSH1 0x0 DUP4 MLOAD GT DUP1 ISZERO PUSH2 0x2139 JUMPI POP PUSH1 0x14 DUP4 MLOAD GT ISZERO JUMPDEST PUSH2 0x2185 JUMPI PUSH1 0x40 MLOAD PUSH3 0x461BCD PUSH1 0xE5 SHL DUP2 MSTORE PUSH1 0x20 PUSH1 0x4 DUP3 ADD MSTORE PUSH1 0x1A PUSH1 0x24 DUP3 ADD MSTORE PUSH32 0x496E76616C6964207061727469636970616E747320636F756E74000000000000 PUSH1 0x44 DUP3 ADD MSTORE PUSH1 0x64 ADD PUSH2 0x255 JUMP JUMPDEST PUSH1 0x0 DUP6 MLOAD GT DUP1 ISZERO PUSH2 0x2198 JUMPI POP PUSH1 0xC8 DUP6 MLOAD GT ISZERO JUMPDEST PUSH2 0x21E4 JUMPI PUSH1 0x40 MLOAD PUSH3 0x461BCD PUSH1 0xE5 SHL DUP2 MSTORE PUSH1 0x20 PUSH1 0x4 DUP3 ADD MSTORE PUSH1 0x1A PUSH1 0x24 DUP3 ADD MSTORE PUSH32 0x496E76616C6964206465736372697074696F6E206C656E677468000000000000 PUSH1 0x44 DUP3 ADD MSTORE PUSH1 0x64 ADD PUSH2 0x255 JUMP JUMPDEST PUSH1 0x0 JUMPDEST DUP4 MLOAD DUP2 LT ISZERO PUSH2 0x233B JUMPI PUSH1 0x4 PUSH1 0x0 DUP6 DUP4 DUP2 MLOAD DUP2 LT PUSH2 0x2206 JUMPI PUSH2 0x2206 PUSH2 0x3356 JUMP JUMPDEST PUSH1 0x20 SWAP1 DUP2 MUL SWAP2 SWAP1 SWAP2 ADD DUP2 ADD MLOAD PUSH1 0x1 PUSH1 0x1 PUSH1 0xA0 SHL SUB AND DUP3 MSTORE DUP2 ADD SWAP2 SWAP1 SWAP2 MSTORE PUSH1 0x40 ADD PUSH1 0x0 KECCAK256 PUSH1 0x4 ADD SLOAD PUSH1 0xFF AND PUSH2 0x2272 JUMPI PUSH1 0x40 MLOAD PUSH3 0x461BCD PUSH1 0xE5 SHL DUP2 MSTORE PUSH1 0x20 PUSH1 0x4 DUP3 ADD MSTORE PUSH1 0x13 PUSH1 0x24 DUP3 ADD MSTORE PUSH19 0x125B9D985B1A59081C185C9D1A58DA5C185B9D PUSH1 0x6A SHL PUSH1 0x44 DUP3 ADD MSTORE PUSH1 0x64 ADD PUSH2 0x255 JUMP JUMPDEST PUSH1 0x0 PUSH2 0x227F DUP3 PUSH1 0x1 PUSH2 0x33C4 JUMP JUMPDEST SWAP1 POP JUMPDEST DUP5 MLOAD DUP2 LT ISZERO PUSH2 0x2328 JUMPI DUP5 DUP2 DUP2 MLOAD DUP2 LT PUSH2 0x229D JUMPI PUSH2 0x229D PUSH2 0x3356 JUMP JUMPDEST PUSH1 0x20 MUL PUSH1 0x20 ADD ADD MLOAD PUSH1 0x1 PUSH1 0x1 PUSH1 0xA0 SHL SUB AND DUP6 DUP4 DUP2 MLOAD DUP2 LT PUSH2 0x22C0 JUMPI PUSH2 0x22C0 PUSH2 0x3356 JUMP JUMPDEST PUSH1 0x20 MUL PUSH1 0x20 ADD ADD MLOAD PUSH1 0x1 PUSH1 0x1 PUSH1 0xA0 SHL SUB AND SUB PUSH2 0x2316 JUMPI PUSH1 0x40 MLOAD PUSH3 0x461BCD PUSH1 0xE5 SHL DUP2 MSTORE PUSH1 0x20 PUSH1 0x4 DUP3 ADD MSTORE PUSH1 0x15 PUSH1 0x24 DUP3 ADD MSTORE PUSH21 0x111D5C1B1A58D85D19481C185C9D1A58DA5C185B9D PUSH1 0x5A SHL PUSH1 0x44 DUP3 ADD MSTORE PUSH1 0x64 ADD PUSH2 0x255 JUMP JUMPDEST DUP1 PUSH2 0x2320 DUP2 PUSH2 0x33AB JUMP JUMPDEST SWAP2 POP POP PUSH2 0x2282 JUMP JUMPDEST POP DUP1 PUSH2 0x2333 DUP2 PUSH2 0x33AB JUMP JUMPDEST SWAP2 POP POP PUSH2 0x21E7 JUMP JUMPDEST POP PUSH1 0x0 DUP4 MLOAD DUP6 PUSH2 0x234B SWAP2 SWAP1 PUSH2 0x3527 JUMP JUMPDEST SWAP1 POP PUSH1 0x0 DUP5 MLOAD DUP7 PUSH2 0x235C SWAP2 SWAP1 PUSH2 0x353B JUMP JUMPDEST SWAP1 POP PUSH1 0x0 DUP6 MLOAD PUSH8 0xFFFFFFFFFFFFFFFF DUP2 GT ISZERO PUSH2 0x237A JUMPI PUSH2 0x237A PUSH2 0x2E70 JUMP JUMPDEST PUSH1 0x40 MLOAD SWAP1 DUP1 DUP3 MSTORE DUP1 PUSH1 0x20 MUL PUSH1 0x20 ADD DUP3 ADD PUSH1 0x40 MSTORE DUP1 ISZERO PUSH2 0x23A3 JUMPI DUP2 PUSH1 0x20 ADD PUSH1 0x20 DUP3 MUL DUP1 CALLDATASIZE DUP4 CALLDATACOPY ADD SWAP1 POP JUMPDEST POP SWAP1 POP PUSH1 0x0 DUP1 JUMPDEST DUP8 MLOAD DUP2 LT ISZERO PUSH2 0x243F JUMPI DUP5 DUP4 DUP3 DUP2 MLOAD DUP2 LT PUSH2 0x23C6 JUMPI PUSH2 0x23C6 PUSH2 0x3356 JUMP JUMPDEST PUSH1 0x20 MUL PUSH1 0x20 ADD ADD DUP2 DUP2 MSTORE POP POP DUP4 DUP2 LT ISZERO PUSH2 0x2406 JUMPI PUSH1 0x1 DUP4 DUP3 DUP2 MLOAD DUP2 LT PUSH2 0x23EE JUMPI PUSH2 0x23EE PUSH2 0x3356 JUMP JUMPDEST PUSH1 0x20 MUL PUSH1 0x20 ADD ADD DUP2 DUP2 MLOAD PUSH2 0x2402 SWAP2 SWAP1 PUSH2 0x33C4 JUMP JUMPDEST SWAP1 MSTORE POP JUMPDEST DUP3 DUP2 DUP2 MLOAD DUP2 LT PUSH2 0x2418 JUMPI PUSH2 0x2418 PUSH2 0x3356 JUMP JUMPDEST PUSH1 0x20 MUL PUSH1 0x20 ADD ADD MLOAD DUP3 PUSH2 0x242B SWAP2 SWAP1 PUSH2 0x33C4 JUMP JUMPDEST SWAP2 POP DUP1 PUSH2 0x2437 DUP2 PUSH2 0x33AB JUMP JUMPDEST SWAP2 POP POP PUSH2 0x23AA JUMP JUMPDEST POP DUP8 DUP2 EQ PUSH2 0x244F JUMPI PUSH2 0x244F PUSH2 0x354F JUMP JUMPDEST PUSH1 0x3 DUP1 SLOAD PUSH1 0x0 SWAP2 DUP3 PUSH2 0x2460 DUP4 PUSH2 0x33AB JUMP JUMPDEST SWAP1 SWAP2 SSTORE POP PUSH1 0x40 DUP1 MLOAD PUSH2 0x120 DUP2 ADD DUP3 MSTORE DUP3 DUP2 MSTORE PUSH1 0x20 DUP1 DUP3 ADD DUP15 DUP2 MSTORE DUP3 DUP5 ADD DUP15 SWAP1 MSTORE CALLER PUSH1 0x60 DUP5 ADD MSTORE PUSH1 0x80 DUP4 ADD DUP14 SWAP1 MSTORE PUSH1 0xA0 DUP4 ADD DUP9 SWAP1 MSTORE PUSH1 0x0 PUSH1 0xC0 DUP5 ADD DUP2 SWAP1 MSTORE TIMESTAMP PUSH1 0xE0 DUP6 ADD MSTORE PUSH2 0x100 DUP5 ADD DUP14 SWAP1 MSTORE DUP6 DUP2 MSTORE PUSH1 0x5 SWAP1 SWAP3 MSTORE SWAP3 SWAP1 KECCAK256 DUP2 MLOAD DUP2 SSTORE SWAP2 MLOAD SWAP3 SWAP4 POP SWAP2 PUSH1 0x1 DUP3 ADD SWAP1 PUSH2 0x24CF SWAP1 DUP3 PUSH2 0x3451 JUMP JUMPDEST POP PUSH1 0x40 DUP3 ADD MLOAD PUSH1 0x2 DUP3 ADD SSTORE PUSH1 0x60 DUP3 ADD MLOAD PUSH1 0x3 DUP3 ADD DUP1 SLOAD PUSH1 0x1 PUSH1 0x1 PUSH1 0xA0 SHL SUB NOT AND PUSH1 0x1 PUSH1 0x1 PUSH1 0xA0 SHL SUB SWAP1 SWAP3 AND SWAP2 SWAP1 SWAP2 OR SWAP1 SSTORE PUSH1 0x80 DUP3 ADD MLOAD DUP1 MLOAD PUSH2 0x251B SWAP2 PUSH1 0x4 DUP5 ADD SWAP2 PUSH1 0x20 SWAP1 SWAP2 ADD SWAP1 PUSH2 0x2C71 JUMP JUMPDEST POP PUSH1 0xA0 DUP3 ADD MLOAD DUP1 MLOAD PUSH2 0x2537 SWAP2 PUSH1 0x5 DUP5 ADD SWAP2 PUSH1 0x20 SWAP1 SWAP2 ADD SWAP1 PUSH2 0x2CD6 JUMP JUMPDEST POP PUSH1 0xC0 DUP3 ADD MLOAD PUSH1 0x6 DUP3 ADD DUP1 SLOAD PUSH1 0xFF NOT AND SWAP2 ISZERO ISZERO SWAP2 SWAP1 SWAP2 OR SWAP1 SSTORE PUSH1 0xE0 DUP3 ADD MLOAD PUSH1 0x7 DUP3 ADD SSTORE PUSH2 0x100 SWAP1 SWAP2 ADD MLOAD PUSH1 0x8 SWAP1 SWAP2 ADD SSTORE PUSH1 0x9 DUP1 SLOAD PUSH1 0x1 DUP2 ADD DUP3 SSTORE PUSH1 0x0 SWAP2 DUP3 MSTORE PUSH32 0x6E1540171B6C0C960B71A7020D9F60077F6AF931A8BBF590DA0223DACF75C7AF ADD DUP3 SWAP1 SSTORE JUMPDEST DUP9 MLOAD DUP2 LT ISZERO PUSH2 0x2742 JUMPI CALLER PUSH1 0x1 PUSH1 0x1 PUSH1 0xA0 SHL SUB AND DUP10 DUP3 DUP2 MLOAD DUP2 LT PUSH2 0x25C1 JUMPI PUSH2 0x25C1 PUSH2 0x3356 JUMP JUMPDEST PUSH1 0x20 MUL PUSH1 0x20 ADD ADD MLOAD PUSH1 0x1 PUSH1 0x1 PUSH1 0xA0 SHL SUB AND EQ PUSH2 0x2730 JUMPI DUP4 DUP2 DUP2 MLOAD DUP2 LT PUSH2 0x25E9 JUMPI PUSH2 0x25E9 PUSH2 0x3356 JUMP JUMPDEST PUSH1 0x20 MUL PUSH1 0x20 ADD ADD MLOAD PUSH1 0x6 PUSH1 0x0 DUP12 DUP5 DUP2 MLOAD DUP2 LT PUSH2 0x2607 JUMPI PUSH2 0x2607 PUSH2 0x3356 JUMP JUMPDEST PUSH1 0x20 MUL PUSH1 0x20 ADD ADD MLOAD PUSH1 0x1 PUSH1 0x1 PUSH1 0xA0 SHL SUB AND PUSH1 0x1 PUSH1 0x1 PUSH1 0xA0 SHL SUB AND DUP2 MSTORE PUSH1 0x20 ADD SWAP1 DUP2 MSTORE PUSH1 0x20 ADD PUSH1 0x0 KECCAK256 PUSH1 0x0 CALLER PUSH1 0x1 PUSH1 0x1 PUSH1 0xA0 SHL SUB AND PUSH1 0x1 PUSH1 0x1 PUSH1 0xA0 SHL SUB AND DUP2 MSTORE PUSH1 0x20 ADD SWAP1 DUP2 MSTORE PUSH1 0x20 ADD PUSH1 0x0 KECCAK256 PUSH1 0x0 DUP3 DUP3 SLOAD PUSH2 0x2661 SWAP2 SWAP1 PUSH2 0x33C4 JUMP JUMPDEST SWAP3 POP POP DUP2 SWAP1 SSTORE POP DUP4 DUP2 DUP2 MLOAD DUP2 LT PUSH2 0x267A JUMPI PUSH2 0x267A PUSH2 0x3356 JUMP JUMPDEST PUSH1 0x20 MUL PUSH1 0x20 ADD ADD MLOAD PUSH1 0x4 PUSH1 0x0 DUP12 DUP5 DUP2 MLOAD DUP2 LT PUSH2 0x2698 JUMPI PUSH2 0x2698 PUSH2 0x3356 JUMP JUMPDEST PUSH1 0x20 MUL PUSH1 0x20 ADD ADD MLOAD PUSH1 0x1 PUSH1 0x1 PUSH1 0xA0 SHL SUB AND PUSH1 0x1 PUSH1 0x1 PUSH1 0xA0 SHL SUB AND DUP2 MSTORE PUSH1 0x20 ADD SWAP1 DUP2 MSTORE PUSH1 0x20 ADD PUSH1 0x0 KECCAK256 PUSH1 0x2 ADD PUSH1 0x0 DUP3 DUP3 SLOAD PUSH2 0x26D2 SWAP2 SWAP1 PUSH2 0x33C4 JUMP JUMPDEST SWAP3 POP POP DUP2 SWAP1 SSTORE POP DUP4 DUP2 DUP2 MLOAD DUP2 LT PUSH2 0x26EB JUMPI PUSH2 0x26EB PUSH2 0x3356 JUMP JUMPDEST PUSH1 0x20 MUL PUSH1 0x20 ADD ADD MLOAD PUSH1 0x4 PUSH1 0x0 CALLER PUSH1 0x1 PUSH1 0x1 PUSH1 0xA0 SHL SUB AND PUSH1 0x1 PUSH1 0x1 PUSH1 0xA0 SHL SUB AND DUP2 MSTORE PUSH1 0x20 ADD SWAP1 DUP2 MSTORE PUSH1 0x20 ADD PUSH1 0x0 KECCAK256 PUSH1 0x3 ADD PUSH1 0x0 DUP3 DUP3 SLOAD PUSH2 0x272A SWAP2 SWAP1 PUSH2 0x33C4 JUMP JUMPDEST SWAP1 SWAP2 SSTORE POP POP JUMPDEST DUP1 PUSH2 0x273A DUP2 PUSH2 0x33AB JUMP JUMPDEST SWAP2 POP POP PUSH2 0x259C JUMP JUMPDEST POP CALLER PUSH1 0x1 PUSH1 0x1 PUSH1 0xA0 SHL SUB AND DUP2 PUSH32 0xDB0DEBF4B1618503C6E2E44996A5479EEE196E1A5959982DC7E814D15674817A DUP12 DUP14 PUSH1 0x40 MLOAD PUSH2 0x277F SWAP3 SWAP2 SWAP1 PUSH2 0x3565 JUMP JUMPDEST PUSH1 0x40 MLOAD DUP1 SWAP2 SUB SWAP1 LOG3 SWAP10 SWAP9 POP POP POP POP POP POP POP POP POP JUMP JUMPDEST PUSH1 0xA DUP2 DUP2 SLOAD DUP2 LT PUSH2 0x1871 JUMPI PUSH1 0x0 DUP1 REVERT JUMPDEST PUSH2 0x27AC PUSH2 0x2870 JUMP JUMPDEST PUSH1 0x1 PUSH1 0x1 PUSH1 0xA0 SHL SUB DUP2 AND PUSH2 0x27D6 JUMPI PUSH1 0x40 MLOAD PUSH4 0x1E4FBDF7 PUSH1 0xE0 SHL DUP2 MSTORE PUSH1 0x0 PUSH1 0x4 DUP3 ADD MSTORE PUSH1 0x24 ADD PUSH2 0x255 JUMP JUMPDEST PUSH2 0x1CDF DUP2 PUSH2 0x2930 JUMP JUMPDEST PUSH1 0x1 PUSH1 0x1 PUSH1 0xA0 SHL SUB DUP2 AND PUSH1 0x0 SWAP1 DUP2 MSTORE PUSH1 0x4 PUSH1 0x20 DUP2 SWAP1 MSTORE PUSH1 0x40 DUP3 KECCAK256 ADD SLOAD PUSH1 0xFF AND PUSH2 0x283D JUMPI PUSH1 0x40 MLOAD PUSH3 0x461BCD PUSH1 0xE5 SHL DUP2 MSTORE PUSH1 0x20 PUSH1 0x4 DUP3 ADD MSTORE PUSH1 0x10 PUSH1 0x24 DUP3 ADD MSTORE PUSH16 0x13595B58995C881B9BDD08199BDD5B99 PUSH1 0x82 SHL PUSH1 0x44 DUP3 ADD MSTORE PUSH1 0x64 ADD PUSH2 0x255 JUMP JUMPDEST PUSH1 0x1 PUSH1 0x1 PUSH1 0xA0 SHL SUB DUP3 AND PUSH1 0x0 SWAP1 DUP2 MSTORE PUSH1 0x4 PUSH1 0x20 MSTORE PUSH1 0x40 SWAP1 KECCAK256 PUSH1 0x2 DUP2 ADD SLOAD PUSH1 0x3 SWAP1 SWAP2 ADD SLOAD PUSH2 0x286A SWAP2 SWAP1 PUSH2 0x3586 JUMP JUMPDEST SWAP3 SWAP2 POP POP JUMP JUMPDEST PUSH1 0x1 SLOAD PUSH1 0x1 PUSH1 0x1 PUSH1 0xA0 SHL SUB AND CALLER EQ PUSH2 0x1178 JUMPI PUSH1 0x40 MLOAD PUSH4 0x118CDAA7 PUSH1 0xE0 SHL DUP2 MSTORE CALLER PUSH1 0x4 DUP3 ADD MSTORE PUSH1 0x24 ADD PUSH2 0x255 JUMP JUMPDEST PUSH2 0x28A5 PUSH2 0x2BC2 JUMP JUMPDEST PUSH1 0x1 DUP1 SLOAD PUSH1 0xFF PUSH1 0xA0 SHL NOT AND SWAP1 SSTORE PUSH32 0x5DB9EE0A495BF2E6FF9C91A7834C1BA4FDD244A5E8AA4E537BD38AEAE4B073AA CALLER JUMPDEST PUSH1 0x40 MLOAD PUSH1 0x1 PUSH1 0x1 PUSH1 0xA0 SHL SUB SWAP1 SWAP2 AND DUP2 MSTORE PUSH1 0x20 ADD PUSH2 0x816 JUMP JUMPDEST PUSH2 0x28F5 PUSH2 0x2BEC JUMP JUMPDEST PUSH1 0x1 DUP1 SLOAD PUSH1 0xFF PUSH1 0xA0 SHL NOT AND PUSH1 0x1 PUSH1 0xA0 SHL OR SWAP1 SSTORE PUSH32 0x62E78CEA01BEE320CD4E420270B5EA74000D11B0C9F74754EBDBFC544B05A258 PUSH2 0x28D5 CALLER SWAP1 JUMP JUMPDEST PUSH1 0x1 DUP1 SLOAD PUSH1 0x1 PUSH1 0x1 PUSH1 0xA0 SHL SUB DUP4 DUP2 AND PUSH1 0x1 PUSH1 0x1 PUSH1 0xA0 SHL SUB NOT DUP4 AND DUP2 OR SWAP1 SWAP4 SSTORE PUSH1 0x40 MLOAD SWAP2 AND SWAP2 SWAP1 DUP3 SWAP1 PUSH32 0x8BE0079C531659141344CD1FD0A4F28419497F9722A3DAAFE3B4186F6B6457E0 SWAP1 PUSH1 0x0 SWAP1 LOG3 POP POP JUMP JUMPDEST PUSH1 0x2 PUSH1 0x0 SLOAD SUB PUSH2 0x29A5 JUMPI PUSH1 0x40 MLOAD PUSH4 0x3EE5AEB5 PUSH1 0xE0 SHL DUP2 MSTORE PUSH1 0x4 ADD PUSH1 0x40 MLOAD DUP1 SWAP2 SUB SWAP1 REVERT JUMPDEST PUSH1 0x2 PUSH1 0x0 SSTORE JUMP JUMPDEST PUSH1 0x1 PUSH1 0x1 PUSH1 0xA0 SHL SUB DUP3 AND PUSH2 0x29D2 JUMPI PUSH1 0x40 MLOAD PUSH3 0x461BCD PUSH1 0xE5 SHL DUP2 MSTORE PUSH1 0x4 ADD PUSH2 0x255 SWAP1 PUSH2 0x332D JUMP JUMPDEST PUSH1 0x1 PUSH1 0x1 PUSH1 0xA0 SHL SUB DUP3 AND PUSH1 0x0 SWAP1 DUP2 MSTORE PUSH1 0x4 PUSH1 0x20 DUP2 SWAP1 MSTORE PUSH1 0x40 SWAP1 SWAP2 KECCAK256 ADD SLOAD PUSH1 0xFF AND ISZERO PUSH2 0x2A37 JUMPI PUSH1 0x40 MLOAD PUSH3 0x461BCD PUSH1 0xE5 SHL DUP2 MSTORE PUSH1 0x20 PUSH1 0x4 DUP3 ADD MSTORE PUSH1 0x15 PUSH1 0x24 DUP3 ADD MSTORE PUSH21 0x4D656D62657220616C726561647920657869737473 PUSH1 0x58 SHL PUSH1 0x44 DUP3 ADD MSTORE PUSH1 0x64 ADD PUSH2 0x255 JUMP JUMPDEST PUSH1 0x0 DUP2 MLOAD GT DUP1 ISZERO PUSH2 0x2A4A JUMPI POP PUSH1 0x20 DUP2 MLOAD GT ISZERO JUMPDEST PUSH2 0x2A96 JUMPI PUSH1 0x40 MLOAD PUSH3 0x461BCD PUSH1 0xE5 SHL DUP2 MSTORE PUSH1 0x20 PUSH1 0x4 DUP3 ADD MSTORE PUSH1 0x17 PUSH1 0x24 DUP3 ADD MSTORE PUSH32 0x496E76616C6964206E69636B6E616D65206C656E677468000000000000000000 PUSH1 0x44 DUP3 ADD MSTORE PUSH1 0x64 ADD PUSH2 0x255 JUMP JUMPDEST PUSH1 0x40 DUP1 MLOAD PUSH1 0xC0 DUP2 ADD DUP3 MSTORE PUSH1 0x1 PUSH1 0x1 PUSH1 0xA0 SHL SUB DUP5 DUP2 AND DUP1 DUP4 MSTORE PUSH1 0x20 DUP1 DUP5 ADD DUP7 DUP2 MSTORE PUSH1 0x0 DUP6 DUP8 ADD DUP2 SWAP1 MSTORE PUSH1 0x60 DUP7 ADD DUP2 SWAP1 MSTORE PUSH1 0x1 PUSH1 0x80 DUP8 ADD DUP2 SWAP1 MSTORE TIMESTAMP PUSH1 0xA0 DUP9 ADD MSTORE SWAP4 DUP2 MSTORE PUSH1 0x4 SWAP1 SWAP3 MSTORE SWAP5 SWAP1 KECCAK256 DUP4 MLOAD DUP2 SLOAD PUSH1 0x1 PUSH1 0x1 PUSH1 0xA0 SHL SUB NOT AND SWAP4 AND SWAP3 SWAP1 SWAP3 OR DUP3 SSTORE SWAP3 MLOAD SWAP2 SWAP3 SWAP1 SWAP2 SWAP1 DUP3 ADD SWAP1 PUSH2 0x2B09 SWAP1 DUP3 PUSH2 0x3451 JUMP JUMPDEST POP PUSH1 0x40 DUP3 DUP2 ADD MLOAD PUSH1 0x2 DUP4 ADD SSTORE PUSH1 0x60 DUP4 ADD MLOAD PUSH1 0x3 DUP4 ADD SSTORE PUSH1 0x80 DUP4 ADD MLOAD PUSH1 0x4 DUP4 ADD DUP1 SLOAD PUSH1 0xFF NOT AND SWAP2 ISZERO ISZERO SWAP2 SWAP1 SWAP2 OR SWAP1 SSTORE PUSH1 0xA0 SWAP1 SWAP3 ADD MLOAD PUSH1 0x5 SWAP1 SWAP2 ADD SSTORE PUSH1 0x8 DUP1 SLOAD PUSH1 0x1 DUP2 ADD DUP3 SSTORE PUSH1 0x0 SWAP2 SWAP1 SWAP2 MSTORE PUSH32 0xF3F7A9FE364FAAB93B216DA50A3214154F22A0A2B415B23A84C8169E8B636EE3 ADD DUP1 SLOAD PUSH1 0x1 PUSH1 0x1 PUSH1 0xA0 SHL SUB NOT AND PUSH1 0x1 PUSH1 0x1 PUSH1 0xA0 SHL SUB DUP6 AND SWAP1 DUP2 OR SWAP1 SWAP2 SSTORE SWAP1 MLOAD PUSH32 0xAC4F9610B174640B0A902CE555FAA384CC9C9D291750F76E476F26F97BD079B4 SWAP1 PUSH2 0xBD2 SWAP1 DUP5 SWAP1 TIMESTAMP SWAP1 PUSH2 0x35AD JUMP JUMPDEST PUSH1 0x1 SLOAD PUSH1 0x1 PUSH1 0xA0 SHL SWAP1 DIV PUSH1 0xFF AND PUSH2 0x1178 JUMPI PUSH1 0x40 MLOAD PUSH4 0x8DFC202B PUSH1 0xE0 SHL DUP2 MSTORE PUSH1 0x4 ADD PUSH1 0x40 MLOAD DUP1 SWAP2 SUB SWAP1 REVERT JUMPDEST PUSH1 0x1 SLOAD PUSH1 0x1 PUSH1 0xA0 SHL SWAP1 DIV PUSH1 0xFF AND ISZERO PUSH2 0x1178 JUMPI PUSH1 0x40 MLOAD PUSH4 0xD93C0665 PUSH1 0xE0 SHL DUP2 MSTORE PUSH1 0x4 ADD PUSH1 0x40 MLOAD DUP1 SWAP2 SUB SWAP1 REVERT JUMPDEST PUSH1 0x40 MLOAD DUP1 PUSH2 0x120 ADD PUSH1 0x40 MSTORE DUP1 PUSH1 0x0 DUP2 MSTORE PUSH1 0x20 ADD PUSH1 0x60 DUP2 MSTORE PUSH1 0x20 ADD PUSH1 0x0 DUP2 MSTORE PUSH1 0x20 ADD PUSH1 0x0 PUSH1 0x1 PUSH1 0x1 PUSH1 0xA0 SHL SUB AND DUP2 MSTORE PUSH1 0x20 ADD PUSH1 0x60 DUP2 MSTORE PUSH1 0x20 ADD PUSH1 0x60 DUP2 MSTORE PUSH1 0x20 ADD PUSH1 0x0 ISZERO ISZERO DUP2 MSTORE PUSH1 0x20 ADD PUSH1 0x0 DUP2 MSTORE PUSH1 0x20 ADD PUSH1 0x0 DUP1 NOT AND DUP2 MSTORE POP SWAP1 JUMP JUMPDEST DUP3 DUP1 SLOAD DUP3 DUP3 SSTORE SWAP1 PUSH1 0x0 MSTORE PUSH1 0x20 PUSH1 0x0 KECCAK256 SWAP1 DUP2 ADD SWAP3 DUP3 ISZERO PUSH2 0x2CC6 JUMPI SWAP2 PUSH1 0x20 MUL DUP3 ADD JUMPDEST DUP3 DUP2 GT ISZERO PUSH2 0x2CC6 JUMPI DUP3 MLOAD DUP3 SLOAD PUSH1 0x1 PUSH1 0x1 PUSH1 0xA0 SHL SUB NOT AND PUSH1 0x1 PUSH1 0x1 PUSH1 0xA0 SHL SUB SWAP1 SWAP2 AND OR DUP3 SSTORE PUSH1 0x20 SWAP1 SWAP3 ADD SWAP2 PUSH1 0x1 SWAP1 SWAP2 ADD SWAP1 PUSH2 0x2C91 JUMP JUMPDEST POP PUSH2 0x2CD2 SWAP3 SWAP2 POP PUSH2 0x2D11 JUMP JUMPDEST POP SWAP1 JUMP JUMPDEST DUP3 DUP1 SLOAD DUP3 DUP3 SSTORE SWAP1 PUSH1 0x0 MSTORE PUSH1 0x20 PUSH1 0x0 KECCAK256 SWAP1 DUP2 ADD SWAP3 DUP3 ISZERO PUSH2 0x2CC6 JUMPI SWAP2 PUSH1 0x20 MUL DUP3 ADD JUMPDEST DUP3 DUP2 GT ISZERO PUSH2 0x2CC6 JUMPI DUP3 MLOAD DUP3 SSTORE SWAP2 PUSH1 0x20 ADD SWAP2 SWAP1 PUSH1 0x1 ADD SWAP1 PUSH2 0x2CF6 JUMP JUMPDEST JUMPDEST DUP1 DUP3 GT ISZERO PUSH2 0x2CD2 JUMPI PUSH1 0x0 DUP2 SSTORE PUSH1 0x1 ADD PUSH2 0x2D12 JUMP JUMPDEST DUP1 CALLDATALOAD PUSH1 0x1 PUSH1 0x1 PUSH1 0xA0 SHL SUB DUP2 AND DUP2 EQ PUSH2 0x2D3D JUMPI PUSH1 0x0 DUP1 REVERT JUMPDEST SWAP2 SWAP1 POP JUMP JUMPDEST PUSH1 0x0 PUSH1 0x20 DUP3 DUP5 SUB SLT ISZERO PUSH2 0x2D54 JUMPI PUSH1 0x0 DUP1 REVERT JUMPDEST PUSH2 0x2D5D DUP3 PUSH2 0x2D26 JUMP JUMPDEST SWAP4 SWAP3 POP POP POP JUMP JUMPDEST PUSH1 0x0 DUP2 MLOAD DUP1 DUP5 MSTORE PUSH1 0x0 JUMPDEST DUP2 DUP2 LT ISZERO PUSH2 0x2D8A JUMPI PUSH1 0x20 DUP2 DUP6 ADD DUP2 ADD MLOAD DUP7 DUP4 ADD DUP3 ADD MSTORE ADD PUSH2 0x2D6E JUMP JUMPDEST POP PUSH1 0x0 PUSH1 0x20 DUP3 DUP7 ADD ADD MSTORE PUSH1 0x20 PUSH1 0x1F NOT PUSH1 0x1F DUP4 ADD AND DUP6 ADD ADD SWAP2 POP POP SWAP3 SWAP2 POP POP JUMP JUMPDEST PUSH1 0x1 PUSH1 0x1 PUSH1 0xA0 SHL SUB DUP8 AND DUP2 MSTORE PUSH1 0xC0 PUSH1 0x20 DUP3 ADD DUP2 SWAP1 MSTORE PUSH1 0x0 SWAP1 PUSH2 0x2DCE SWAP1 DUP4 ADD DUP9 PUSH2 0x2D64 JUMP JUMPDEST PUSH1 0x40 DUP4 ADD SWAP7 SWAP1 SWAP7 MSTORE POP PUSH1 0x60 DUP2 ADD SWAP4 SWAP1 SWAP4 MSTORE SWAP1 ISZERO ISZERO PUSH1 0x80 DUP4 ADD MSTORE PUSH1 0xA0 SWAP1 SWAP2 ADD MSTORE SWAP3 SWAP2 POP POP JUMP JUMPDEST PUSH1 0x0 PUSH1 0x20 DUP3 DUP5 SUB SLT ISZERO PUSH2 0x2E05 JUMPI PUSH1 0x0 DUP1 REVERT JUMPDEST POP CALLDATALOAD SWAP2 SWAP1 POP JUMP JUMPDEST PUSH1 0x20 DUP1 DUP3 MSTORE DUP3 MLOAD PUSH1 0x1 PUSH1 0x1 PUSH1 0xA0 SHL SUB AND DUP3 DUP3 ADD MSTORE DUP3 ADD MLOAD PUSH1 0xC0 PUSH1 0x40 DUP4 ADD MSTORE PUSH1 0x0 SWAP1 PUSH2 0x2E3A PUSH1 0xE0 DUP5 ADD DUP3 PUSH2 0x2D64 JUMP JUMPDEST SWAP1 POP PUSH1 0x40 DUP5 ADD MLOAD PUSH1 0x60 DUP5 ADD MSTORE PUSH1 0x60 DUP5 ADD MLOAD PUSH1 0x80 DUP5 ADD MSTORE PUSH1 0x80 DUP5 ADD MLOAD ISZERO ISZERO PUSH1 0xA0 DUP5 ADD MSTORE PUSH1 0xA0 DUP5 ADD MLOAD PUSH1 0xC0 DUP5 ADD MSTORE DUP1 SWAP2 POP POP SWAP3 SWAP2 POP POP JUMP JUMPDEST PUSH4 0x4E487B71 PUSH1 0xE0 SHL PUSH1 0x0 MSTORE PUSH1 0x41 PUSH1 0x4 MSTORE PUSH1 0x24 PUSH1 0x0 REVERT JUMPDEST PUSH1 0x40 MLOAD PUSH1 0x1F DUP3 ADD PUSH1 0x1F NOT AND DUP2 ADD PUSH8 0xFFFFFFFFFFFFFFFF DUP2 GT DUP3 DUP3 LT OR ISZERO PUSH2 0x2EAF JUMPI PUSH2 0x2EAF PUSH2 0x2E70 JUMP JUMPDEST PUSH1 0x40 MSTORE SWAP2 SWAP1 POP JUMP JUMPDEST PUSH1 0x0 DUP3 PUSH1 0x1F DUP4 ADD SLT PUSH2 0x2EC8 JUMPI PUSH1 0x0 DUP1 REVERT JUMPDEST DUP2 CALLDATALOAD PUSH8 0xFFFFFFFFFFFFFFFF DUP2 GT ISZERO PUSH2 0x2EE2 JUMPI PUSH2 0x2EE2 PUSH2 0x2E70 JUMP JUMPDEST PUSH2 0x2EF5 PUSH1 0x1F DUP3 ADD PUSH1 0x1F NOT AND PUSH1 0x20 ADD PUSH2 0x2E86 JUMP JUMPDEST DUP2 DUP2 MSTORE DUP5 PUSH1 0x20 DUP4 DUP7 ADD ADD GT ISZERO PUSH2 0x2F0A JUMPI PUSH1 0x0 DUP1 REVERT JUMPDEST DUP2 PUSH1 0x20 DUP6 ADD PUSH1 0x20 DUP4 ADD CALLDATACOPY PUSH1 0x0 SWAP2 DUP2 ADD PUSH1 0x20 ADD SWAP2 SWAP1 SWAP2 MSTORE SWAP4 SWAP3 POP POP POP JUMP JUMPDEST PUSH1 0x0 DUP1 PUSH1 0x40 DUP4 DUP6 SUB SLT ISZERO PUSH2 0x2F3A JUMPI PUSH1 0x0 DUP1 REVERT JUMPDEST DUP3 CALLDATALOAD SWAP2 POP PUSH1 0x20 DUP4 ADD CALLDATALOAD PUSH8 0xFFFFFFFFFFFFFFFF DUP2 GT ISZERO PUSH2 0x2F58 JUMPI PUSH1 0x0 DUP1 REVERT JUMPDEST PUSH2 0x2F64 DUP6 DUP3 DUP7 ADD PUSH2 0x2EB7 JUMP JUMPDEST SWAP2 POP POP SWAP3 POP SWAP3 SWAP1 POP JUMP JUMPDEST PUSH1 0x0 DUP2 MLOAD DUP1 DUP5 MSTORE PUSH1 0x20 DUP1 DUP6 ADD SWAP5 POP DUP1 DUP5 ADD PUSH1 0x0 JUMPDEST DUP4 DUP2 LT ISZERO PUSH2 0x2FA7 JUMPI DUP2 MLOAD PUSH1 0x1 PUSH1 0x1 PUSH1 0xA0 SHL SUB AND DUP8 MSTORE SWAP6 DUP3 ADD SWAP6 SWAP1 DUP3 ADD SWAP1 PUSH1 0x1 ADD PUSH2 0x2F82 JUMP JUMPDEST POP SWAP5 SWAP6 SWAP5 POP POP POP POP POP JUMP JUMPDEST PUSH1 0x0 DUP2 MLOAD DUP1 DUP5 MSTORE PUSH1 0x20 DUP1 DUP6 ADD SWAP5 POP DUP1 DUP5 ADD PUSH1 0x0 JUMPDEST DUP4 DUP2 LT ISZERO PUSH2 0x2FA7 JUMPI DUP2 MLOAD DUP8 MSTORE SWAP6 DUP3 ADD SWAP6 SWAP1 DUP3 ADD SWAP1 PUSH1 0x1 ADD PUSH2 0x2FC6 JUMP JUMPDEST PUSH1 0x0 PUSH2 0x120 DUP3 MLOAD DUP5 MSTORE PUSH1 0x20 DUP4 ADD MLOAD DUP2 PUSH1 0x20 DUP7 ADD MSTORE PUSH2 0x3002 DUP3 DUP7 ADD DUP3 PUSH2 0x2D64 JUMP JUMPDEST SWAP2 POP POP PUSH1 0x40 DUP4 ADD MLOAD PUSH1 0x40 DUP6 ADD MSTORE PUSH1 0x60 DUP4 ADD MLOAD PUSH2 0x3029 PUSH1 0x60 DUP7 ADD DUP3 PUSH1 0x1 PUSH1 0x1 PUSH1 0xA0 SHL SUB AND SWAP1 MSTORE JUMP JUMPDEST POP PUSH1 0x80 DUP4 ADD MLOAD DUP5 DUP3 SUB PUSH1 0x80 DUP7 ADD MSTORE PUSH2 0x3041 DUP3 DUP3 PUSH2 0x2F6E JUMP JUMPDEST SWAP2 POP POP PUSH1 0xA0 DUP4 ADD MLOAD DUP5 DUP3 SUB PUSH1 0xA0 DUP7 ADD MSTORE PUSH2 0x305B DUP3 DUP3 PUSH2 0x2FB2 JUMP JUMPDEST SWAP2 POP POP PUSH1 0xC0 DUP4 ADD MLOAD PUSH2 0x3071 PUSH1 0xC0 DUP7 ADD DUP3 ISZERO ISZERO SWAP1 MSTORE JUMP JUMPDEST POP PUSH1 0xE0 DUP4 DUP2 ADD MLOAD SWAP1 DUP6 ADD MSTORE PUSH2 0x100 SWAP3 DUP4 ADD MLOAD SWAP3 SWAP1 SWAP4 ADD SWAP2 SWAP1 SWAP2 MSTORE POP SWAP1 JUMP JUMPDEST PUSH1 0x20 DUP2 MSTORE PUSH1 0x0 PUSH2 0x2D5D PUSH1 0x20 DUP4 ADD DUP5 PUSH2 0x2FE2 JUMP JUMPDEST PUSH1 0x20 DUP2 MSTORE PUSH1 0x0 PUSH2 0x2D5D PUSH1 0x20 DUP4 ADD DUP5 PUSH2 0x2D64 JUMP JUMPDEST PUSH1 0x0 DUP1 PUSH1 0x40 DUP4 DUP6 SUB SLT ISZERO PUSH2 0x30C8 JUMPI PUSH1 0x0 DUP1 REVERT JUMPDEST POP POP DUP1 CALLDATALOAD SWAP3 PUSH1 0x20 SWAP1 SWAP2 ADD CALLDATALOAD SWAP2 POP JUMP JUMPDEST PUSH1 0x0 PUSH1 0x40 DUP3 ADD PUSH1 0x40 DUP4 MSTORE DUP1 DUP6 MLOAD DUP1 DUP4 MSTORE PUSH1 0x60 DUP6 ADD SWAP2 POP PUSH1 0x60 DUP2 PUSH1 0x5 SHL DUP7 ADD ADD SWAP3 POP PUSH1 0x20 DUP1 DUP9 ADD PUSH1 0x0 JUMPDEST DUP4 DUP2 LT ISZERO PUSH2 0x312E JUMPI PUSH1 0x5F NOT DUP9 DUP8 SUB ADD DUP6 MSTORE PUSH2 0x311C DUP7 DUP4 MLOAD PUSH2 0x2FE2 JUMP JUMPDEST SWAP6 POP SWAP4 DUP3 ADD SWAP4 SWAP1 DUP3 ADD SWAP1 PUSH1 0x1 ADD PUSH2 0x3100 JUMP JUMPDEST POP POP SWAP5 SWAP1 SWAP5 ADD SWAP5 SWAP1 SWAP5 MSTORE SWAP5 SWAP4 POP POP POP POP JUMP JUMPDEST PUSH1 0x40 DUP2 MSTORE PUSH1 0x0 PUSH2 0x3153 PUSH1 0x40 DUP4 ADD DUP6 PUSH2 0x2F6E JUMP JUMPDEST SWAP1 POP DUP3 PUSH1 0x20 DUP4 ADD MSTORE SWAP4 SWAP3 POP POP POP JUMP JUMPDEST DUP8 DUP2 MSTORE PUSH1 0xE0 PUSH1 0x20 DUP3 ADD MSTORE PUSH1 0x0 PUSH2 0x317B PUSH1 0xE0 DUP4 ADD DUP10 PUSH2 0x2D64 JUMP JUMPDEST PUSH1 0x40 DUP4 ADD SWAP8 SWAP1 SWAP8 MSTORE POP PUSH1 0x1 PUSH1 0x1 PUSH1 0xA0 SHL SUB SWAP5 SWAP1 SWAP5 AND PUSH1 0x60 DUP6 ADD MSTORE SWAP2 ISZERO ISZERO PUSH1 0x80 DUP5 ADD MSTORE PUSH1 0xA0 DUP4 ADD MSTORE PUSH1 0xC0 SWAP1 SWAP2 ADD MSTORE SWAP3 SWAP2 POP POP JUMP JUMPDEST PUSH1 0x0 DUP1 PUSH1 0x40 DUP4 DUP6 SUB SLT ISZERO PUSH2 0x31C1 JUMPI PUSH1 0x0 DUP1 REVERT JUMPDEST PUSH2 0x31CA DUP4 PUSH2 0x2D26 JUMP JUMPDEST SWAP2 POP PUSH1 0x20 DUP4 ADD CALLDATALOAD PUSH8 0xFFFFFFFFFFFFFFFF DUP2 GT ISZERO PUSH2 0x2F58 JUMPI PUSH1 0x0 DUP1 REVERT JUMPDEST PUSH1 0x0 DUP1 PUSH1 0x40 DUP4 DUP6 SUB SLT ISZERO PUSH2 0x31F9 JUMPI PUSH1 0x0 DUP1 REVERT JUMPDEST PUSH2 0x3202 DUP4 PUSH2 0x2D26 JUMP JUMPDEST SWAP2 POP PUSH2 0x3210 PUSH1 0x20 DUP5 ADD PUSH2 0x2D26 JUMP JUMPDEST SWAP1 POP SWAP3 POP SWAP3 SWAP1 POP JUMP JUMPDEST PUSH1 0x0 DUP1 PUSH1 0x0 DUP1 PUSH1 0x80 DUP6 DUP8 SUB SLT ISZERO PUSH2 0x322F JUMPI PUSH1 0x0 DUP1 REVERT JUMPDEST DUP5 CALLDATALOAD PUSH8 0xFFFFFFFFFFFFFFFF DUP1 DUP3 GT ISZERO PUSH2 0x3247 JUMPI PUSH1 0x0 DUP1 REVERT JUMPDEST PUSH2 0x3253 DUP9 DUP4 DUP10 ADD PUSH2 0x2EB7 JUMP JUMPDEST SWAP6 POP PUSH1 0x20 SWAP2 POP DUP2 DUP8 ADD CALLDATALOAD SWAP5 POP PUSH1 0x40 DUP8 ADD CALLDATALOAD DUP2 DUP2 GT ISZERO PUSH2 0x3271 JUMPI PUSH1 0x0 DUP1 REVERT JUMPDEST DUP8 ADD PUSH1 0x1F DUP2 ADD DUP10 SGT PUSH2 0x3282 JUMPI PUSH1 0x0 DUP1 REVERT JUMPDEST DUP1 CALLDATALOAD DUP3 DUP2 GT ISZERO PUSH2 0x3294 JUMPI PUSH2 0x3294 PUSH2 0x2E70 JUMP JUMPDEST DUP1 PUSH1 0x5 SHL SWAP3 POP PUSH2 0x32A5 DUP5 DUP5 ADD PUSH2 0x2E86 JUMP JUMPDEST DUP2 DUP2 MSTORE SWAP3 DUP3 ADD DUP5 ADD SWAP3 DUP5 DUP2 ADD SWAP1 DUP12 DUP6 GT ISZERO PUSH2 0x32BF JUMPI PUSH1 0x0 DUP1 REVERT JUMPDEST SWAP3 DUP6 ADD SWAP3 JUMPDEST DUP5 DUP5 LT ISZERO PUSH2 0x32E4 JUMPI PUSH2 0x32D5 DUP5 PUSH2 0x2D26 JUMP JUMPDEST DUP3 MSTORE SWAP3 DUP6 ADD SWAP3 SWAP1 DUP6 ADD SWAP1 PUSH2 0x32C4 JUMP JUMPDEST SWAP9 SWAP12 SWAP8 SWAP11 POP SWAP8 SWAP9 PUSH1 0x60 ADD CALLDATALOAD SWAP8 POP POP POP POP POP POP POP JUMP JUMPDEST PUSH1 0x1 DUP2 DUP2 SHR SWAP1 DUP3 AND DUP1 PUSH2 0x330D JUMPI PUSH1 0x7F DUP3 AND SWAP2 POP JUMPDEST PUSH1 0x20 DUP3 LT DUP2 SUB PUSH2 0x13AA JUMPI PUSH4 0x4E487B71 PUSH1 0xE0 SHL PUSH1 0x0 MSTORE PUSH1 0x22 PUSH1 0x4 MSTORE PUSH1 0x24 PUSH1 0x0 REVERT JUMPDEST PUSH1 0x20 DUP1 DUP3 MSTORE PUSH1 0xF SWAP1 DUP3 ADD MSTORE PUSH15 0x496E76616C69642061646472657373 PUSH1 0x88 SHL PUSH1 0x40 DUP3 ADD MSTORE PUSH1 0x60 ADD SWAP1 JUMP JUMPDEST PUSH4 0x4E487B71 PUSH1 0xE0 SHL PUSH1 0x0 MSTORE PUSH1 0x32 PUSH1 0x4 MSTORE PUSH1 0x24 PUSH1 0x0 REVERT JUMPDEST PUSH4 0x4E487B71 PUSH1 0xE0 SHL PUSH1 0x0 MSTORE PUSH1 0x11 PUSH1 0x4 MSTORE PUSH1 0x24 PUSH1 0x0 REVERT JUMPDEST DUP2 DUP2 SUB DUP2 DUP2 GT ISZERO PUSH2 0x286A JUMPI PUSH2 0x286A PUSH2 0x336C JUMP JUMPDEST PUSH4 0x4E487B71 PUSH1 0xE0 SHL PUSH1 0x0 MSTORE PUSH1 0x31 PUSH1 0x4 MSTORE PUSH1 0x24 PUSH1 0x0 REVERT JUMPDEST PUSH1 0x0 PUSH1 0x1 DUP3 ADD PUSH2 0x33BD JUMPI PUSH2 0x33BD PUSH2 0x336C JUMP JUMPDEST POP PUSH1 0x1 ADD SWAP1 JUMP JUMPDEST DUP1 DUP3 ADD DUP1 DUP3 GT ISZERO PUSH2 0x286A JUMPI PUSH2 0x286A PUSH2 0x336C JUMP JUMPDEST PUSH1 0x20 DUP1 DUP3 MSTORE PUSH1 0x12 SWAP1 DUP3 ADD MSTORE PUSH18 0x10DBDB9D1C9858DD081A5CC81C185D5CD959 PUSH1 0x72 SHL PUSH1 0x40 DUP3 ADD MSTORE PUSH1 0x60 ADD SWAP1 JUMP JUMPDEST PUSH1 0x1F DUP3 GT ISZERO PUSH2 0x1EE5 JUMPI PUSH1 0x0 DUP2 DUP2 MSTORE PUSH1 0x20 DUP2 KECCAK256 PUSH1 0x1F DUP6 ADD PUSH1 0x5 SHR DUP2 ADD PUSH1 0x20 DUP7 LT ISZERO PUSH2 0x342A JUMPI POP DUP1 JUMPDEST PUSH1 0x1F DUP6 ADD PUSH1 0x5 SHR DUP3 ADD SWAP2 POP JUMPDEST DUP2 DUP2 LT ISZERO PUSH2 0x3449 JUMPI DUP3 DUP2 SSTORE PUSH1 0x1 ADD PUSH2 0x3436 JUMP JUMPDEST POP POP POP POP POP POP JUMP JUMPDEST DUP2 MLOAD PUSH8 0xFFFFFFFFFFFFFFFF DUP2 GT ISZERO PUSH2 0x346B JUMPI PUSH2 0x346B PUSH2 0x2E70 JUMP JUMPDEST PUSH2 0x347F DUP2 PUSH2 0x3479 DUP5 SLOAD PUSH2 0x32F9 JUMP JUMPDEST DUP5 PUSH2 0x3403 JUMP JUMPDEST PUSH1 0x20 DUP1 PUSH1 0x1F DUP4 GT PUSH1 0x1 DUP2 EQ PUSH2 0x34B4 JUMPI PUSH1 0x0 DUP5 ISZERO PUSH2 0x349C JUMPI POP DUP6 DUP4 ADD MLOAD JUMPDEST PUSH1 0x0 NOT PUSH1 0x3 DUP7 SWAP1 SHL SHR NOT AND PUSH1 0x1 DUP6 SWAP1 SHL OR DUP6 SSTORE PUSH2 0x3449 JUMP JUMPDEST PUSH1 0x0 DUP6 DUP2 MSTORE PUSH1 0x20 DUP2 KECCAK256 PUSH1 0x1F NOT DUP7 AND SWAP2 JUMPDEST DUP3 DUP2 LT ISZERO PUSH2 0x34E3 JUMPI DUP9 DUP7 ADD MLOAD DUP3 SSTORE SWAP5 DUP5 ADD SWAP5 PUSH1 0x1 SWAP1 SWAP2 ADD SWAP1 DUP5 ADD PUSH2 0x34C4 JUMP JUMPDEST POP DUP6 DUP3 LT ISZERO PUSH2 0x3501 JUMPI DUP8 DUP6 ADD MLOAD PUSH1 0x0 NOT PUSH1 0x3 DUP9 SWAP1 SHL PUSH1 0xF8 AND SHR NOT AND DUP2 SSTORE JUMPDEST POP POP POP POP POP PUSH1 0x1 SWAP1 DUP2 SHL ADD SWAP1 SSTORE POP JUMP JUMPDEST PUSH4 0x4E487B71 PUSH1 0xE0 SHL PUSH1 0x0 MSTORE PUSH1 0x12 PUSH1 0x4 MSTORE PUSH1 0x24 PUSH1 0x0 REVERT JUMPDEST PUSH1 0x0 DUP3 PUSH2 0x3536 JUMPI PUSH2 0x3536 PUSH2 0x3511 JUMP JUMPDEST POP DIV SWAP1 JUMP JUMPDEST PUSH1 0x0 DUP3 PUSH2 0x354A JUMPI PUSH2 0x354A PUSH2 0x3511 JUMP JUMPDEST POP MOD SWAP1 JUMP JUMPDEST PUSH4 0x4E487B71 PUSH1 0xE0 SHL PUSH1 0x0 MSTORE PUSH1 0x1 PUSH1 0x4 MSTORE PUSH1 0x24 PUSH1 0x0 REVERT JUMPDEST DUP3 DUP2 MSTORE PUSH1 0x40 PUSH1 0x20 DUP3 ADD MSTORE PUSH1 0x0 PUSH2 0x357E PUSH1 0x40 DUP4 ADD DUP5 PUSH2 0x2D64 JUMP JUMPDEST SWAP5 SWAP4 POP POP POP POP JUMP JUMPDEST DUP2 DUP2 SUB PUSH1 0x0 DUP4 SLT DUP1 ISZERO DUP4 DUP4 SGT AND DUP4 DUP4 SLT DUP3 AND OR ISZERO PUSH2 0x35A6 JUMPI PUSH2 0x35A6 PUSH2 0x336C JUMP JUMPDEST POP SWAP3 SWAP2 POP POP JUMP JUMPDEST PUSH1 0x40 DUP2 MSTORE PUSH1 0x0 PUSH2 0x3153 PUSH1 0x40 DUP4 ADD DUP6 PUSH2 0x2D64 JUMP INVALID LOG2 PUSH5 0x6970667358 0x22 SLT KECCAK256 LOG4 0x4E SWAP2 0xCF DUP16 0xC6 BLOCKHASH CALLDATASIZE 0x5E PUSH20 0x41CFF6D92100F1D1031C67C6E6C085F60F4B278E 0xE6 PUSH32 0x64736F6C63430008140033A2646970667358221220C12932A286A35A50978855 0xE3 PUSH12 0x9264C6FA6D9814C8A089FFB9 ADD POP SIGNEXTEND 0xD8 0x25 0xEC 0xD7 PUSH5 0x736F6C6343 STOP ADDMOD EQ STOP CALLER "},"methodIdentifiers":{"addUserToGroup(address,address)":"e376fa5e","authorizeCreator(address)":"d8625b07","authorizedCreators(address)":"c695502a","createGroup(string,string)":"1e4a97dd","creationFee()":"dce0b4e4","deactivateGroup(address)":"93739a93","deauthorizeCreator(address)":"4aec7b6a","emergencyDeactivateGroup(address)":"96338632","getActiveGroupsCount()":"4250c55a","getAllGroupsPaginated(uint256,uint256)":"7d4607d4","getFactoryStats()":"c9226445","getGroupInfo(address)":"d83ff6d0","getTotalGroupsCount()":"9f9334e4","getUserGroups(address)":"3da04e4a","getUserGroupsWithInfo(address)":"16690222","groupInfos(address)":"6ade18ca","isAuthorizedCreator(address)":"79b53ebe","maxGroupsPerUser()":"a5cc1ddd","owner()":"8da5cb5b","pause()":"8456cb59","paused()":"5c975abb","renounceOwnership()":"715018a6","searchGroups(string)":"49d71d43","setCreationFee(uint256)":"b7d86225","setMaxGroupsPerUser(uint256)":"4d928efa","transferOwnership(address)":"f2fde38b","unpause()":"3f4ba83a","updateGroupActivity(address)":"942cb6c0","withdrawFees()":"476343ee"}}}}}