{"contracts/ExpenseFactoryExtensions.sol":{"ExpenseFactoryExtensions":{"abi":[{"inputs":[{"internalType":"address","name":"_factory","type":"address"}],"stateMutability":"nonpayable","type":"constructor"},{"inputs":[],"name":"factory","outputs":[{"internalType":"contract ExpenseFactory","name":"","type":"address"}],"stateMutability":"view","type":"function"},{"inputs":[{"internalType":"uint256","name":"_offset","type":"uint256"},{"internalType":"uint256","name":"_limit","type":"uint256"}],"name":"getAllGroupsPaginated","outputs":[{"internalType":"address[]","name":"groups","type":"address[]"},{"internalType":"uint256","name":"total","type":"uint256"}],"stateMutability":"view","type":"function"},{"inputs":[],"name":"getFactoryStats","outputs":[{"components":[{"internalType":"uint256","name":"totalGroups","type":"uint256"},{"internalType":"uint256","name":"activeGroups","type":"uint256"},{"internalType":"uint256","name":"totalMembers","type":"uint256"},{"internalType":"uint256","name":"totalExpenses","type":"uint256"}],"internalType":"struct ExpenseFactoryExtensions.GroupStats","name":"","type":"tuple"}],"stateMutability":"view","type":"function"},{"inputs":[{"internalType":"address","name":"_user","type":"address"}],"name":"getUserGroupsWithInfo","outputs":[{"components":[{"internalType":"address","name":"groupAddress","type":"address"},{"internalType":"string","name":"name","type":"string"},{"internalType":"address","name":"creator","type":"address"},{"internalType":"uint256","name":"createdAt","type":"uint256"},{"internalType":"bool","name":"active","type":"bool"}],"internalType":"struct ExpenseFactory.GroupInfo[]","name":"","type":"tuple[]"}],"stateMutability":"view","type":"function"},{"inputs":[{"internalType":"string","name":"_nameQuery","type":"string"}],"name":"searchGroups","outputs":[{"internalType":"address[]","name":"","type":"address[]"}],"stateMutability":"view","type":"function"}],"evm":{"bytecode":{"linkReferences":{},"object":"60a060405234801561001057600080fd5b5060405161102338038061102383398101604081905261002f91610040565b6001600160a01b0316608052610070565b60006020828403121561005257600080fd5b81516001600160a01b038116811461006957600080fd5b9392505050565b608051610f686100bb6000396000818160cb015281816101650152818161025c0152818161039b0152818161047a015281816105c40152818161078601526108100152610f686000f3fe608060405234801561001057600080fd5b50600436106100575760003560e01c8063166902221461005c57806349d71d43146100855780637d4607d4146100a5578063c45a0155146100c6578063c922644514610105575b600080fd5b61006f61006a3660046109aa565b610140565b60405161007c91906109f2565b60405180910390f35b610098610093366004610b4f565b61034b565b60405161007c9190610c13565b6100b86100b3366004610c26565b6105bd565b60405161007c929190610c48565b6100ed7f000000000000000000000000000000000000000000000000000000000000000081565b6040516001600160a01b03909116815260200161007c565b61010d610757565b60405161007c91908151815260208083015190820152604080830151908201526060918201519181019190915260800190565b604051631ed0272560e11b81526001600160a01b0382811660048301526060916000917f00000000000000000000000000000000000000000000000000000000000000001690633da04e4a90602401600060405180830381865afa1580156101ac573d6000803e3d6000fd5b505050506040513d6000823e601f3d908101601f191682016040526101d49190810190610c6a565b90506000815167ffffffffffffffff8111156101f2576101f2610ab7565b60405190808252806020026020018201604052801561024b57816020015b6040805160a0810182526000808252606060208084018290529383018290528201819052608082015282526000199092019101816102105790505b50905060005b8251811015610343577f00000000000000000000000000000000000000000000000000000000000000006001600160a01b031663d83ff6d084838151811061029b5761029b610d1c565b60200260200101516040518263ffffffff1660e01b81526004016102ce91906001600160a01b0391909116815260200190565b600060405180830381865afa1580156102eb573d6000803e3d6000fd5b505050506040513d6000823e601f3d908101601f191682016040526103139190810190610d94565b82828151811061032557610325610d1c565b6020026020010181905250808061033b90610e5b565b915050610251565b509392505050565b805160609082906103975760405162461bcd60e51b8152602060048201526012602482015271456d7074792073656172636820717565727960701b604482015260640160405180910390fd5b60007f00000000000000000000000000000000000000000000000000000000000000006001600160a01b03166321cd3cae6040518163ffffffff1660e01b8152600401600060405180830381865afa1580156103f7573d6000803e3d6000fd5b505050506040513d6000823e601f3d908101601f1916820160405261041f9190810190610c6a565b90506000815167ffffffffffffffff81111561043d5761043d610ab7565b604051908082528060200260200182016040528015610466578160200160208202803683370190505b5090506000805b83518110156105b25760007f00000000000000000000000000000000000000000000000000000000000000006001600160a01b0316636ade18ca8684815181106104b9576104b9610d1c565b60200260200101516040518263ffffffff1660e01b81526004016104ec91906001600160a01b0391909116815260200190565b600060405180830381865afa158015610509573d6000803e3d6000fd5b505050506040513d6000823e601f3d908101601f191682016040526105319190810190610e74565b505050915050600081905061054681886108bd565b1561059d5785838151811061055d5761055d610d1c565b602002602001015185858151811061057757610577610d1c565b6001600160a01b03909216602092830291909101909101528361059981610e5b565b9450505b505080806105aa90610e5b565b91505061046d565b508152949350505050565b60606000807f00000000000000000000000000000000000000000000000000000000000000006001600160a01b03166321cd3cae6040518163ffffffff1660e01b8152600401600060405180830381865afa158015610620573d6000803e3d6000fd5b505050506040513d6000823e601f3d908101601f191682016040526106489190810190610c6a565b805190915080861061066e57604080516000815260208101909152935091506107509050565b600061067a8688610ef3565b9050818111156106875750805b60006106938883610f06565b905060008167ffffffffffffffff8111156106b0576106b0610ab7565b6040519080825280602002602001820160405280156106d9578160200160208202803683370190505b50905060005b8281101561074657856106f2828c610ef3565b8151811061070257610702610d1c565b602002602001015182828151811061071c5761071c610d1c565b6001600160a01b03909216602092830291909101909101528061073e81610e5b565b9150506106df565b5095509193505050505b9250929050565b6107826040518060800160405280600081526020016000815260200160008152602001600081525090565b60007f00000000000000000000000000000000000000000000000000000000000000006001600160a01b03166321cd3cae6040518163ffffffff1660e01b8152600401600060405180830381865afa1580156107e2573d6000803e3d6000fd5b505050506040513d6000823e601f3d908101601f1916820160405261080a9190810190610c6a565b905060007f00000000000000000000000000000000000000000000000000000000000000006001600160a01b0316639f9334e46040518163ffffffff1660e01b8152600401602060405180830381865afa15801561086c573d6000803e3d6000fd5b505050506040513d601f19601f820116820180604052508101906108909190610f19565b90506040518060800160405280828152602001835181526020016000815260200160008152509250505090565b60008251825111156108d15750600061098c565b60005b825184516108e29190610f06565b811161098657600160005b84518110156109615784818151811061090857610908610d1c565b01602001516001600160f81b031916866109228386610ef3565b8151811061093257610932610d1c565b01602001516001600160f81b0319161461094f5760009150610961565b8061095981610e5b565b9150506108ed565b5080156109735760019250505061098c565b508061097e81610e5b565b9150506108d4565b50600090505b92915050565b6001600160a01b03811681146109a757600080fd5b50565b6000602082840312156109bc57600080fd5b81356109c781610992565b9392505050565b60005b838110156109e95781810151838201526020016109d1565b50506000910152565b60006020808301818452808551808352604092508286019150828160051b87010184880160005b83811015610aa957888303603f19018552815180516001600160a01b0390811685528882015160a08a8701819052815190870181905260c0929190610a6381858a01848f016109ce565b848b0151909216878b0152506060808401519087015260809283015115159286019290925295880195601f91909101601f19169093019092019190860190600101610a19565b509098975050505050505050565b634e487b7160e01b600052604160045260246000fd5b60405160a0810167ffffffffffffffff81118282101715610af057610af0610ab7565b60405290565b604051601f8201601f1916810167ffffffffffffffff81118282101715610b1f57610b1f610ab7565b604052919050565b600067ffffffffffffffff821115610b4157610b41610ab7565b50601f01601f191660200190565b600060208284031215610b6157600080fd5b813567ffffffffffffffff811115610b7857600080fd5b8201601f81018413610b8957600080fd5b8035610b9c610b9782610b27565b610af6565b818152856020838501011115610bb157600080fd5b81602084016020830137600091810160200191909152949350505050565b600081518084526020808501945080840160005b83811015610c085781516001600160a01b031687529582019590820190600101610be3565b509495945050505050565b6020815260006109c76020830184610bcf565b60008060408385031215610c3957600080fd5b50508035926020909101359150565b604081526000610c5b6040830185610bcf565b90508260208301529392505050565b60006020808385031215610c7d57600080fd5b825167ffffffffffffffff80821115610c9557600080fd5b818501915085601f830112610ca957600080fd5b815181811115610cbb57610cbb610ab7565b8060051b9150610ccc848301610af6565b8181529183018401918481019088841115610ce657600080fd5b938501935b83851015610d105784519250610d0083610992565b8282529385019390850190610ceb565b98975050505050505050565b634e487b7160e01b600052603260045260246000fd5b600082601f830112610d4357600080fd5b8151610d51610b9782610b27565b818152846020838601011115610d6657600080fd5b610d778260208301602087016109ce565b949350505050565b80518015158114610d8f57600080fd5b919050565b600060208284031215610da657600080fd5b815167ffffffffffffffff80821115610dbe57600080fd5b9083019060a08286031215610dd257600080fd5b610dda610acd565b8251610de581610992565b8152602083015182811115610df957600080fd5b610e0587828601610d32565b60208301525060408301519150610e1b82610992565b81604082015260608301516060820152610e3760808401610d7f565b608082015295945050505050565b634e487b7160e01b600052601160045260246000fd5b600060018201610e6d57610e6d610e45565b5060010190565b600080600080600060a08688031215610e8c57600080fd5b8551610e9781610992565b602087015190955067ffffffffffffffff811115610eb457600080fd5b610ec088828901610d32565b9450506040860151610ed181610992565b60608701519093509150610ee760808701610d7f565b90509295509295909350565b8082018082111561098c5761098c610e45565b8181038181111561098c5761098c610e45565b600060208284031215610f2b57600080fd5b505191905056fea2646970667358221220e8bd90723ce618b4180c4e3dec47e7ab6958ec7d09b3c42e01940a5055d8c44364736f6c63430008140033","opcodes":"PUSH1 0xA0 PUSH1 0x40 MSTORE CALLVALUE DUP1 ISZERO PUSH2 0x10 JUMPI PUSH1 0x0 DUP1 REVERT JUMPDEST POP PUSH1 0x40 MLOAD PUSH2 0x1023 CODESIZE SUB DUP1 PUSH2 0x1023 DUP4 CODECOPY DUP2 ADD PUSH1 0x40 DUP2 SWAP1 MSTORE PUSH2 0x2F SWAP2 PUSH2 0x40 JUMP JUMPDEST PUSH1 0x1 PUSH1 0x1 PUSH1 0xA0 SHL SUB AND PUSH1 0x80 MSTORE PUSH2 0x70 JUMP JUMPDEST PUSH1 0x0 PUSH1 0x20 DUP3 DUP5 SUB SLT ISZERO PUSH2 0x52 JUMPI PUSH1 0x0 DUP1 REVERT JUMPDEST DUP2 MLOAD PUSH1 0x1 PUSH1 0x1 PUSH1 0xA0 SHL SUB DUP2 AND DUP2 EQ PUSH2 0x69 JUMPI PUSH1 0x0 DUP1 REVERT JUMPDEST SWAP4 SWAP3 POP POP POP JUMP JUMPDEST PUSH1 0x80 MLOAD PUSH2 0xF68 PUSH2 0xBB PUSH1 0x0 CODECOPY PUSH1 0x0 DUP2 DUP2 PUSH1 0xCB ADD MSTORE DUP2 DUP2 PUSH2 0x165 ADD MSTORE DUP2 DUP2 PUSH2 0x25C ADD MSTORE DUP2 DUP2 PUSH2 0x39B ADD MSTORE DUP2 DUP2 PUSH2 0x47A ADD MSTORE DUP2 DUP2 PUSH2 0x5C4 ADD MSTORE DUP2 DUP2 PUSH2 0x786 ADD MSTORE PUSH2 0x810 ADD MSTORE PUSH2 0xF68 PUSH1 0x0 RETURN INVALID PUSH1 0x80 PUSH1 0x40 MSTORE CALLVALUE DUP1 ISZERO PUSH2 0x10 JUMPI PUSH1 0x0 DUP1 REVERT JUMPDEST POP PUSH1 0x4 CALLDATASIZE LT PUSH2 0x57 JUMPI PUSH1 0x0 CALLDATALOAD PUSH1 0xE0 SHR DUP1 PUSH4 0x16690222 EQ PUSH2 0x5C JUMPI DUP1 PUSH4 0x49D71D43 EQ PUSH2 0x85 JUMPI DUP1 PUSH4 0x7D4607D4 EQ PUSH2 0xA5 JUMPI DUP1 PUSH4 0xC45A0155 EQ PUSH2 0xC6 JUMPI DUP1 PUSH4 0xC9226445 EQ PUSH2 0x105 JUMPI JUMPDEST PUSH1 0x0 DUP1 REVERT JUMPDEST PUSH2 0x6F PUSH2 0x6A CALLDATASIZE PUSH1 0x4 PUSH2 0x9AA JUMP JUMPDEST PUSH2 0x140 JUMP JUMPDEST PUSH1 0x40 MLOAD PUSH2 0x7C SWAP2 SWAP1 PUSH2 0x9F2 JUMP JUMPDEST PUSH1 0x40 MLOAD DUP1 SWAP2 SUB SWAP1 RETURN JUMPDEST PUSH2 0x98 PUSH2 0x93 CALLDATASIZE PUSH1 0x4 PUSH2 0xB4F JUMP JUMPDEST PUSH2 0x34B JUMP JUMPDEST PUSH1 0x40 MLOAD PUSH2 0x7C SWAP2 SWAP1 PUSH2 0xC13 JUMP JUMPDEST PUSH2 0xB8 PUSH2 0xB3 CALLDATASIZE PUSH1 0x4 PUSH2 0xC26 JUMP JUMPDEST PUSH2 0x5BD JUMP JUMPDEST PUSH1 0x40 MLOAD PUSH2 0x7C SWAP3 SWAP2 SWAP1 PUSH2 0xC48 JUMP JUMPDEST PUSH2 0xED PUSH32 0x0 DUP2 JUMP JUMPDEST PUSH1 0x40 MLOAD PUSH1 0x1 PUSH1 0x1 PUSH1 0xA0 SHL SUB SWAP1 SWAP2 AND DUP2 MSTORE PUSH1 0x20 ADD PUSH2 0x7C JUMP JUMPDEST PUSH2 0x10D PUSH2 0x757 JUMP JUMPDEST PUSH1 0x40 MLOAD PUSH2 0x7C SWAP2 SWAP1 DUP2 MLOAD DUP2 MSTORE PUSH1 0x20 DUP1 DUP4 ADD MLOAD SWAP1 DUP3 ADD MSTORE PUSH1 0x40 DUP1 DUP4 ADD MLOAD SWAP1 DUP3 ADD MSTORE PUSH1 0x60 SWAP2 DUP3 ADD MLOAD SWAP2 DUP2 ADD SWAP2 SWAP1 SWAP2 MSTORE PUSH1 0x80 ADD SWAP1 JUMP JUMPDEST PUSH1 0x40 MLOAD PUSH4 0x1ED02725 PUSH1 0xE1 SHL DUP2 MSTORE PUSH1 0x1 PUSH1 0x1 PUSH1 0xA0 SHL SUB DUP3 DUP2 AND PUSH1 0x4 DUP4 ADD MSTORE PUSH1 0x60 SWAP2 PUSH1 0x0 SWAP2 PUSH32 0x0 AND SWAP1 PUSH4 0x3DA04E4A SWAP1 PUSH1 0x24 ADD PUSH1 0x0 PUSH1 0x40 MLOAD DUP1 DUP4 SUB DUP2 DUP7 GAS STATICCALL ISZERO DUP1 ISZERO PUSH2 0x1AC JUMPI RETURNDATASIZE PUSH1 0x0 DUP1 RETURNDATACOPY RETURNDATASIZE PUSH1 0x0 REVERT JUMPDEST POP POP POP POP PUSH1 0x40 MLOAD RETURNDATASIZE PUSH1 0x0 DUP3 RETURNDATACOPY PUSH1 0x1F RETURNDATASIZE SWAP1 DUP2 ADD PUSH1 0x1F NOT AND DUP3 ADD PUSH1 0x40 MSTORE PUSH2 0x1D4 SWAP2 SWAP1 DUP2 ADD SWAP1 PUSH2 0xC6A JUMP JUMPDEST SWAP1 POP PUSH1 0x0 DUP2 MLOAD PUSH8 0xFFFFFFFFFFFFFFFF DUP2 GT ISZERO PUSH2 0x1F2 JUMPI PUSH2 0x1F2 PUSH2 0xAB7 JUMP JUMPDEST PUSH1 0x40 MLOAD SWAP1 DUP1 DUP3 MSTORE DUP1 PUSH1 0x20 MUL PUSH1 0x20 ADD DUP3 ADD PUSH1 0x40 MSTORE DUP1 ISZERO PUSH2 0x24B JUMPI DUP2 PUSH1 0x20 ADD JUMPDEST PUSH1 0x40 DUP1 MLOAD PUSH1 0xA0 DUP2 ADD DUP3 MSTORE PUSH1 0x0 DUP1 DUP3 MSTORE PUSH1 0x60 PUSH1 0x20 DUP1 DUP5 ADD DUP3 SWAP1 MSTORE SWAP4 DUP4 ADD DUP3 SWAP1 MSTORE DUP3 ADD DUP2 SWAP1 MSTORE PUSH1 0x80 DUP3 ADD MSTORE DUP3 MSTORE PUSH1 0x0 NOT SWAP1 SWAP3 ADD SWAP2 ADD DUP2 PUSH2 0x210 JUMPI SWAP1 POP JUMPDEST POP SWAP1 POP PUSH1 0x0 JUMPDEST DUP3 MLOAD DUP2 LT ISZERO PUSH2 0x343 JUMPI PUSH32 0x0 PUSH1 0x1 PUSH1 0x1 PUSH1 0xA0 SHL SUB AND PUSH4 0xD83FF6D0 DUP5 DUP4 DUP2 MLOAD DUP2 LT PUSH2 0x29B JUMPI PUSH2 0x29B PUSH2 0xD1C JUMP JUMPDEST PUSH1 0x20 MUL PUSH1 0x20 ADD ADD MLOAD PUSH1 0x40 MLOAD DUP3 PUSH4 0xFFFFFFFF AND PUSH1 0xE0 SHL DUP2 MSTORE PUSH1 0x4 ADD PUSH2 0x2CE SWAP2 SWAP1 PUSH1 0x1 PUSH1 0x1 PUSH1 0xA0 SHL SUB SWAP2 SWAP1 SWAP2 AND DUP2 MSTORE PUSH1 0x20 ADD SWAP1 JUMP JUMPDEST PUSH1 0x0 PUSH1 0x40 MLOAD DUP1 DUP4 SUB DUP2 DUP7 GAS STATICCALL ISZERO DUP1 ISZERO PUSH2 0x2EB JUMPI RETURNDATASIZE PUSH1 0x0 DUP1 RETURNDATACOPY RETURNDATASIZE PUSH1 0x0 REVERT JUMPDEST POP POP POP POP PUSH1 0x40 MLOAD RETURNDATASIZE PUSH1 0x0 DUP3 RETURNDATACOPY PUSH1 0x1F RETURNDATASIZE SWAP1 DUP2 ADD PUSH1 0x1F NOT AND DUP3 ADD PUSH1 0x40 MSTORE PUSH2 0x313 SWAP2 SWAP1 DUP2 ADD SWAP1 PUSH2 0xD94 JUMP JUMPDEST DUP3 DUP3 DUP2 MLOAD DUP2 LT PUSH2 0x325 JUMPI PUSH2 0x325 PUSH2 0xD1C JUMP JUMPDEST PUSH1 0x20 MUL PUSH1 0x20 ADD ADD DUP2 SWAP1 MSTORE POP DUP1 DUP1 PUSH2 0x33B SWAP1 PUSH2 0xE5B JUMP JUMPDEST SWAP2 POP POP PUSH2 0x251 JUMP JUMPDEST POP SWAP4 SWAP3 POP POP POP JUMP JUMPDEST DUP1 MLOAD PUSH1 0x60 SWAP1 DUP3 SWAP1 PUSH2 0x397 JUMPI PUSH1 0x40 MLOAD PUSH3 0x461BCD PUSH1 0xE5 SHL DUP2 MSTORE PUSH1 0x20 PUSH1 0x4 DUP3 ADD MSTORE PUSH1 0x12 PUSH1 0x24 DUP3 ADD MSTORE PUSH18 0x456D70747920736561726368207175657279 PUSH1 0x70 SHL PUSH1 0x44 DUP3 ADD MSTORE PUSH1 0x64 ADD PUSH1 0x40 MLOAD DUP1 SWAP2 SUB SWAP1 REVERT JUMPDEST PUSH1 0x0 PUSH32 0x0 PUSH1 0x1 PUSH1 0x1 PUSH1 0xA0 SHL SUB AND PUSH4 0x21CD3CAE PUSH1 0x40 MLOAD DUP2 PUSH4 0xFFFFFFFF AND PUSH1 0xE0 SHL DUP2 MSTORE PUSH1 0x4 ADD PUSH1 0x0 PUSH1 0x40 MLOAD DUP1 DUP4 SUB DUP2 DUP7 GAS STATICCALL ISZERO DUP1 ISZERO PUSH2 0x3F7 JUMPI RETURNDATASIZE PUSH1 0x0 DUP1 RETURNDATACOPY RETURNDATASIZE PUSH1 0x0 REVERT JUMPDEST POP POP POP POP PUSH1 0x40 MLOAD RETURNDATASIZE PUSH1 0x0 DUP3 RETURNDATACOPY PUSH1 0x1F RETURNDATASIZE SWAP1 DUP2 ADD PUSH1 0x1F NOT AND DUP3 ADD PUSH1 0x40 MSTORE PUSH2 0x41F SWAP2 SWAP1 DUP2 ADD SWAP1 PUSH2 0xC6A JUMP JUMPDEST SWAP1 POP PUSH1 0x0 DUP2 MLOAD PUSH8 0xFFFFFFFFFFFFFFFF DUP2 GT ISZERO PUSH2 0x43D JUMPI PUSH2 0x43D PUSH2 0xAB7 JUMP JUMPDEST PUSH1 0x40 MLOAD SWAP1 DUP1 DUP3 MSTORE DUP1 PUSH1 0x20 MUL PUSH1 0x20 ADD DUP3 ADD PUSH1 0x40 MSTORE DUP1 ISZERO PUSH2 0x466 JUMPI DUP2 PUSH1 0x20 ADD PUSH1 0x20 DUP3 MUL DUP1 CALLDATASIZE DUP4 CALLDATACOPY ADD SWAP1 POP JUMPDEST POP SWAP1 POP PUSH1 0x0 DUP1 JUMPDEST DUP4 MLOAD DUP2 LT ISZERO PUSH2 0x5B2 JUMPI PUSH1 0x0 PUSH32 0x0 PUSH1 0x1 PUSH1 0x1 PUSH1 0xA0 SHL SUB AND PUSH4 0x6ADE18CA DUP7 DUP5 DUP2 MLOAD DUP2 LT PUSH2 0x4B9 JUMPI PUSH2 0x4B9 PUSH2 0xD1C JUMP JUMPDEST PUSH1 0x20 MUL PUSH1 0x20 ADD ADD MLOAD PUSH1 0x40 MLOAD DUP3 PUSH4 0xFFFFFFFF AND PUSH1 0xE0 SHL DUP2 MSTORE PUSH1 0x4 ADD PUSH2 0x4EC SWAP2 SWAP1 PUSH1 0x1 PUSH1 0x1 PUSH1 0xA0 SHL SUB SWAP2 SWAP1 SWAP2 AND DUP2 MSTORE PUSH1 0x20 ADD SWAP1 JUMP JUMPDEST PUSH1 0x0 PUSH1 0x40 MLOAD DUP1 DUP4 SUB DUP2 DUP7 GAS STATICCALL ISZERO DUP1 ISZERO PUSH2 0x509 JUMPI RETURNDATASIZE PUSH1 0x0 DUP1 RETURNDATACOPY RETURNDATASIZE PUSH1 0x0 REVERT JUMPDEST POP POP POP POP PUSH1 0x40 MLOAD RETURNDATASIZE PUSH1 0x0 DUP3 RETURNDATACOPY PUSH1 0x1F RETURNDATASIZE SWAP1 DUP2 ADD PUSH1 0x1F NOT AND DUP3 ADD PUSH1 0x40 MSTORE PUSH2 0x531 SWAP2 SWAP1 DUP2 ADD SWAP1 PUSH2 0xE74 JUMP JUMPDEST POP POP POP SWAP2 POP POP PUSH1 0x0 DUP2 SWAP1 POP PUSH2 0x546 DUP2 DUP9 PUSH2 0x8BD JUMP JUMPDEST ISZERO PUSH2 0x59D JUMPI DUP6 DUP4 DUP2 MLOAD DUP2 LT PUSH2 0x55D JUMPI PUSH2 0x55D PUSH2 0xD1C JUMP JUMPDEST PUSH1 0x20 MUL PUSH1 0x20 ADD ADD MLOAD DUP6 DUP6 DUP2 MLOAD DUP2 LT PUSH2 0x577 JUMPI PUSH2 0x577 PUSH2 0xD1C JUMP JUMPDEST PUSH1 0x1 PUSH1 0x1 PUSH1 0xA0 SHL SUB SWAP1 SWAP3 AND PUSH1 0x20 SWAP3 DUP4 MUL SWAP2 SWAP1 SWAP2 ADD SWAP1 SWAP2 ADD MSTORE DUP4 PUSH2 0x599 DUP2 PUSH2 0xE5B JUMP JUMPDEST SWAP5 POP POP JUMPDEST POP POP DUP1 DUP1 PUSH2 0x5AA SWAP1 PUSH2 0xE5B JUMP JUMPDEST SWAP2 POP POP PUSH2 0x46D JUMP JUMPDEST POP DUP2 MSTORE SWAP5 SWAP4 POP POP POP POP JUMP JUMPDEST PUSH1 0x60 PUSH1 0x0 DUP1 PUSH32 0x0 PUSH1 0x1 PUSH1 0x1 PUSH1 0xA0 SHL SUB AND PUSH4 0x21CD3CAE PUSH1 0x40 MLOAD DUP2 PUSH4 0xFFFFFFFF AND PUSH1 0xE0 SHL DUP2 MSTORE PUSH1 0x4 ADD PUSH1 0x0 PUSH1 0x40 MLOAD DUP1 DUP4 SUB DUP2 DUP7 GAS STATICCALL ISZERO DUP1 ISZERO PUSH2 0x620 JUMPI RETURNDATASIZE PUSH1 0x0 DUP1 RETURNDATACOPY RETURNDATASIZE PUSH1 0x0 REVERT JUMPDEST POP POP POP POP PUSH1 0x40 MLOAD RETURNDATASIZE PUSH1 0x0 DUP3 RETURNDATACOPY PUSH1 0x1F RETURNDATASIZE SWAP1 DUP2 ADD PUSH1 0x1F NOT AND DUP3 ADD PUSH1 0x40 MSTORE PUSH2 0x648 SWAP2 SWAP1 DUP2 ADD SWAP1 PUSH2 0xC6A JUMP JUMPDEST DUP1 MLOAD SWAP1 SWAP2 POP DUP1 DUP7 LT PUSH2 0x66E JUMPI PUSH1 0x40 DUP1 MLOAD PUSH1 0x0 DUP2 MSTORE PUSH1 0x20 DUP2 ADD SWAP1 SWAP2 MSTORE SWAP4 POP SWAP2 POP PUSH2 0x750 SWAP1 POP JUMP JUMPDEST PUSH1 0x0 PUSH2 0x67A DUP7 DUP9 PUSH2 0xEF3 JUMP JUMPDEST SWAP1 POP DUP2 DUP2 GT ISZERO PUSH2 0x687 JUMPI POP DUP1 JUMPDEST PUSH1 0x0 PUSH2 0x693 DUP9 DUP4 PUSH2 0xF06 JUMP JUMPDEST SWAP1 POP PUSH1 0x0 DUP2 PUSH8 0xFFFFFFFFFFFFFFFF DUP2 GT ISZERO PUSH2 0x6B0 JUMPI PUSH2 0x6B0 PUSH2 0xAB7 JUMP JUMPDEST PUSH1 0x40 MLOAD SWAP1 DUP1 DUP3 MSTORE DUP1 PUSH1 0x20 MUL PUSH1 0x20 ADD DUP3 ADD PUSH1 0x40 MSTORE DUP1 ISZERO PUSH2 0x6D9 JUMPI DUP2 PUSH1 0x20 ADD PUSH1 0x20 DUP3 MUL DUP1 CALLDATASIZE DUP4 CALLDATACOPY ADD SWAP1 POP JUMPDEST POP SWAP1 POP PUSH1 0x0 JUMPDEST DUP3 DUP2 LT ISZERO PUSH2 0x746 JUMPI DUP6 PUSH2 0x6F2 DUP3 DUP13 PUSH2 0xEF3 JUMP JUMPDEST DUP2 MLOAD DUP2 LT PUSH2 0x702 JUMPI PUSH2 0x702 PUSH2 0xD1C JUMP JUMPDEST PUSH1 0x20 MUL PUSH1 0x20 ADD ADD MLOAD DUP3 DUP3 DUP2 MLOAD DUP2 LT PUSH2 0x71C JUMPI PUSH2 0x71C PUSH2 0xD1C JUMP JUMPDEST PUSH1 0x1 PUSH1 0x1 PUSH1 0xA0 SHL SUB SWAP1 SWAP3 AND PUSH1 0x20 SWAP3 DUP4 MUL SWAP2 SWAP1 SWAP2 ADD SWAP1 SWAP2 ADD MSTORE DUP1 PUSH2 0x73E DUP2 PUSH2 0xE5B JUMP JUMPDEST SWAP2 POP POP PUSH2 0x6DF JUMP JUMPDEST POP SWAP6 POP SWAP2 SWAP4 POP POP POP POP JUMPDEST SWAP3 POP SWAP3 SWAP1 POP JUMP JUMPDEST PUSH2 0x782 PUSH1 0x40 MLOAD DUP1 PUSH1 0x80 ADD PUSH1 0x40 MSTORE DUP1 PUSH1 0x0 DUP2 MSTORE PUSH1 0x20 ADD PUSH1 0x0 DUP2 MSTORE PUSH1 0x20 ADD PUSH1 0x0 DUP2 MSTORE PUSH1 0x20 ADD PUSH1 0x0 DUP2 MSTORE POP SWAP1 JUMP JUMPDEST PUSH1 0x0 PUSH32 0x0 PUSH1 0x1 PUSH1 0x1 PUSH1 0xA0 SHL SUB AND PUSH4 0x21CD3CAE PUSH1 0x40 MLOAD DUP2 PUSH4 0xFFFFFFFF AND PUSH1 0xE0 SHL DUP2 MSTORE PUSH1 0x4 ADD PUSH1 0x0 PUSH1 0x40 MLOAD DUP1 DUP4 SUB DUP2 DUP7 GAS STATICCALL ISZERO DUP1 ISZERO PUSH2 0x7E2 JUMPI RETURNDATASIZE PUSH1 0x0 DUP1 RETURNDATACOPY RETURNDATASIZE PUSH1 0x0 REVERT JUMPDEST POP POP POP POP PUSH1 0x40 MLOAD RETURNDATASIZE PUSH1 0x0 DUP3 RETURNDATACOPY PUSH1 0x1F RETURNDATASIZE SWAP1 DUP2 ADD PUSH1 0x1F NOT AND DUP3 ADD PUSH1 0x40 MSTORE PUSH2 0x80A SWAP2 SWAP1 DUP2 ADD SWAP1 PUSH2 0xC6A JUMP JUMPDEST SWAP1 POP PUSH1 0x0 PUSH32 0x0 PUSH1 0x1 PUSH1 0x1 PUSH1 0xA0 SHL SUB AND PUSH4 0x9F9334E4 PUSH1 0x40 MLOAD DUP2 PUSH4 0xFFFFFFFF AND PUSH1 0xE0 SHL DUP2 MSTORE PUSH1 0x4 ADD PUSH1 0x20 PUSH1 0x40 MLOAD DUP1 DUP4 SUB DUP2 DUP7 GAS STATICCALL ISZERO DUP1 ISZERO PUSH2 0x86C JUMPI RETURNDATASIZE PUSH1 0x0 DUP1 RETURNDATACOPY RETURNDATASIZE PUSH1 0x0 REVERT JUMPDEST POP POP POP POP PUSH1 0x40 MLOAD RETURNDATASIZE PUSH1 0x1F NOT PUSH1 0x1F DUP3 ADD AND DUP3 ADD DUP1 PUSH1 0x40 MSTORE POP DUP2 ADD SWAP1 PUSH2 0x890 SWAP2 SWAP1 PUSH2 0xF19 JUMP JUMPDEST SWAP1 POP PUSH1 0x40 MLOAD DUP1 PUSH1 0x80 ADD PUSH1 0x40 MSTORE DUP1 DUP3 DUP2 MSTORE PUSH1 0x20 ADD DUP4 MLOAD DUP2 MSTORE PUSH1 0x20 ADD PUSH1 0x0 DUP2 MSTORE PUSH1 0x20 ADD PUSH1 0x0 DUP2 MSTORE POP SWAP3 POP POP POP SWAP1 JUMP JUMPDEST PUSH1 0x0 DUP3 MLOAD DUP3 MLOAD GT ISZERO PUSH2 0x8D1 JUMPI POP PUSH1 0x0 PUSH2 0x98C JUMP JUMPDEST PUSH1 0x0 JUMPDEST DUP3 MLOAD DUP5 MLOAD PUSH2 0x8E2 SWAP2 SWAP1 PUSH2 0xF06 JUMP JUMPDEST DUP2 GT PUSH2 0x986 JUMPI PUSH1 0x1 PUSH1 0x0 JUMPDEST DUP5 MLOAD DUP2 LT ISZERO PUSH2 0x961 JUMPI DUP5 DUP2 DUP2 MLOAD DUP2 LT PUSH2 0x908 JUMPI PUSH2 0x908 PUSH2 0xD1C JUMP JUMPDEST ADD PUSH1 0x20 ADD MLOAD PUSH1 0x1 PUSH1 0x1 PUSH1 0xF8 SHL SUB NOT AND DUP7 PUSH2 0x922 DUP4 DUP7 PUSH2 0xEF3 JUMP JUMPDEST DUP2 MLOAD DUP2 LT PUSH2 0x932 JUMPI PUSH2 0x932 PUSH2 0xD1C JUMP JUMPDEST ADD PUSH1 0x20 ADD MLOAD PUSH1 0x1 PUSH1 0x1 PUSH1 0xF8 SHL SUB NOT AND EQ PUSH2 0x94F JUMPI PUSH1 0x0 SWAP2 POP PUSH2 0x961 JUMP JUMPDEST DUP1 PUSH2 0x959 DUP2 PUSH2 0xE5B JUMP JUMPDEST SWAP2 POP POP PUSH2 0x8ED JUMP JUMPDEST POP DUP1 ISZERO PUSH2 0x973 JUMPI PUSH1 0x1 SWAP3 POP POP POP PUSH2 0x98C JUMP JUMPDEST POP DUP1 PUSH2 0x97E DUP2 PUSH2 0xE5B JUMP JUMPDEST SWAP2 POP POP PUSH2 0x8D4 JUMP JUMPDEST POP PUSH1 0x0 SWAP1 POP JUMPDEST SWAP3 SWAP2 POP POP JUMP JUMPDEST PUSH1 0x1 PUSH1 0x1 PUSH1 0xA0 SHL SUB DUP2 AND DUP2 EQ PUSH2 0x9A7 JUMPI PUSH1 0x0 DUP1 REVERT JUMPDEST POP JUMP JUMPDEST PUSH1 0x0 PUSH1 0x20 DUP3 DUP5 SUB SLT ISZERO PUSH2 0x9BC JUMPI PUSH1 0x0 DUP1 REVERT JUMPDEST DUP2 CALLDATALOAD PUSH2 0x9C7 DUP2 PUSH2 0x992 JUMP JUMPDEST SWAP4 SWAP3 POP POP POP JUMP JUMPDEST PUSH1 0x0 JUMPDEST DUP4 DUP2 LT ISZERO PUSH2 0x9E9 JUMPI DUP2 DUP2 ADD MLOAD DUP4 DUP3 ADD MSTORE PUSH1 0x20 ADD PUSH2 0x9D1 JUMP JUMPDEST POP POP PUSH1 0x0 SWAP2 ADD MSTORE JUMP JUMPDEST PUSH1 0x0 PUSH1 0x20 DUP1 DUP4 ADD DUP2 DUP5 MSTORE DUP1 DUP6 MLOAD DUP1 DUP4 MSTORE PUSH1 0x40 SWAP3 POP DUP3 DUP7 ADD SWAP2 POP DUP3 DUP2 PUSH1 0x5 SHL DUP8 ADD ADD DUP5 DUP9 ADD PUSH1 0x0 JUMPDEST DUP4 DUP2 LT ISZERO PUSH2 0xAA9 JUMPI DUP9 DUP4 SUB PUSH1 0x3F NOT ADD DUP6 MSTORE DUP2 MLOAD DUP1 MLOAD PUSH1 0x1 PUSH1 0x1 PUSH1 0xA0 SHL SUB SWAP1 DUP2 AND DUP6 MSTORE DUP9 DUP3 ADD MLOAD PUSH1 0xA0 DUP11 DUP8 ADD DUP2 SWAP1 MSTORE DUP2 MLOAD SWAP1 DUP8 ADD DUP2 SWAP1 MSTORE PUSH1 0xC0 SWAP3 SWAP2 SWAP1 PUSH2 0xA63 DUP2 DUP6 DUP11 ADD DUP5 DUP16 ADD PUSH2 0x9CE JUMP JUMPDEST DUP5 DUP12 ADD MLOAD SWAP1 SWAP3 AND DUP8 DUP12 ADD MSTORE POP PUSH1 0x60 DUP1 DUP5 ADD MLOAD SWAP1 DUP8 ADD MSTORE PUSH1 0x80 SWAP3 DUP4 ADD MLOAD ISZERO ISZERO SWAP3 DUP7 ADD SWAP3 SWAP1 SWAP3 MSTORE SWAP6 DUP9 ADD SWAP6 PUSH1 0x1F SWAP2 SWAP1 SWAP2 ADD PUSH1 0x1F NOT AND SWAP1 SWAP4 ADD SWAP1 SWAP3 ADD SWAP2 SWAP1 DUP7 ADD SWAP1 PUSH1 0x1 ADD PUSH2 0xA19 JUMP JUMPDEST POP SWAP1 SWAP9 SWAP8 POP POP POP POP POP POP POP POP JUMP JUMPDEST PUSH4 0x4E487B71 PUSH1 0xE0 SHL PUSH1 0x0 MSTORE PUSH1 0x41 PUSH1 0x4 MSTORE PUSH1 0x24 PUSH1 0x0 REVERT JUMPDEST PUSH1 0x40 MLOAD PUSH1 0xA0 DUP2 ADD PUSH8 0xFFFFFFFFFFFFFFFF DUP2 GT DUP3 DUP3 LT OR ISZERO PUSH2 0xAF0 JUMPI PUSH2 0xAF0 PUSH2 0xAB7 JUMP JUMPDEST PUSH1 0x40 MSTORE SWAP1 JUMP JUMPDEST PUSH1 0x40 MLOAD PUSH1 0x1F DUP3 ADD PUSH1 0x1F NOT AND DUP2 ADD PUSH8 0xFFFFFFFFFFFFFFFF DUP2 GT DUP3 DUP3 LT OR ISZERO PUSH2 0xB1F JUMPI PUSH2 0xB1F PUSH2 0xAB7 JUMP JUMPDEST PUSH1 0x40 MSTORE SWAP2 SWAP1 POP JUMP JUMPDEST PUSH1 0x0 PUSH8 0xFFFFFFFFFFFFFFFF DUP3 GT ISZERO PUSH2 0xB41 JUMPI PUSH2 0xB41 PUSH2 0xAB7 JUMP JUMPDEST POP PUSH1 0x1F ADD PUSH1 0x1F NOT AND PUSH1 0x20 ADD SWAP1 JUMP JUMPDEST PUSH1 0x0 PUSH1 0x20 DUP3 DUP5 SUB SLT ISZERO PUSH2 0xB61 JUMPI PUSH1 0x0 DUP1 REVERT JUMPDEST DUP2 CALLDATALOAD PUSH8 0xFFFFFFFFFFFFFFFF DUP2 GT ISZERO PUSH2 0xB78 JUMPI PUSH1 0x0 DUP1 REVERT JUMPDEST DUP3 ADD PUSH1 0x1F DUP2 ADD DUP5 SGT PUSH2 0xB89 JUMPI PUSH1 0x0 DUP1 REVERT JUMPDEST DUP1 CALLDATALOAD PUSH2 0xB9C PUSH2 0xB97 DUP3 PUSH2 0xB27 JUMP JUMPDEST PUSH2 0xAF6 JUMP JUMPDEST DUP2 DUP2 MSTORE DUP6 PUSH1 0x20 DUP4 DUP6 ADD ADD GT ISZERO PUSH2 0xBB1 JUMPI PUSH1 0x0 DUP1 REVERT JUMPDEST DUP2 PUSH1 0x20 DUP5 ADD PUSH1 0x20 DUP4 ADD CALLDATACOPY PUSH1 0x0 SWAP2 DUP2 ADD PUSH1 0x20 ADD SWAP2 SWAP1 SWAP2 MSTORE SWAP5 SWAP4 POP POP POP POP JUMP JUMPDEST PUSH1 0x0 DUP2 MLOAD DUP1 DUP5 MSTORE PUSH1 0x20 DUP1 DUP6 ADD SWAP5 POP DUP1 DUP5 ADD PUSH1 0x0 JUMPDEST DUP4 DUP2 LT ISZERO PUSH2 0xC08 JUMPI DUP2 MLOAD PUSH1 0x1 PUSH1 0x1 PUSH1 0xA0 SHL SUB AND DUP8 MSTORE SWAP6 DUP3 ADD SWAP6 SWAP1 DUP3 ADD SWAP1 PUSH1 0x1 ADD PUSH2 0xBE3 JUMP JUMPDEST POP SWAP5 SWAP6 SWAP5 POP POP POP POP POP JUMP JUMPDEST PUSH1 0x20 DUP2 MSTORE PUSH1 0x0 PUSH2 0x9C7 PUSH1 0x20 DUP4 ADD DUP5 PUSH2 0xBCF JUMP JUMPDEST PUSH1 0x0 DUP1 PUSH1 0x40 DUP4 DUP6 SUB SLT ISZERO PUSH2 0xC39 JUMPI PUSH1 0x0 DUP1 REVERT JUMPDEST POP POP DUP1 CALLDATALOAD SWAP3 PUSH1 0x20 SWAP1 SWAP2 ADD CALLDATALOAD SWAP2 POP JUMP JUMPDEST PUSH1 0x40 DUP2 MSTORE PUSH1 0x0 PUSH2 0xC5B PUSH1 0x40 DUP4 ADD DUP6 PUSH2 0xBCF JUMP JUMPDEST SWAP1 POP DUP3 PUSH1 0x20 DUP4 ADD MSTORE SWAP4 SWAP3 POP POP POP JUMP JUMPDEST PUSH1 0x0 PUSH1 0x20 DUP1 DUP4 DUP6 SUB SLT ISZERO PUSH2 0xC7D JUMPI PUSH1 0x0 DUP1 REVERT JUMPDEST DUP3 MLOAD PUSH8 0xFFFFFFFFFFFFFFFF DUP1 DUP3 GT ISZERO PUSH2 0xC95 JUMPI PUSH1 0x0 DUP1 REVERT JUMPDEST DUP2 DUP6 ADD SWAP2 POP DUP6 PUSH1 0x1F DUP4 ADD SLT PUSH2 0xCA9 JUMPI PUSH1 0x0 DUP1 REVERT JUMPDEST DUP2 MLOAD DUP2 DUP2 GT ISZERO PUSH2 0xCBB JUMPI PUSH2 0xCBB PUSH2 0xAB7 JUMP JUMPDEST DUP1 PUSH1 0x5 SHL SWAP2 POP PUSH2 0xCCC DUP5 DUP4 ADD PUSH2 0xAF6 JUMP JUMPDEST DUP2 DUP2 MSTORE SWAP2 DUP4 ADD DUP5 ADD SWAP2 DUP5 DUP2 ADD SWAP1 DUP9 DUP5 GT ISZERO PUSH2 0xCE6 JUMPI PUSH1 0x0 DUP1 REVERT JUMPDEST SWAP4 DUP6 ADD SWAP4 JUMPDEST DUP4 DUP6 LT ISZERO PUSH2 0xD10 JUMPI DUP5 MLOAD SWAP3 POP PUSH2 0xD00 DUP4 PUSH2 0x992 JUMP JUMPDEST DUP3 DUP3 MSTORE SWAP4 DUP6 ADD SWAP4 SWAP1 DUP6 ADD SWAP1 PUSH2 0xCEB JUMP JUMPDEST SWAP9 SWAP8 POP POP POP POP POP POP POP POP JUMP JUMPDEST PUSH4 0x4E487B71 PUSH1 0xE0 SHL PUSH1 0x0 MSTORE PUSH1 0x32 PUSH1 0x4 MSTORE PUSH1 0x24 PUSH1 0x0 REVERT JUMPDEST PUSH1 0x0 DUP3 PUSH1 0x1F DUP4 ADD SLT PUSH2 0xD43 JUMPI PUSH1 0x0 DUP1 REVERT JUMPDEST DUP2 MLOAD PUSH2 0xD51 PUSH2 0xB97 DUP3 PUSH2 0xB27 JUMP JUMPDEST DUP2 DUP2 MSTORE DUP5 PUSH1 0x20 DUP4 DUP7 ADD ADD GT ISZERO PUSH2 0xD66 JUMPI PUSH1 0x0 DUP1 REVERT JUMPDEST PUSH2 0xD77 DUP3 PUSH1 0x20 DUP4 ADD PUSH1 0x20 DUP8 ADD PUSH2 0x9CE JUMP JUMPDEST SWAP5 SWAP4 POP POP POP POP JUMP JUMPDEST DUP1 MLOAD DUP1 ISZERO ISZERO DUP2 EQ PUSH2 0xD8F JUMPI PUSH1 0x0 DUP1 REVERT JUMPDEST SWAP2 SWAP1 POP JUMP JUMPDEST PUSH1 0x0 PUSH1 0x20 DUP3 DUP5 SUB SLT ISZERO PUSH2 0xDA6 JUMPI PUSH1 0x0 DUP1 REVERT JUMPDEST DUP2 MLOAD PUSH8 0xFFFFFFFFFFFFFFFF DUP1 DUP3 GT ISZERO PUSH2 0xDBE JUMPI PUSH1 0x0 DUP1 REVERT JUMPDEST SWAP1 DUP4 ADD SWAP1 PUSH1 0xA0 DUP3 DUP7 SUB SLT ISZERO PUSH2 0xDD2 JUMPI PUSH1 0x0 DUP1 REVERT JUMPDEST PUSH2 0xDDA PUSH2 0xACD JUMP JUMPDEST DUP3 MLOAD PUSH2 0xDE5 DUP2 PUSH2 0x992 JUMP JUMPDEST DUP2 MSTORE PUSH1 0x20 DUP4 ADD MLOAD DUP3 DUP2 GT ISZERO PUSH2 0xDF9 JUMPI PUSH1 0x0 DUP1 REVERT JUMPDEST PUSH2 0xE05 DUP8 DUP3 DUP7 ADD PUSH2 0xD32 JUMP JUMPDEST PUSH1 0x20 DUP4 ADD MSTORE POP PUSH1 0x40 DUP4 ADD MLOAD SWAP2 POP PUSH2 0xE1B DUP3 PUSH2 0x992 JUMP JUMPDEST DUP2 PUSH1 0x40 DUP3 ADD MSTORE PUSH1 0x60 DUP4 ADD MLOAD PUSH1 0x60 DUP3 ADD MSTORE PUSH2 0xE37 PUSH1 0x80 DUP5 ADD PUSH2 0xD7F JUMP JUMPDEST PUSH1 0x80 DUP3 ADD MSTORE SWAP6 SWAP5 POP POP POP POP POP JUMP JUMPDEST PUSH4 0x4E487B71 PUSH1 0xE0 SHL PUSH1 0x0 MSTORE PUSH1 0x11 PUSH1 0x4 MSTORE PUSH1 0x24 PUSH1 0x0 REVERT JUMPDEST PUSH1 0x0 PUSH1 0x1 DUP3 ADD PUSH2 0xE6D JUMPI PUSH2 0xE6D PUSH2 0xE45 JUMP JUMPDEST POP PUSH1 0x1 ADD SWAP1 JUMP JUMPDEST PUSH1 0x0 DUP1 PUSH1 0x0 DUP1 PUSH1 0x0 PUSH1 0xA0 DUP7 DUP9 SUB SLT ISZERO PUSH2 0xE8C JUMPI PUSH1 0x0 DUP1 REVERT JUMPDEST DUP6 MLOAD PUSH2 0xE97 DUP2 PUSH2 0x992 JUMP JUMPDEST PUSH1 0x20 DUP8 ADD MLOAD SWAP1 SWAP6 POP PUSH8 0xFFFFFFFFFFFFFFFF DUP2 GT ISZERO PUSH2 0xEB4 JUMPI PUSH1 0x0 DUP1 REVERT JUMPDEST PUSH2 0xEC0 DUP9 DUP3 DUP10 ADD PUSH2 0xD32 JUMP JUMPDEST SWAP5 POP POP PUSH1 0x40 DUP7 ADD MLOAD PUSH2 0xED1 DUP2 PUSH2 0x992 JUMP JUMPDEST PUSH1 0x60 DUP8 ADD MLOAD SWAP1 SWAP4 POP SWAP2 POP PUSH2 0xEE7 PUSH1 0x80 DUP8 ADD PUSH2 0xD7F JUMP JUMPDEST SWAP1 POP SWAP3 SWAP6 POP SWAP3 SWAP6 SWAP1 SWAP4 POP JUMP JUMPDEST DUP1 DUP3 ADD DUP1 DUP3 GT ISZERO PUSH2 0x98C JUMPI PUSH2 0x98C PUSH2 0xE45 JUMP JUMPDEST DUP2 DUP2 SUB DUP2 DUP2 GT ISZERO PUSH2 0x98C JUMPI PUSH2 0x98C PUSH2 0xE45 JUMP JUMPDEST PUSH1 0x0 PUSH1 0x20 DUP3 DUP5 SUB SLT ISZERO PUSH2 0xF2B JUMPI PUSH1 0x0 DUP1 REVERT JUMPDEST POP MLOAD SWAP2 SWAP1 POP JUMP INVALID LOG2 PUSH5 0x6970667358 0x22 SLT KECCAK256 0xE8 0xBD SWAP1 PUSH19 0x3CE618B4180C4E3DEC47E7AB6958EC7D09B3C4 0x2E ADD SWAP5 EXP POP SSTORE 0xD8 0xC4 NUMBER PUSH5 0x736F6C6343 STOP ADDMOD EQ STOP CALLER "},"methodIdentifiers":{"factory()":"c45a0155","getAllGroupsPaginated(uint256,uint256)":"7d4607d4","getFactoryStats()":"c9226445","getUserGroupsWithInfo(address)":"16690222","searchGroups(string)":"49d71d43"}}}}}