{
  "_format": "hh-sol-artifact-1",
  "contractName": "ExpenseFactoryExtensions",
  "sourceName": "contracts/ExpenseFactoryExtensions.sol",
  "abi": [
    {
      "inputs": [
        {
          "internalType": "address",
          "name": "_factory",
          "type": "address"
        }
      ],
      "stateMutability": "nonpayable",
      "type": "constructor"
    },
    {
      "inputs": [],
      "name": "factory",
      "outputs": [
        {
          "internalType": "contract ExpenseFactory",
          "name": "",
          "type": "address"
        }
      ],
      "stateMutability": "view",
      "type": "function"
    },
    {
      "inputs": [
        {
          "internalType": "uint256",
          "name": "_offset",
          "type": "uint256"
        },
        {
          "internalType": "uint256",
          "name": "_limit",
          "type": "uint256"
        }
      ],
      "name": "getAllGroupsPaginated",
      "outputs": [
        {
          "internalType": "address[]",
          "name": "groups",
          "type": "address[]"
        },
        {
          "internalType": "uint256",
          "name": "total",
          "type": "uint256"
        }
      ],
      "stateMutability": "view",
      "type": "function"
    },
    {
      "inputs": [],
      "name": "getFactoryStats",
      "outputs": [
        {
          "components": [
            {
              "internalType": "uint256",
              "name": "totalGroups",
              "type": "uint256"
            },
            {
              "internalType": "uint256",
              "name": "activeGroups",
              "type": "uint256"
            },
            {
              "internalType": "uint256",
              "name": "totalMembers",
              "type": "uint256"
            },
            {
              "internalType": "uint256",
              "name": "totalExpenses",
              "type": "uint256"
            }
          ],
          "internalType": "struct ExpenseFactoryExtensions.GroupStats",
          "name": "",
          "type": "tuple"
        }
      ],
      "stateMutability": "view",
      "type": "function"
    },
    {
      "inputs": [
        {
          "internalType": "address",
          "name": "_user",
          "type": "address"
        }
      ],
      "name": "getUserGroupsWithInfo",
      "outputs": [
        {
          "components": [
            {
              "internalType": "address",
              "name": "groupAddress",
              "type": "address"
            },
            {
              "internalType": "string",
              "name": "name",
              "type": "string"
            },
            {
              "internalType": "address",
              "name": "creator",
              "type": "address"
            },
            {
              "internalType": "uint256",
              "name": "createdAt",
              "type": "uint256"
            },
            {
              "internalType": "bool",
              "name": "active",
              "type": "bool"
            }
          ],
          "internalType": "struct ExpenseFactory.GroupInfo[]",
          "name": "",
          "type": "tuple[]"
        }
      ],
      "stateMutability": "view",
      "type": "function"
    },
    {
      "inputs": [
        {
          "internalType": "string",
          "name": "_nameQuery",
          "type": "string"
        }
      ],
      "name": "searchGroups",
      "outputs": [
        {
          "internalType": "address[]",
          "name": "",
          "type": "address[]"
        }
      ],
      "stateMutability": "view",
      "type": "function"
    }
  ],
  "bytecode": "0x60a060405234801561001057600080fd5b5060405161102338038061102383398101604081905261002f91610040565b6001600160a01b0316608052610070565b60006020828403121561005257600080fd5b81516001600160a01b038116811461006957600080fd5b9392505050565b608051610f686100bb6000396000818160cb015281816101650152818161025c0152818161039b0152818161047a015281816105c40152818161078601526108100152610f686000f3fe608060405234801561001057600080fd5b50600436106100575760003560e01c8063166902221461005c57806349d71d43146100855780637d4607d4146100a5578063c45a0155146100c6578063c922644514610105575b600080fd5b61006f61006a3660046109aa565b610140565b60405161007c91906109f2565b60405180910390f35b610098610093366004610b4f565b61034b565b60405161007c9190610c13565b6100b86100b3366004610c26565b6105bd565b60405161007c929190610c48565b6100ed7f000000000000000000000000000000000000000000000000000000000000000081565b6040516001600160a01b03909116815260200161007c565b61010d610757565b60405161007c91908151815260208083015190820152604080830151908201526060918201519181019190915260800190565b604051631ed0272560e11b81526001600160a01b0382811660048301526060916000917f00000000000000000000000000000000000000000000000000000000000000001690633da04e4a90602401600060405180830381865afa1580156101ac573d6000803e3d6000fd5b505050506040513d6000823e601f3d908101601f191682016040526101d49190810190610c6a565b90506000815167ffffffffffffffff8111156101f2576101f2610ab7565b60405190808252806020026020018201604052801561024b57816020015b6040805160a0810182526000808252606060208084018290529383018290528201819052608082015282526000199092019101816102105790505b50905060005b8251811015610343577f00000000000000000000000000000000000000000000000000000000000000006001600160a01b031663d83ff6d084838151811061029b5761029b610d1c565b60200260200101516040518263ffffffff1660e01b81526004016102ce91906001600160a01b0391909116815260200190565b600060405180830381865afa1580156102eb573d6000803e3d6000fd5b505050506040513d6000823e601f3d908101601f191682016040526103139190810190610d94565b82828151811061032557610325610d1c565b6020026020010181905250808061033b90610e5b565b915050610251565b509392505050565b805160609082906103975760405162461bcd60e51b8152602060048201526012602482015271456d7074792073656172636820717565727960701b604482015260640160405180910390fd5b60007f00000000000000000000000000000000000000000000000000000000000000006001600160a01b03166321cd3cae6040518163ffffffff1660e01b8152600401600060405180830381865afa1580156103f7573d6000803e3d6000fd5b505050506040513d6000823e601f3d908101601f1916820160405261041f9190810190610c6a565b90506000815167ffffffffffffffff81111561043d5761043d610ab7565b604051908082528060200260200182016040528015610466578160200160208202803683370190505b5090506000805b83518110156105b25760007f00000000000000000000000000000000000000000000000000000000000000006001600160a01b0316636ade18ca8684815181106104b9576104b9610d1c565b60200260200101516040518263ffffffff1660e01b81526004016104ec91906001600160a01b0391909116815260200190565b600060405180830381865afa158015610509573d6000803e3d6000fd5b505050506040513d6000823e601f3d908101601f191682016040526105319190810190610e74565b505050915050600081905061054681886108bd565b1561059d5785838151811061055d5761055d610d1c565b602002602001015185858151811061057757610577610d1c565b6001600160a01b03909216602092830291909101909101528361059981610e5b565b9450505b505080806105aa90610e5b565b91505061046d565b508152949350505050565b60606000807f00000000000000000000000000000000000000000000000000000000000000006001600160a01b03166321cd3cae6040518163ffffffff1660e01b8152600401600060405180830381865afa158015610620573d6000803e3d6000fd5b505050506040513d6000823e601f3d908101601f191682016040526106489190810190610c6a565b805190915080861061066e57604080516000815260208101909152935091506107509050565b600061067a8688610ef3565b9050818111156106875750805b60006106938883610f06565b905060008167ffffffffffffffff8111156106b0576106b0610ab7565b6040519080825280602002602001820160405280156106d9578160200160208202803683370190505b50905060005b8281101561074657856106f2828c610ef3565b8151811061070257610702610d1c565b602002602001015182828151811061071c5761071c610d1c565b6001600160a01b03909216602092830291909101909101528061073e81610e5b565b9150506106df565b5095509193505050505b9250929050565b6107826040518060800160405280600081526020016000815260200160008152602001600081525090565b60007f00000000000000000000000000000000000000000000000000000000000000006001600160a01b03166321cd3cae6040518163ffffffff1660e01b8152600401600060405180830381865afa1580156107e2573d6000803e3d6000fd5b505050506040513d6000823e601f3d908101601f1916820160405261080a9190810190610c6a565b905060007f00000000000000000000000000000000000000000000000000000000000000006001600160a01b0316639f9334e46040518163ffffffff1660e01b8152600401602060405180830381865afa15801561086c573d6000803e3d6000fd5b505050506040513d601f19601f820116820180604052508101906108909190610f19565b90506040518060800160405280828152602001835181526020016000815260200160008152509250505090565b60008251825111156108d15750600061098c565b60005b825184516108e29190610f06565b811161098657600160005b84518110156109615784818151811061090857610908610d1c565b01602001516001600160f81b031916866109228386610ef3565b8151811061093257610932610d1c565b01602001516001600160f81b0319161461094f5760009150610961565b8061095981610e5b565b9150506108ed565b5080156109735760019250505061098c565b508061097e81610e5b565b9150506108d4565b50600090505b92915050565b6001600160a01b03811681146109a757600080fd5b50565b6000602082840312156109bc57600080fd5b81356109c781610992565b9392505050565b60005b838110156109e95781810151838201526020016109d1565b50506000910152565b60006020808301818452808551808352604092508286019150828160051b87010184880160005b83811015610aa957888303603f19018552815180516001600160a01b0390811685528882015160a08a8701819052815190870181905260c0929190610a6381858a01848f016109ce565b848b0151909216878b0152506060808401519087015260809283015115159286019290925295880195601f91909101601f19169093019092019190860190600101610a19565b509098975050505050505050565b634e487b7160e01b600052604160045260246000fd5b60405160a0810167ffffffffffffffff81118282101715610af057610af0610ab7565b60405290565b604051601f8201601f1916810167ffffffffffffffff81118282101715610b1f57610b1f610ab7565b604052919050565b600067ffffffffffffffff821115610b4157610b41610ab7565b50601f01601f191660200190565b600060208284031215610b6157600080fd5b813567ffffffffffffffff811115610b7857600080fd5b8201601f81018413610b8957600080fd5b8035610b9c610b9782610b27565b610af6565b818152856020838501011115610bb157600080fd5b81602084016020830137600091810160200191909152949350505050565b600081518084526020808501945080840160005b83811015610c085781516001600160a01b031687529582019590820190600101610be3565b509495945050505050565b6020815260006109c76020830184610bcf565b60008060408385031215610c3957600080fd5b50508035926020909101359150565b604081526000610c5b6040830185610bcf565b90508260208301529392505050565b60006020808385031215610c7d57600080fd5b825167ffffffffffffffff80821115610c9557600080fd5b818501915085601f830112610ca957600080fd5b815181811115610cbb57610cbb610ab7565b8060051b9150610ccc848301610af6565b8181529183018401918481019088841115610ce657600080fd5b938501935b83851015610d105784519250610d0083610992565b8282529385019390850190610ceb565b98975050505050505050565b634e487b7160e01b600052603260045260246000fd5b600082601f830112610d4357600080fd5b8151610d51610b9782610b27565b818152846020838601011115610d6657600080fd5b610d778260208301602087016109ce565b949350505050565b80518015158114610d8f57600080fd5b919050565b600060208284031215610da657600080fd5b815167ffffffffffffffff80821115610dbe57600080fd5b9083019060a08286031215610dd257600080fd5b610dda610acd565b8251610de581610992565b8152602083015182811115610df957600080fd5b610e0587828601610d32565b60208301525060408301519150610e1b82610992565b81604082015260608301516060820152610e3760808401610d7f565b608082015295945050505050565b634e487b7160e01b600052601160045260246000fd5b600060018201610e6d57610e6d610e45565b5060010190565b600080600080600060a08688031215610e8c57600080fd5b8551610e9781610992565b602087015190955067ffffffffffffffff811115610eb457600080fd5b610ec088828901610d32565b9450506040860151610ed181610992565b60608701519093509150610ee760808701610d7f565b90509295509295909350565b8082018082111561098c5761098c610e45565b8181038181111561098c5761098c610e45565b600060208284031215610f2b57600080fd5b505191905056fea2646970667358221220e8bd90723ce618b4180c4e3dec47e7ab6958ec7d09b3c42e01940a5055d8c44364736f6c63430008140033",
  "linkReferences": {},
  "deployedLinkReferences": {}
}